{
	"data": {
		"bytecode": {
			"linkReferences": {},
			"object": "6080604052348015600e575f5ffd5b506124128061001c5f395ff3fe6080604052600436106100e0575f3560e01c8063c1cbbca71161007e578063dbbc7a8411610058578063dbbc7a84146102e4578063f096215114610320578063f7e590ee14610360578063f8a8fd6d1461039c576100e7565b8063c1cbbca714610264578063cde128db14610280578063cea3ec15146102a8576100e7565b8063371fd8e6116100ba578063371fd8e614610192578063a87430ba146101ae578063add85f7d146101ea578063b12d02fc14610226576100e7565b8063107046bd146100eb578063259ba3eb1461012e578063300b949f1461016a576100e7565b366100e757005b5f5ffd5b3480156100f6575f5ffd5b50610111600480360381019061010c9190611700565b6103c6565b604051610125989796959493929190611794565b60405180910390f35b348015610139575f5ffd5b50610154600480360381019061014f9190611810565b61045e565b604051610161919061184e565b60405180910390f35b348015610175575f5ffd5b50610190600480360381019061018b9190611700565b610489565b005b6101ac60048036038101906101a79190611700565b610778565b005b3480156101b9575f5ffd5b506101d460048036038101906101cf9190611891565b610888565b6040516101e191906118d6565b60405180910390f35b3480156101f5575f5ffd5b50610210600480360381019061020b9190611700565b6108a4565b60405161021d919061184e565b60405180910390f35b348015610231575f5ffd5b5061024c60048036038101906102479190611810565b6108ce565b60405161025b939291906118ef565b60405180910390f35b61027e60048036038101906102799190611700565b61092d565b005b34801561028b575f5ffd5b506102a660048036038101906102a1919061194e565b610c11565b005b3480156102b3575f5ffd5b506102ce60048036038101906102c991906119c5565b61107c565b6040516102db919061184e565b60405180910390f35b3480156102ef575f5ffd5b5061030a600480360381019061030591906119c5565b6110a7565b604051610317919061184e565b60405180910390f35b34801561032b575f5ffd5b5061034660048036038101906103419190611810565b6110d2565b604051610357959493929190611a03565b60405180910390f35b34801561036b575f5ffd5b5061038660048036038101906103819190611891565b61111e565b604051610393919061184e565b60405180910390f35b3480156103a7575f5ffd5b506103b0611133565b6040516103bd9190611a6f565b60405180910390f35b600281815481106103d5575f80fd5b905f5260205f2090600602015f91509050805f015490806001015490806002015f9054906101000a900460ff1690806003015490806004015f9054906101000a900460ff16908060040160019054906101000a900460ff16908060040160029054906101000a900473ffffffffffffffffffffffffffffffffffffffff16908060050154905088565b6005602052815f5260405f208181548110610477575f80fd5b905f5260205f20015f91509150505481565b5f6002828154811061049e5761049d611a88565b5b905f5260205f20906006020190503373ffffffffffffffffffffffffffffffffffffffff168160040160029054906101000a900473ffffffffffffffffffffffffffffffffffffffff1673ffffffffffffffffffffffffffffffffffffffff161461053e576040517f08c379a000000000000000000000000000000000000000000000000000000000815260040161053590611b35565b60405180910390fd5b60018160040160019054906101000a900460ff1660ff1614610595576040517f08c379a000000000000000000000000000000000000000000000000000000000815260040161058c90611bc3565b60405180910390fd5b5f60035f8481526020019081526020015f2090505f5f90505b8180549050811015610754575f8282815481106105ce576105cd611a88565b5b905f5260205f2090600302015f015f9054906101000a900473ffffffffffffffffffffffffffffffffffffffff1673ffffffffffffffffffffffffffffffffffffffff1683838154811061062557610624611a88565b5b905f5260205f2090600302016001015460405161064190611c0e565b5f6040518083038185875af1925050503d805f811461067b576040519150601f19603f3d011682016040523d82523d5f602084013e610680565b606091505b505090508083838154811061069857610697611a88565b5b905f5260205f2090600302015f015f9054906101000a900473ffffffffffffffffffffffffffffffffffffffff166040516020016106d69190611c67565b6040516020818303038152906040526040516020016106f59190611d1f565b60405160208183030381529060405290610745576040517f08c379a000000000000000000000000000000000000000000000000000000000815260040161073c9190611d9b565b60405180910390fd5b505080806001019150506105ae565b5060038260040160016101000a81548160ff021916908360ff160217905550505050565b5f6002828154811061078d5761078c611a88565b5b905f5260205f209060060201905060028160040160019054906101000a900460ff1660ff16146107f2576040517f08c379a00000000000000000000000000000000000000000000000000000000081526004016107e990611e51565b60405180910390fd5b3373ffffffffffffffffffffffffffffffffffffffff168160040160029054906101000a900473ffffffffffffffffffffffffffffffffffffffff1673ffffffffffffffffffffffffffffffffffffffff1614610884576040517f08c379a000000000000000000000000000000000000000000000000000000000815260040161087b90611edf565b60405180910390fd5b5050565b5f602052805f5260405f205f915054906101000a900460ff1681565b5f5f600283815481106108ba576108b9611a88565b5b905f5260205f209060060201905050919050565b6003602052815f5260405f2081815481106108e7575f80fd5b905f5260205f2090600302015f9150915050805f015f9054906101000a900473ffffffffffffffffffffffffffffffffffffffff16908060010154908060020154905083565b5f6002828154811061094257610941611a88565b5b905f5260205f209060060201905060018160040160019054906101000a900460ff1660ff16146109a7576040517f08c379a000000000000000000000000000000000000000000000000000000000815260040161099e90611f6d565b60405180910390fd5b3373ffffffffffffffffffffffffffffffffffffffff168160040160029054906101000a900473ffffffffffffffffffffffffffffffffffffffff1673ffffffffffffffffffffffffffffffffffffffff1603610a39576040517f08c379a0000000000000000000000000000000000000000000000000000000008152600401610a3090611ffb565b60405180910390fd5b5f3411610a7b576040517f08c379a0000000000000000000000000000000000000000000000000000000008152600401610a7290612063565b60405180910390fd5b8060050154815f0154610a8e91906120ae565b341115610ad0576040517f08c379a0000000000000000000000000000000000000000000000000000000008152600401610ac790612151565b60405180910390fd5b60035f8381526020019081526020015f2060405180606001604052803373ffffffffffffffffffffffffffffffffffffffff16815260200134815260200142815250908060018154018082558091505060019003905f5260205f2090600302015f909190919091505f820151815f015f6101000a81548173ffffffffffffffffffffffffffffffffffffffff021916908373ffffffffffffffffffffffffffffffffffffffff1602179055506020820151816001015560408201518160020155505034816005015f828254610ba5919061216f565b9250508190555060075f3373ffffffffffffffffffffffffffffffffffffffff1673ffffffffffffffffffffffffffffffffffffffff1681526020019081526020015f2082908060018154018082558091505060019003905f5260205f20015f90919091909150555050565b5f8511610c53576040517f08c379a0000000000000000000000000000000000000000000000000000000008152600401610c4a906121ec565b60405180910390fd5b5f8360ff1611610c98576040517f08c379a0000000000000000000000000000000000000000000000000000000008152600401610c8f90612254565b60405180910390fd5b6201518042610ca7919061216f565b8211610ce8576040517f08c379a0000000000000000000000000000000000000000000000000000000008152600401610cdf906122e2565b60405180910390fd5b60018160ff1614610d2e576040517f08c379a0000000000000000000000000000000000000000000000000000000008152600401610d259061234a565b60405180910390fd5b60026040518061010001604052808781526020018681526020018560ff1681526020018481526020018360ff168152602001600160ff1681526020013373ffffffffffffffffffffffffffffffffffffffff1681526020015f815250908060018154018082558091505060019003905f5260205f2090600602015f909190919091505f820151815f0155602082015181600101556040820151816002015f6101000a81548160ff021916908360ff160217905550606082015181600301556080820151816004015f6101000a81548160ff021916908360ff16021790555060a08201518160040160016101000a81548160ff021916908360ff16021790555060c08201518160040160026101000a81548173ffffffffffffffffffffffffffffffffffffffff021916908373ffffffffffffffffffffffffffffffffffffffff16021790555060e0820151816005015550505f6001600280549050610e9391906120ae565b90505f610e9f8761116f565b90505f610ebf610eae8861116f565b610eba620f424061116f565b611190565b90505f610ed582610ed0600c611215565b611190565b90505f610eeb610ee56001611215565b83611262565b90505f610efb828a60ff166112c7565b90505f610f0886856115cc565b90505f610f1582846115cc565b90505f610f2b84610f266001611215565b611635565b90505f610f388383611190565b90505f610f448261169a565b67ffffffffffffffff1690505f60045f8d81526020019081526020015f2090505f600190505b8f60ff16811161100757816040518060a001604052808581526020015f81526020015f81526020015f81526020015f815250908060018154018082558091505060019003905f5260205f2090600502015f909190919091505f820151815f01556020820151816001015560408201518160020155606082015181600301556080820151816004015550508080610fff90612368565b915050610f6a565b5060065f3373ffffffffffffffffffffffffffffffffffffffff1673ffffffffffffffffffffffffffffffffffffffff1681526020019081526020015f208c908060018154018082558091505060019003905f5260205f20015f90919091909150555050505050505050505050505050505050565b6007602052815f5260405f208181548110611095575f80fd5b905f5260205f20015f91509150505481565b6006602052815f5260405f2081815481106110c0575f80fd5b905f5260205f20015f91509150505481565b6004602052815f5260405f2081815481106110eb575f80fd5b905f5260205f2090600502015f9150915050805f0154908060010154908060020154908060030154908060040154905085565b6001602052805f5260405f205f915090505481565b5f5f61113f600a611215565b90505f61114c6003611215565b90505f6111598383611190565b9050611164816116b9565b60070b935050505090565b5f677fffffffffffffff821115611184575f5ffd5b604082901b9050919050565b5f5f82600f0b0361119f575f5ffd5b5f82600f0b604085600f0b901b816111ba576111b96123af565b5b0590507fffffffffffffffffffffffffffffffff80000000000000000000000000000000600f0b811215801561120357506f7fffffffffffffffffffffffffffffff600f0b8113155b61120b575f5ffd5b8091505092915050565b5f7fffffffffffffffffffffffffffffffffffffffffffffffff8000000000000000821215801561124e5750677fffffffffffffff8213155b611256575f5ffd5b604082901b9050919050565b5f5f82600f0b84600f0b0190507fffffffffffffffffffffffffffffffff80000000000000000000000000000000600f0b81121580156112b557506f7fffffffffffffffffffffffffffffff600f0b8113155b6112bd575f5ffd5b8091505092915050565b5f5f5f84600f0b1280156112dd57506001808416145b90505f5f85600f0b126112f057846112f4565b845f035b6fffffffffffffffffffffffffffffffff1690505f70010000000000000000000000000000000090506801000000000000000082116113c857603f82901b91505b5f85146113bc575f600186161461135057607f828202901c90505b607f828302901c91505f600286161461136d57607f828202901c90505b607f828302901c91505f600486161461138a57607f828202901c90505b607f828302901c91505f60088616146113a757607f828202901c90505b607f828302901c9150600485901c9450611335565b604081901c905061155f565b5f603f90506c010000000000000000000000008310156113f057602083901b92506020810390505b6e01000000000000000000000000000083101561141557601083901b92506010810390505b6f0100000000000000000000000000000083101561143b57600883901b92506008810390505b6f1000000000000000000000000000000083101561146157600483901b92506004810390505b6f4000000000000000000000000000000083101561148757600283901b92506002810390505b6f800000000000000000000000000000008310156114ad57600183901b92506001810390505b5f5f90505b5f871461154757604082106114c5575f5ffd5b5f600188161461150557607f848402901c9250818101905070010000000000000000000000000000000083111561150457600183901c92506001810190505b5b607f848502901c9350600182901b9150700100000000000000000000000000000000841061153b57600184901c93506001820191505b600187901c96506114b2565b60408110611553575f5ffd5b8060400383901c925050505b5f8361156b578161156f565b815f035b90507fffffffffffffffffffffffffffffffff80000000000000000000000000000000600f0b81121580156115b757506f7fffffffffffffffffffffffffffffff600f0b8113155b6115bf575f5ffd5b8094505050505092915050565b5f5f604083600f0b85600f0b02901d90507fffffffffffffffffffffffffffffffff80000000000000000000000000000000600f0b811215801561162357506f7fffffffffffffffffffffffffffffff600f0b8113155b61162b575f5ffd5b8091505092915050565b5f5f82600f0b84600f0b0390507fffffffffffffffffffffffffffffffff80000000000000000000000000000000600f0b811215801561168857506f7fffffffffffffffffffffffffffffff600f0b8113155b611690575f5ffd5b8091505092915050565b5f5f82600f0b12156116aa575f5ffd5b604082600f0b901d9050919050565b5f604082600f0b901d9050919050565b5f5ffd5b5f819050919050565b6116df816116cd565b81146116e9575f5ffd5b50565b5f813590506116fa816116d6565b92915050565b5f60208284031215611715576117146116c9565b5b5f611722848285016116ec565b91505092915050565b611734816116cd565b82525050565b5f60ff82169050919050565b61174f8161173a565b82525050565b5f73ffffffffffffffffffffffffffffffffffffffff82169050919050565b5f61177e82611755565b9050919050565b61178e81611774565b82525050565b5f610100820190506117a85f83018b61172b565b6117b5602083018a61172b565b6117c26040830189611746565b6117cf606083018861172b565b6117dc6080830187611746565b6117e960a0830186611746565b6117f660c0830185611785565b61180360e083018461172b565b9998505050505050505050565b5f5f60408385031215611826576118256116c9565b5b5f611833858286016116ec565b9250506020611844858286016116ec565b9150509250929050565b5f6020820190506118615f83018461172b565b92915050565b61187081611774565b811461187a575f5ffd5b50565b5f8135905061188b81611867565b92915050565b5f602082840312156118a6576118a56116c9565b5b5f6118b38482850161187d565b91505092915050565b5f8115159050919050565b6118d0816118bc565b82525050565b5f6020820190506118e95f8301846118c7565b92915050565b5f6060820190506119025f830186611785565b61190f602083018561172b565b61191c604083018461172b565b949350505050565b61192d8161173a565b8114611937575f5ffd5b50565b5f8135905061194881611924565b92915050565b5f5f5f5f5f60a08688031215611967576119666116c9565b5b5f611974888289016116ec565b9550506020611985888289016116ec565b94505060406119968882890161193a565b93505060606119a7888289016116ec565b92505060806119b88882890161193a565b9150509295509295909350565b5f5f604083850312156119db576119da6116c9565b5b5f6119e88582860161187d565b92505060206119f9858286016116ec565b9150509250929050565b5f60a082019050611a165f83018861172b565b611a23602083018761172b565b611a30604083018661172b565b611a3d606083018561172b565b611a4a608083018461172b565b9695505050505050565b5f81600f0b9050919050565b611a6981611a54565b82525050565b5f602082019050611a825f830184611a60565b92915050565b7f4e487b71000000000000000000000000000000000000000000000000000000005f52603260045260245ffd5b5f82825260208201905092915050565b7f4f6e6c79207468652070726f6a65637420696e69746961746f722063616e20635f8201527f616e63656c207468652070726f6a656374000000000000000000000000000000602082015250565b5f611b1f603183611ab5565b9150611b2a82611ac5565b604082019050919050565b5f6020820190508181035f830152611b4c81611b13565b9050919050565b7f4f6e6c792070726f6a6563747320647572696e67207468652066756e64696e675f8201527f20706572696f642063616e2062652063616e63656c6c65640000000000000000602082015250565b5f611bad603883611ab5565b9150611bb882611b53565b604082019050919050565b5f6020820190508181035f830152611bda81611ba1565b9050919050565b5f81905092915050565b50565b5f611bf95f83611be1565b9150611c0482611beb565b5f82019050919050565b5f611c1882611bee565b9150819050919050565b5f8160601b9050919050565b5f611c3882611c22565b9050919050565b5f611c4982611c2e565b9050919050565b611c61611c5c82611774565b611c3f565b82525050565b5f611c728284611c50565b60148201915081905092915050565b7f7472616e7366657220746f200000000000000000000000000000000000000000815250565b5f81519050919050565b5f81905092915050565b8281835e5f83830152505050565b5f611cd382611ca7565b611cdd8185611cb1565b9350611ced818560208601611cbb565b80840191505092915050565b7f206661696c202100000000000000000000000000000000000000000000000000815250565b5f611d2982611c81565b600c82019150611d398284611cc9565b9150611d4482611cf9565b60078201915081905092915050565b5f601f19601f8301169050919050565b5f611d6d82611ca7565b611d778185611ab5565b9350611d87818560208601611cbb565b611d9081611d53565b840191505092915050565b5f6020820190508181035f830152611db38184611d63565b905092915050565b7f4f6e6c792070726f6a656374732074686174206861766520656e7465726564205f8201527f7468652072657061796d656e7420706572696f642063616e206265207265706160208201527f69642e0000000000000000000000000000000000000000000000000000000000604082015250565b5f611e3b604383611ab5565b9150611e4682611dbb565b606082019050919050565b5f6020820190508181035f830152611e6881611e2f565b9050919050565b7f4f6e6c79207468652070726f6a65637420696e69746961746f722063616e20725f8201527f6570617920746865206c6f616e00000000000000000000000000000000000000602082015250565b5f611ec9602d83611ab5565b9150611ed482611e6f565b604082019050919050565b5f6020820190508181035f830152611ef681611ebd565b9050919050565b7f4f6e6c792070726f6a6563747320696e207468652066756e64696e67207068615f8201527f73652063616e20726563656976652066756e64696e6700000000000000000000602082015250565b5f611f57603683611ab5565b9150611f6282611efd565b604082019050919050565b5f6020820190508181035f830152611f8481611f4b565b9050919050565b7f50726f6a656374206c61756e6368657220617265206e6f7420616c6c6f7765645f8201527f20746f20636f6e74726962757465206361706974616c00000000000000000000602082015250565b5f611fe5603683611ab5565b9150611ff082611f8b565b604082019050919050565b5f6020820190508181035f83015261201281611fd9565b9050919050565b7f416d6f756e74206d75737420626967676572207468616e2030000000000000005f82015250565b5f61204d601983611ab5565b915061205882612019565b602082019050919050565b5f6020820190508181035f83015261207a81612041565b9050919050565b7f4e487b71000000000000000000000000000000000000000000000000000000005f52601160045260245ffd5b5f6120b8826116cd565b91506120c3836116cd565b92508282039050818111156120db576120da612081565b5b92915050565b7f54686520616d6f756e74206f662066756e647320636f6e7472696275746564205f8201527f65786365656473207468652070726f6a65637420726571756972656d656e7473602082015250565b5f61213b604083611ab5565b9150612146826120e1565b604082019050919050565b5f6020820190508181035f8301526121688161212f565b9050919050565b5f612179826116cd565b9150612184836116cd565b925082820190508082111561219c5761219b612081565b5b92915050565b7f616d6f756e74206d75737420626967676572207468616e2030000000000000005f82015250565b5f6121d6601983611ab5565b91506121e1826121a2565b602082019050919050565b5f6020820190508181035f830152612203816121ca565b9050919050565b7f7465726d206d75737420626967676572207468616e20300000000000000000005f82015250565b5f61223e601783611ab5565b91506122498261220a565b602082019050919050565b5f6020820190508181035f83015261226b81612232565b9050919050565b7f636f6c6c65637420656e642074696d65206d75737420626520677265617465725f8201527f207468616e20323420686f757273000000000000000000000000000000000000602082015250565b5f6122cc602e83611ab5565b91506122d782612272565b604082019050919050565b5f6020820190508181035f8301526122f9816122c0565b9050919050565b7f7265706179206d6574686f64206d7573742062652031000000000000000000005f82015250565b5f612334601683611ab5565b915061233f82612300565b602082019050919050565b5f6020820190508181035f83015261236181612328565b9050919050565b5f612372826116cd565b91507fffffffffffffffffffffffffffffffffffffffffffffffffffffffffffffffff82036123a4576123a3612081565b5b600182019050919050565b7f4e487b71000000000000000000000000000000000000000000000000000000005f52601260045260245ffdfea264697066735822122094fabbf4115e4bb0f90adc3e199994f57040704ced9594812de97acf9de95ff464736f6c634300081b0033",
			"opcodes": "PUSH1 0x80 PUSH1 0x40 MSTORE CALLVALUE DUP1 ISZERO PUSH1 0xE JUMPI PUSH0 PUSH0 REVERT JUMPDEST POP PUSH2 0x2412 DUP1 PUSH2 0x1C PUSH0 CODECOPY PUSH0 RETURN INVALID PUSH1 0x80 PUSH1 0x40 MSTORE PUSH1 0x4 CALLDATASIZE LT PUSH2 0xE0 JUMPI PUSH0 CALLDATALOAD PUSH1 0xE0 SHR DUP1 PUSH4 0xC1CBBCA7 GT PUSH2 0x7E JUMPI DUP1 PUSH4 0xDBBC7A84 GT PUSH2 0x58 JUMPI DUP1 PUSH4 0xDBBC7A84 EQ PUSH2 0x2E4 JUMPI DUP1 PUSH4 0xF0962151 EQ PUSH2 0x320 JUMPI DUP1 PUSH4 0xF7E590EE EQ PUSH2 0x360 JUMPI DUP1 PUSH4 0xF8A8FD6D EQ PUSH2 0x39C JUMPI PUSH2 0xE7 JUMP JUMPDEST DUP1 PUSH4 0xC1CBBCA7 EQ PUSH2 0x264 JUMPI DUP1 PUSH4 0xCDE128DB EQ PUSH2 0x280 JUMPI DUP1 PUSH4 0xCEA3EC15 EQ PUSH2 0x2A8 JUMPI PUSH2 0xE7 JUMP JUMPDEST DUP1 PUSH4 0x371FD8E6 GT PUSH2 0xBA JUMPI DUP1 PUSH4 0x371FD8E6 EQ PUSH2 0x192 JUMPI DUP1 PUSH4 0xA87430BA EQ PUSH2 0x1AE JUMPI DUP1 PUSH4 0xADD85F7D EQ PUSH2 0x1EA JUMPI DUP1 PUSH4 0xB12D02FC EQ PUSH2 0x226 JUMPI PUSH2 0xE7 JUMP JUMPDEST DUP1 PUSH4 0x107046BD EQ PUSH2 0xEB JUMPI DUP1 PUSH4 0x259BA3EB EQ PUSH2 0x12E JUMPI DUP1 PUSH4 0x300B949F EQ PUSH2 0x16A JUMPI PUSH2 0xE7 JUMP JUMPDEST CALLDATASIZE PUSH2 0xE7 JUMPI STOP JUMPDEST PUSH0 PUSH0 REVERT JUMPDEST CALLVALUE DUP1 ISZERO PUSH2 0xF6 JUMPI PUSH0 PUSH0 REVERT JUMPDEST POP PUSH2 0x111 PUSH1 0x4 DUP1 CALLDATASIZE SUB DUP2 ADD SWAP1 PUSH2 0x10C SWAP2 SWAP1 PUSH2 0x1700 JUMP JUMPDEST PUSH2 0x3C6 JUMP JUMPDEST PUSH1 0x40 MLOAD PUSH2 0x125 SWAP9 SWAP8 SWAP7 SWAP6 SWAP5 SWAP4 SWAP3 SWAP2 SWAP1 PUSH2 0x1794 JUMP JUMPDEST PUSH1 0x40 MLOAD DUP1 SWAP2 SUB SWAP1 RETURN JUMPDEST CALLVALUE DUP1 ISZERO PUSH2 0x139 JUMPI PUSH0 PUSH0 REVERT JUMPDEST POP PUSH2 0x154 PUSH1 0x4 DUP1 CALLDATASIZE SUB DUP2 ADD SWAP1 PUSH2 0x14F SWAP2 SWAP1 PUSH2 0x1810 JUMP JUMPDEST PUSH2 0x45E JUMP JUMPDEST PUSH1 0x40 MLOAD PUSH2 0x161 SWAP2 SWAP1 PUSH2 0x184E JUMP JUMPDEST PUSH1 0x40 MLOAD DUP1 SWAP2 SUB SWAP1 RETURN JUMPDEST CALLVALUE DUP1 ISZERO PUSH2 0x175 JUMPI PUSH0 PUSH0 REVERT JUMPDEST POP PUSH2 0x190 PUSH1 0x4 DUP1 CALLDATASIZE SUB DUP2 ADD SWAP1 PUSH2 0x18B SWAP2 SWAP1 PUSH2 0x1700 JUMP JUMPDEST PUSH2 0x489 JUMP JUMPDEST STOP JUMPDEST PUSH2 0x1AC PUSH1 0x4 DUP1 CALLDATASIZE SUB DUP2 ADD SWAP1 PUSH2 0x1A7 SWAP2 SWAP1 PUSH2 0x1700 JUMP JUMPDEST PUSH2 0x778 JUMP JUMPDEST STOP JUMPDEST CALLVALUE DUP1 ISZERO PUSH2 0x1B9 JUMPI PUSH0 PUSH0 REVERT JUMPDEST POP PUSH2 0x1D4 PUSH1 0x4 DUP1 CALLDATASIZE SUB DUP2 ADD SWAP1 PUSH2 0x1CF SWAP2 SWAP1 PUSH2 0x1891 JUMP JUMPDEST PUSH2 0x888 JUMP JUMPDEST PUSH1 0x40 MLOAD PUSH2 0x1E1 SWAP2 SWAP1 PUSH2 0x18D6 JUMP JUMPDEST PUSH1 0x40 MLOAD DUP1 SWAP2 SUB SWAP1 RETURN JUMPDEST CALLVALUE DUP1 ISZERO PUSH2 0x1F5 JUMPI PUSH0 PUSH0 REVERT JUMPDEST POP PUSH2 0x210 PUSH1 0x4 DUP1 CALLDATASIZE SUB DUP2 ADD SWAP1 PUSH2 0x20B SWAP2 SWAP1 PUSH2 0x1700 JUMP JUMPDEST PUSH2 0x8A4 JUMP JUMPDEST PUSH1 0x40 MLOAD PUSH2 0x21D SWAP2 SWAP1 PUSH2 0x184E JUMP JUMPDEST PUSH1 0x40 MLOAD DUP1 SWAP2 SUB SWAP1 RETURN JUMPDEST CALLVALUE DUP1 ISZERO PUSH2 0x231 JUMPI PUSH0 PUSH0 REVERT JUMPDEST POP PUSH2 0x24C PUSH1 0x4 DUP1 CALLDATASIZE SUB DUP2 ADD SWAP1 PUSH2 0x247 SWAP2 SWAP1 PUSH2 0x1810 JUMP JUMPDEST PUSH2 0x8CE JUMP JUMPDEST PUSH1 0x40 MLOAD PUSH2 0x25B SWAP4 SWAP3 SWAP2 SWAP1 PUSH2 0x18EF JUMP JUMPDEST PUSH1 0x40 MLOAD DUP1 SWAP2 SUB SWAP1 RETURN JUMPDEST PUSH2 0x27E PUSH1 0x4 DUP1 CALLDATASIZE SUB DUP2 ADD SWAP1 PUSH2 0x279 SWAP2 SWAP1 PUSH2 0x1700 JUMP JUMPDEST PUSH2 0x92D JUMP JUMPDEST STOP JUMPDEST CALLVALUE DUP1 ISZERO PUSH2 0x28B JUMPI PUSH0 PUSH0 REVERT JUMPDEST POP PUSH2 0x2A6 PUSH1 0x4 DUP1 CALLDATASIZE SUB DUP2 ADD SWAP1 PUSH2 0x2A1 SWAP2 SWAP1 PUSH2 0x194E JUMP JUMPDEST PUSH2 0xC11 JUMP JUMPDEST STOP JUMPDEST CALLVALUE DUP1 ISZERO PUSH2 0x2B3 JUMPI PUSH0 PUSH0 REVERT JUMPDEST POP PUSH2 0x2CE PUSH1 0x4 DUP1 CALLDATASIZE SUB DUP2 ADD SWAP1 PUSH2 0x2C9 SWAP2 SWAP1 PUSH2 0x19C5 JUMP JUMPDEST PUSH2 0x107C JUMP JUMPDEST PUSH1 0x40 MLOAD PUSH2 0x2DB SWAP2 SWAP1 PUSH2 0x184E JUMP JUMPDEST PUSH1 0x40 MLOAD DUP1 SWAP2 SUB SWAP1 RETURN JUMPDEST CALLVALUE DUP1 ISZERO PUSH2 0x2EF JUMPI PUSH0 PUSH0 REVERT JUMPDEST POP PUSH2 0x30A PUSH1 0x4 DUP1 CALLDATASIZE SUB DUP2 ADD SWAP1 PUSH2 0x305 SWAP2 SWAP1 PUSH2 0x19C5 JUMP JUMPDEST PUSH2 0x10A7 JUMP JUMPDEST PUSH1 0x40 MLOAD PUSH2 0x317 SWAP2 SWAP1 PUSH2 0x184E JUMP JUMPDEST PUSH1 0x40 MLOAD DUP1 SWAP2 SUB SWAP1 RETURN JUMPDEST CALLVALUE DUP1 ISZERO PUSH2 0x32B JUMPI PUSH0 PUSH0 REVERT JUMPDEST POP PUSH2 0x346 PUSH1 0x4 DUP1 CALLDATASIZE SUB DUP2 ADD SWAP1 PUSH2 0x341 SWAP2 SWAP1 PUSH2 0x1810 JUMP JUMPDEST PUSH2 0x10D2 JUMP JUMPDEST PUSH1 0x40 MLOAD PUSH2 0x357 SWAP6 SWAP5 SWAP4 SWAP3 SWAP2 SWAP1 PUSH2 0x1A03 JUMP JUMPDEST PUSH1 0x40 MLOAD DUP1 SWAP2 SUB SWAP1 RETURN JUMPDEST CALLVALUE DUP1 ISZERO PUSH2 0x36B JUMPI PUSH0 PUSH0 REVERT JUMPDEST POP PUSH2 0x386 PUSH1 0x4 DUP1 CALLDATASIZE SUB DUP2 ADD SWAP1 PUSH2 0x381 SWAP2 SWAP1 PUSH2 0x1891 JUMP JUMPDEST PUSH2 0x111E JUMP JUMPDEST PUSH1 0x40 MLOAD PUSH2 0x393 SWAP2 SWAP1 PUSH2 0x184E JUMP JUMPDEST PUSH1 0x40 MLOAD DUP1 SWAP2 SUB SWAP1 RETURN JUMPDEST CALLVALUE DUP1 ISZERO PUSH2 0x3A7 JUMPI PUSH0 PUSH0 REVERT JUMPDEST POP PUSH2 0x3B0 PUSH2 0x1133 JUMP JUMPDEST PUSH1 0x40 MLOAD PUSH2 0x3BD SWAP2 SWAP1 PUSH2 0x1A6F JUMP JUMPDEST PUSH1 0x40 MLOAD DUP1 SWAP2 SUB SWAP1 RETURN JUMPDEST PUSH1 0x2 DUP2 DUP2 SLOAD DUP2 LT PUSH2 0x3D5 JUMPI PUSH0 DUP1 REVERT JUMPDEST SWAP1 PUSH0 MSTORE PUSH1 0x20 PUSH0 KECCAK256 SWAP1 PUSH1 0x6 MUL ADD PUSH0 SWAP2 POP SWAP1 POP DUP1 PUSH0 ADD SLOAD SWAP1 DUP1 PUSH1 0x1 ADD SLOAD SWAP1 DUP1 PUSH1 0x2 ADD PUSH0 SWAP1 SLOAD SWAP1 PUSH2 0x100 EXP SWAP1 DIV PUSH1 0xFF AND SWAP1 DUP1 PUSH1 0x3 ADD SLOAD SWAP1 DUP1 PUSH1 0x4 ADD PUSH0 SWAP1 SLOAD SWAP1 PUSH2 0x100 EXP SWAP1 DIV PUSH1 0xFF AND SWAP1 DUP1 PUSH1 0x4 ADD PUSH1 0x1 SWAP1 SLOAD SWAP1 PUSH2 0x100 EXP SWAP1 DIV PUSH1 0xFF AND SWAP1 DUP1 PUSH1 0x4 ADD PUSH1 0x2 SWAP1 SLOAD SWAP1 PUSH2 0x100 EXP SWAP1 DIV PUSH20 0xFFFFFFFFFFFFFFFFFFFFFFFFFFFFFFFFFFFFFFFF AND SWAP1 DUP1 PUSH1 0x5 ADD SLOAD SWAP1 POP DUP9 JUMP JUMPDEST PUSH1 0x5 PUSH1 0x20 MSTORE DUP2 PUSH0 MSTORE PUSH1 0x40 PUSH0 KECCAK256 DUP2 DUP2 SLOAD DUP2 LT PUSH2 0x477 JUMPI PUSH0 DUP1 REVERT JUMPDEST SWAP1 PUSH0 MSTORE PUSH1 0x20 PUSH0 KECCAK256 ADD PUSH0 SWAP2 POP SWAP2 POP POP SLOAD DUP2 JUMP JUMPDEST PUSH0 PUSH1 0x2 DUP3 DUP2 SLOAD DUP2 LT PUSH2 0x49E JUMPI PUSH2 0x49D PUSH2 0x1A88 JUMP JUMPDEST JUMPDEST SWAP1 PUSH0 MSTORE PUSH1 0x20 PUSH0 KECCAK256 SWAP1 PUSH1 0x6 MUL ADD SWAP1 POP CALLER PUSH20 0xFFFFFFFFFFFFFFFFFFFFFFFFFFFFFFFFFFFFFFFF AND DUP2 PUSH1 0x4 ADD PUSH1 0x2 SWAP1 SLOAD SWAP1 PUSH2 0x100 EXP SWAP1 DIV PUSH20 0xFFFFFFFFFFFFFFFFFFFFFFFFFFFFFFFFFFFFFFFF AND PUSH20 0xFFFFFFFFFFFFFFFFFFFFFFFFFFFFFFFFFFFFFFFF AND EQ PUSH2 0x53E JUMPI PUSH1 0x40 MLOAD PUSH32 0x8C379A000000000000000000000000000000000000000000000000000000000 DUP2 MSTORE PUSH1 0x4 ADD PUSH2 0x535 SWAP1 PUSH2 0x1B35 JUMP JUMPDEST PUSH1 0x40 MLOAD DUP1 SWAP2 SUB SWAP1 REVERT JUMPDEST PUSH1 0x1 DUP2 PUSH1 0x4 ADD PUSH1 0x1 SWAP1 SLOAD SWAP1 PUSH2 0x100 EXP SWAP1 DIV PUSH1 0xFF AND PUSH1 0xFF AND EQ PUSH2 0x595 JUMPI PUSH1 0x40 MLOAD PUSH32 0x8C379A000000000000000000000000000000000000000000000000000000000 DUP2 MSTORE PUSH1 0x4 ADD PUSH2 0x58C SWAP1 PUSH2 0x1BC3 JUMP JUMPDEST PUSH1 0x40 MLOAD DUP1 SWAP2 SUB SWAP1 REVERT JUMPDEST PUSH0 PUSH1 0x3 PUSH0 DUP5 DUP2 MSTORE PUSH1 0x20 ADD SWAP1 DUP2 MSTORE PUSH1 0x20 ADD PUSH0 KECCAK256 SWAP1 POP PUSH0 PUSH0 SWAP1 POP JUMPDEST DUP2 DUP1 SLOAD SWAP1 POP DUP2 LT ISZERO PUSH2 0x754 JUMPI PUSH0 DUP3 DUP3 DUP2 SLOAD DUP2 LT PUSH2 0x5CE JUMPI PUSH2 0x5CD PUSH2 0x1A88 JUMP JUMPDEST JUMPDEST SWAP1 PUSH0 MSTORE PUSH1 0x20 PUSH0 KECCAK256 SWAP1 PUSH1 0x3 MUL ADD PUSH0 ADD PUSH0 SWAP1 SLOAD SWAP1 PUSH2 0x100 EXP SWAP1 DIV PUSH20 0xFFFFFFFFFFFFFFFFFFFFFFFFFFFFFFFFFFFFFFFF AND PUSH20 0xFFFFFFFFFFFFFFFFFFFFFFFFFFFFFFFFFFFFFFFF AND DUP4 DUP4 DUP2 SLOAD DUP2 LT PUSH2 0x625 JUMPI PUSH2 0x624 PUSH2 0x1A88 JUMP JUMPDEST JUMPDEST SWAP1 PUSH0 MSTORE PUSH1 0x20 PUSH0 KECCAK256 SWAP1 PUSH1 0x3 MUL ADD PUSH1 0x1 ADD SLOAD PUSH1 0x40 MLOAD PUSH2 0x641 SWAP1 PUSH2 0x1C0E JUMP JUMPDEST PUSH0 PUSH1 0x40 MLOAD DUP1 DUP4 SUB DUP2 DUP6 DUP8 GAS CALL SWAP3 POP POP POP RETURNDATASIZE DUP1 PUSH0 DUP2 EQ PUSH2 0x67B JUMPI PUSH1 0x40 MLOAD SWAP2 POP PUSH1 0x1F NOT PUSH1 0x3F RETURNDATASIZE ADD AND DUP3 ADD PUSH1 0x40 MSTORE RETURNDATASIZE DUP3 MSTORE RETURNDATASIZE PUSH0 PUSH1 0x20 DUP5 ADD RETURNDATACOPY PUSH2 0x680 JUMP JUMPDEST PUSH1 0x60 SWAP2 POP JUMPDEST POP POP SWAP1 POP DUP1 DUP4 DUP4 DUP2 SLOAD DUP2 LT PUSH2 0x698 JUMPI PUSH2 0x697 PUSH2 0x1A88 JUMP JUMPDEST JUMPDEST SWAP1 PUSH0 MSTORE PUSH1 0x20 PUSH0 KECCAK256 SWAP1 PUSH1 0x3 MUL ADD PUSH0 ADD PUSH0 SWAP1 SLOAD SWAP1 PUSH2 0x100 EXP SWAP1 DIV PUSH20 0xFFFFFFFFFFFFFFFFFFFFFFFFFFFFFFFFFFFFFFFF AND PUSH1 0x40 MLOAD PUSH1 0x20 ADD PUSH2 0x6D6 SWAP2 SWAP1 PUSH2 0x1C67 JUMP JUMPDEST PUSH1 0x40 MLOAD PUSH1 0x20 DUP2 DUP4 SUB SUB DUP2 MSTORE SWAP1 PUSH1 0x40 MSTORE PUSH1 0x40 MLOAD PUSH1 0x20 ADD PUSH2 0x6F5 SWAP2 SWAP1 PUSH2 0x1D1F JUMP JUMPDEST PUSH1 0x40 MLOAD PUSH1 0x20 DUP2 DUP4 SUB SUB DUP2 MSTORE SWAP1 PUSH1 0x40 MSTORE SWAP1 PUSH2 0x745 JUMPI PUSH1 0x40 MLOAD PUSH32 0x8C379A000000000000000000000000000000000000000000000000000000000 DUP2 MSTORE PUSH1 0x4 ADD PUSH2 0x73C SWAP2 SWAP1 PUSH2 0x1D9B JUMP JUMPDEST PUSH1 0x40 MLOAD DUP1 SWAP2 SUB SWAP1 REVERT JUMPDEST POP POP DUP1 DUP1 PUSH1 0x1 ADD SWAP2 POP POP PUSH2 0x5AE JUMP JUMPDEST POP PUSH1 0x3 DUP3 PUSH1 0x4 ADD PUSH1 0x1 PUSH2 0x100 EXP DUP2 SLOAD DUP2 PUSH1 0xFF MUL NOT AND SWAP1 DUP4 PUSH1 0xFF AND MUL OR SWAP1 SSTORE POP POP POP POP JUMP JUMPDEST PUSH0 PUSH1 0x2 DUP3 DUP2 SLOAD DUP2 LT PUSH2 0x78D JUMPI PUSH2 0x78C PUSH2 0x1A88 JUMP JUMPDEST JUMPDEST SWAP1 PUSH0 MSTORE PUSH1 0x20 PUSH0 KECCAK256 SWAP1 PUSH1 0x6 MUL ADD SWAP1 POP PUSH1 0x2 DUP2 PUSH1 0x4 ADD PUSH1 0x1 SWAP1 SLOAD SWAP1 PUSH2 0x100 EXP SWAP1 DIV PUSH1 0xFF AND PUSH1 0xFF AND EQ PUSH2 0x7F2 JUMPI PUSH1 0x40 MLOAD PUSH32 0x8C379A000000000000000000000000000000000000000000000000000000000 DUP2 MSTORE PUSH1 0x4 ADD PUSH2 0x7E9 SWAP1 PUSH2 0x1E51 JUMP JUMPDEST PUSH1 0x40 MLOAD DUP1 SWAP2 SUB SWAP1 REVERT JUMPDEST CALLER PUSH20 0xFFFFFFFFFFFFFFFFFFFFFFFFFFFFFFFFFFFFFFFF AND DUP2 PUSH1 0x4 ADD PUSH1 0x2 SWAP1 SLOAD SWAP1 PUSH2 0x100 EXP SWAP1 DIV PUSH20 0xFFFFFFFFFFFFFFFFFFFFFFFFFFFFFFFFFFFFFFFF AND PUSH20 0xFFFFFFFFFFFFFFFFFFFFFFFFFFFFFFFFFFFFFFFF AND EQ PUSH2 0x884 JUMPI PUSH1 0x40 MLOAD PUSH32 0x8C379A000000000000000000000000000000000000000000000000000000000 DUP2 MSTORE PUSH1 0x4 ADD PUSH2 0x87B SWAP1 PUSH2 0x1EDF JUMP JUMPDEST PUSH1 0x40 MLOAD DUP1 SWAP2 SUB SWAP1 REVERT JUMPDEST POP POP JUMP JUMPDEST PUSH0 PUSH1 0x20 MSTORE DUP1 PUSH0 MSTORE PUSH1 0x40 PUSH0 KECCAK256 PUSH0 SWAP2 POP SLOAD SWAP1 PUSH2 0x100 EXP SWAP1 DIV PUSH1 0xFF AND DUP2 JUMP JUMPDEST PUSH0 PUSH0 PUSH1 0x2 DUP4 DUP2 SLOAD DUP2 LT PUSH2 0x8BA JUMPI PUSH2 0x8B9 PUSH2 0x1A88 JUMP JUMPDEST JUMPDEST SWAP1 PUSH0 MSTORE PUSH1 0x20 PUSH0 KECCAK256 SWAP1 PUSH1 0x6 MUL ADD SWAP1 POP POP SWAP2 SWAP1 POP JUMP JUMPDEST PUSH1 0x3 PUSH1 0x20 MSTORE DUP2 PUSH0 MSTORE PUSH1 0x40 PUSH0 KECCAK256 DUP2 DUP2 SLOAD DUP2 LT PUSH2 0x8E7 JUMPI PUSH0 DUP1 REVERT JUMPDEST SWAP1 PUSH0 MSTORE PUSH1 0x20 PUSH0 KECCAK256 SWAP1 PUSH1 0x3 MUL ADD PUSH0 SWAP2 POP SWAP2 POP POP DUP1 PUSH0 ADD PUSH0 SWAP1 SLOAD SWAP1 PUSH2 0x100 EXP SWAP1 DIV PUSH20 0xFFFFFFFFFFFFFFFFFFFFFFFFFFFFFFFFFFFFFFFF AND SWAP1 DUP1 PUSH1 0x1 ADD SLOAD SWAP1 DUP1 PUSH1 0x2 ADD SLOAD SWAP1 POP DUP4 JUMP JUMPDEST PUSH0 PUSH1 0x2 DUP3 DUP2 SLOAD DUP2 LT PUSH2 0x942 JUMPI PUSH2 0x941 PUSH2 0x1A88 JUMP JUMPDEST JUMPDEST SWAP1 PUSH0 MSTORE PUSH1 0x20 PUSH0 KECCAK256 SWAP1 PUSH1 0x6 MUL ADD SWAP1 POP PUSH1 0x1 DUP2 PUSH1 0x4 ADD PUSH1 0x1 SWAP1 SLOAD SWAP1 PUSH2 0x100 EXP SWAP1 DIV PUSH1 0xFF AND PUSH1 0xFF AND EQ PUSH2 0x9A7 JUMPI PUSH1 0x40 MLOAD PUSH32 0x8C379A000000000000000000000000000000000000000000000000000000000 DUP2 MSTORE PUSH1 0x4 ADD PUSH2 0x99E SWAP1 PUSH2 0x1F6D JUMP JUMPDEST PUSH1 0x40 MLOAD DUP1 SWAP2 SUB SWAP1 REVERT JUMPDEST CALLER PUSH20 0xFFFFFFFFFFFFFFFFFFFFFFFFFFFFFFFFFFFFFFFF AND DUP2 PUSH1 0x4 ADD PUSH1 0x2 SWAP1 SLOAD SWAP1 PUSH2 0x100 EXP SWAP1 DIV PUSH20 0xFFFFFFFFFFFFFFFFFFFFFFFFFFFFFFFFFFFFFFFF AND PUSH20 0xFFFFFFFFFFFFFFFFFFFFFFFFFFFFFFFFFFFFFFFF AND SUB PUSH2 0xA39 JUMPI PUSH1 0x40 MLOAD PUSH32 0x8C379A000000000000000000000000000000000000000000000000000000000 DUP2 MSTORE PUSH1 0x4 ADD PUSH2 0xA30 SWAP1 PUSH2 0x1FFB JUMP JUMPDEST PUSH1 0x40 MLOAD DUP1 SWAP2 SUB SWAP1 REVERT JUMPDEST PUSH0 CALLVALUE GT PUSH2 0xA7B JUMPI PUSH1 0x40 MLOAD PUSH32 0x8C379A000000000000000000000000000000000000000000000000000000000 DUP2 MSTORE PUSH1 0x4 ADD PUSH2 0xA72 SWAP1 PUSH2 0x2063 JUMP JUMPDEST PUSH1 0x40 MLOAD DUP1 SWAP2 SUB SWAP1 REVERT JUMPDEST DUP1 PUSH1 0x5 ADD SLOAD DUP2 PUSH0 ADD SLOAD PUSH2 0xA8E SWAP2 SWAP1 PUSH2 0x20AE JUMP JUMPDEST CALLVALUE GT ISZERO PUSH2 0xAD0 JUMPI PUSH1 0x40 MLOAD PUSH32 0x8C379A000000000000000000000000000000000000000000000000000000000 DUP2 MSTORE PUSH1 0x4 ADD PUSH2 0xAC7 SWAP1 PUSH2 0x2151 JUMP JUMPDEST PUSH1 0x40 MLOAD DUP1 SWAP2 SUB SWAP1 REVERT JUMPDEST PUSH1 0x3 PUSH0 DUP4 DUP2 MSTORE PUSH1 0x20 ADD SWAP1 DUP2 MSTORE PUSH1 0x20 ADD PUSH0 KECCAK256 PUSH1 0x40 MLOAD DUP1 PUSH1 0x60 ADD PUSH1 0x40 MSTORE DUP1 CALLER PUSH20 0xFFFFFFFFFFFFFFFFFFFFFFFFFFFFFFFFFFFFFFFF AND DUP2 MSTORE PUSH1 0x20 ADD CALLVALUE DUP2 MSTORE PUSH1 0x20 ADD TIMESTAMP DUP2 MSTORE POP SWAP1 DUP1 PUSH1 0x1 DUP2 SLOAD ADD DUP1 DUP3 SSTORE DUP1 SWAP2 POP POP PUSH1 0x1 SWAP1 SUB SWAP1 PUSH0 MSTORE PUSH1 0x20 PUSH0 KECCAK256 SWAP1 PUSH1 0x3 MUL ADD PUSH0 SWAP1 SWAP2 SWAP1 SWAP2 SWAP1 SWAP2 POP PUSH0 DUP3 ADD MLOAD DUP2 PUSH0 ADD PUSH0 PUSH2 0x100 EXP DUP2 SLOAD DUP2 PUSH20 0xFFFFFFFFFFFFFFFFFFFFFFFFFFFFFFFFFFFFFFFF MUL NOT AND SWAP1 DUP4 PUSH20 0xFFFFFFFFFFFFFFFFFFFFFFFFFFFFFFFFFFFFFFFF AND MUL OR SWAP1 SSTORE POP PUSH1 0x20 DUP3 ADD MLOAD DUP2 PUSH1 0x1 ADD SSTORE PUSH1 0x40 DUP3 ADD MLOAD DUP2 PUSH1 0x2 ADD SSTORE POP POP CALLVALUE DUP2 PUSH1 0x5 ADD PUSH0 DUP3 DUP3 SLOAD PUSH2 0xBA5 SWAP2 SWAP1 PUSH2 0x216F JUMP JUMPDEST SWAP3 POP POP DUP2 SWAP1 SSTORE POP PUSH1 0x7 PUSH0 CALLER PUSH20 0xFFFFFFFFFFFFFFFFFFFFFFFFFFFFFFFFFFFFFFFF AND PUSH20 0xFFFFFFFFFFFFFFFFFFFFFFFFFFFFFFFFFFFFFFFF AND DUP2 MSTORE PUSH1 0x20 ADD SWAP1 DUP2 MSTORE PUSH1 0x20 ADD PUSH0 KECCAK256 DUP3 SWAP1 DUP1 PUSH1 0x1 DUP2 SLOAD ADD DUP1 DUP3 SSTORE DUP1 SWAP2 POP POP PUSH1 0x1 SWAP1 SUB SWAP1 PUSH0 MSTORE PUSH1 0x20 PUSH0 KECCAK256 ADD PUSH0 SWAP1 SWAP2 SWAP1 SWAP2 SWAP1 SWAP2 POP SSTORE POP POP JUMP JUMPDEST PUSH0 DUP6 GT PUSH2 0xC53 JUMPI PUSH1 0x40 MLOAD PUSH32 0x8C379A000000000000000000000000000000000000000000000000000000000 DUP2 MSTORE PUSH1 0x4 ADD PUSH2 0xC4A SWAP1 PUSH2 0x21EC JUMP JUMPDEST PUSH1 0x40 MLOAD DUP1 SWAP2 SUB SWAP1 REVERT JUMPDEST PUSH0 DUP4 PUSH1 0xFF AND GT PUSH2 0xC98 JUMPI PUSH1 0x40 MLOAD PUSH32 0x8C379A000000000000000000000000000000000000000000000000000000000 DUP2 MSTORE PUSH1 0x4 ADD PUSH2 0xC8F SWAP1 PUSH2 0x2254 JUMP JUMPDEST PUSH1 0x40 MLOAD DUP1 SWAP2 SUB SWAP1 REVERT JUMPDEST PUSH3 0x15180 TIMESTAMP PUSH2 0xCA7 SWAP2 SWAP1 PUSH2 0x216F JUMP JUMPDEST DUP3 GT PUSH2 0xCE8 JUMPI PUSH1 0x40 MLOAD PUSH32 0x8C379A000000000000000000000000000000000000000000000000000000000 DUP2 MSTORE PUSH1 0x4 ADD PUSH2 0xCDF SWAP1 PUSH2 0x22E2 JUMP JUMPDEST PUSH1 0x40 MLOAD DUP1 SWAP2 SUB SWAP1 REVERT JUMPDEST PUSH1 0x1 DUP2 PUSH1 0xFF AND EQ PUSH2 0xD2E JUMPI PUSH1 0x40 MLOAD PUSH32 0x8C379A000000000000000000000000000000000000000000000000000000000 DUP2 MSTORE PUSH1 0x4 ADD PUSH2 0xD25 SWAP1 PUSH2 0x234A JUMP JUMPDEST PUSH1 0x40 MLOAD DUP1 SWAP2 SUB SWAP1 REVERT JUMPDEST PUSH1 0x2 PUSH1 0x40 MLOAD DUP1 PUSH2 0x100 ADD PUSH1 0x40 MSTORE DUP1 DUP8 DUP2 MSTORE PUSH1 0x20 ADD DUP7 DUP2 MSTORE PUSH1 0x20 ADD DUP6 PUSH1 0xFF AND DUP2 MSTORE PUSH1 0x20 ADD DUP5 DUP2 MSTORE PUSH1 0x20 ADD DUP4 PUSH1 0xFF AND DUP2 MSTORE PUSH1 0x20 ADD PUSH1 0x1 PUSH1 0xFF AND DUP2 MSTORE PUSH1 0x20 ADD CALLER PUSH20 0xFFFFFFFFFFFFFFFFFFFFFFFFFFFFFFFFFFFFFFFF AND DUP2 MSTORE PUSH1 0x20 ADD PUSH0 DUP2 MSTORE POP SWAP1 DUP1 PUSH1 0x1 DUP2 SLOAD ADD DUP1 DUP3 SSTORE DUP1 SWAP2 POP POP PUSH1 0x1 SWAP1 SUB SWAP1 PUSH0 MSTORE PUSH1 0x20 PUSH0 KECCAK256 SWAP1 PUSH1 0x6 MUL ADD PUSH0 SWAP1 SWAP2 SWAP1 SWAP2 SWAP1 SWAP2 POP PUSH0 DUP3 ADD MLOAD DUP2 PUSH0 ADD SSTORE PUSH1 0x20 DUP3 ADD MLOAD DUP2 PUSH1 0x1 ADD SSTORE PUSH1 0x40 DUP3 ADD MLOAD DUP2 PUSH1 0x2 ADD PUSH0 PUSH2 0x100 EXP DUP2 SLOAD DUP2 PUSH1 0xFF MUL NOT AND SWAP1 DUP4 PUSH1 0xFF AND MUL OR SWAP1 SSTORE POP PUSH1 0x60 DUP3 ADD MLOAD DUP2 PUSH1 0x3 ADD SSTORE PUSH1 0x80 DUP3 ADD MLOAD DUP2 PUSH1 0x4 ADD PUSH0 PUSH2 0x100 EXP DUP2 SLOAD DUP2 PUSH1 0xFF MUL NOT AND SWAP1 DUP4 PUSH1 0xFF AND MUL OR SWAP1 SSTORE POP PUSH1 0xA0 DUP3 ADD MLOAD DUP2 PUSH1 0x4 ADD PUSH1 0x1 PUSH2 0x100 EXP DUP2 SLOAD DUP2 PUSH1 0xFF MUL NOT AND SWAP1 DUP4 PUSH1 0xFF AND MUL OR SWAP1 SSTORE POP PUSH1 0xC0 DUP3 ADD MLOAD DUP2 PUSH1 0x4 ADD PUSH1 0x2 PUSH2 0x100 EXP DUP2 SLOAD DUP2 PUSH20 0xFFFFFFFFFFFFFFFFFFFFFFFFFFFFFFFFFFFFFFFF MUL NOT AND SWAP1 DUP4 PUSH20 0xFFFFFFFFFFFFFFFFFFFFFFFFFFFFFFFFFFFFFFFF AND MUL OR SWAP1 SSTORE POP PUSH1 0xE0 DUP3 ADD MLOAD DUP2 PUSH1 0x5 ADD SSTORE POP POP PUSH0 PUSH1 0x1 PUSH1 0x2 DUP1 SLOAD SWAP1 POP PUSH2 0xE93 SWAP2 SWAP1 PUSH2 0x20AE JUMP JUMPDEST SWAP1 POP PUSH0 PUSH2 0xE9F DUP8 PUSH2 0x116F JUMP JUMPDEST SWAP1 POP PUSH0 PUSH2 0xEBF PUSH2 0xEAE DUP9 PUSH2 0x116F JUMP JUMPDEST PUSH2 0xEBA PUSH3 0xF4240 PUSH2 0x116F JUMP JUMPDEST PUSH2 0x1190 JUMP JUMPDEST SWAP1 POP PUSH0 PUSH2 0xED5 DUP3 PUSH2 0xED0 PUSH1 0xC PUSH2 0x1215 JUMP JUMPDEST PUSH2 0x1190 JUMP JUMPDEST SWAP1 POP PUSH0 PUSH2 0xEEB PUSH2 0xEE5 PUSH1 0x1 PUSH2 0x1215 JUMP JUMPDEST DUP4 PUSH2 0x1262 JUMP JUMPDEST SWAP1 POP PUSH0 PUSH2 0xEFB DUP3 DUP11 PUSH1 0xFF AND PUSH2 0x12C7 JUMP JUMPDEST SWAP1 POP PUSH0 PUSH2 0xF08 DUP7 DUP6 PUSH2 0x15CC JUMP JUMPDEST SWAP1 POP PUSH0 PUSH2 0xF15 DUP3 DUP5 PUSH2 0x15CC JUMP JUMPDEST SWAP1 POP PUSH0 PUSH2 0xF2B DUP5 PUSH2 0xF26 PUSH1 0x1 PUSH2 0x1215 JUMP JUMPDEST PUSH2 0x1635 JUMP JUMPDEST SWAP1 POP PUSH0 PUSH2 0xF38 DUP4 DUP4 PUSH2 0x1190 JUMP JUMPDEST SWAP1 POP PUSH0 PUSH2 0xF44 DUP3 PUSH2 0x169A JUMP JUMPDEST PUSH8 0xFFFFFFFFFFFFFFFF AND SWAP1 POP PUSH0 PUSH1 0x4 PUSH0 DUP14 DUP2 MSTORE PUSH1 0x20 ADD SWAP1 DUP2 MSTORE PUSH1 0x20 ADD PUSH0 KECCAK256 SWAP1 POP PUSH0 PUSH1 0x1 SWAP1 POP JUMPDEST DUP16 PUSH1 0xFF AND DUP2 GT PUSH2 0x1007 JUMPI DUP2 PUSH1 0x40 MLOAD DUP1 PUSH1 0xA0 ADD PUSH1 0x40 MSTORE DUP1 DUP6 DUP2 MSTORE PUSH1 0x20 ADD PUSH0 DUP2 MSTORE PUSH1 0x20 ADD PUSH0 DUP2 MSTORE PUSH1 0x20 ADD PUSH0 DUP2 MSTORE PUSH1 0x20 ADD PUSH0 DUP2 MSTORE POP SWAP1 DUP1 PUSH1 0x1 DUP2 SLOAD ADD DUP1 DUP3 SSTORE DUP1 SWAP2 POP POP PUSH1 0x1 SWAP1 SUB SWAP1 PUSH0 MSTORE PUSH1 0x20 PUSH0 KECCAK256 SWAP1 PUSH1 0x5 MUL ADD PUSH0 SWAP1 SWAP2 SWAP1 SWAP2 SWAP1 SWAP2 POP PUSH0 DUP3 ADD MLOAD DUP2 PUSH0 ADD SSTORE PUSH1 0x20 DUP3 ADD MLOAD DUP2 PUSH1 0x1 ADD SSTORE PUSH1 0x40 DUP3 ADD MLOAD DUP2 PUSH1 0x2 ADD SSTORE PUSH1 0x60 DUP3 ADD MLOAD DUP2 PUSH1 0x3 ADD SSTORE PUSH1 0x80 DUP3 ADD MLOAD DUP2 PUSH1 0x4 ADD SSTORE POP POP DUP1 DUP1 PUSH2 0xFFF SWAP1 PUSH2 0x2368 JUMP JUMPDEST SWAP2 POP POP PUSH2 0xF6A JUMP JUMPDEST POP PUSH1 0x6 PUSH0 CALLER PUSH20 0xFFFFFFFFFFFFFFFFFFFFFFFFFFFFFFFFFFFFFFFF AND PUSH20 0xFFFFFFFFFFFFFFFFFFFFFFFFFFFFFFFFFFFFFFFF AND DUP2 MSTORE PUSH1 0x20 ADD SWAP1 DUP2 MSTORE PUSH1 0x20 ADD PUSH0 KECCAK256 DUP13 SWAP1 DUP1 PUSH1 0x1 DUP2 SLOAD ADD DUP1 DUP3 SSTORE DUP1 SWAP2 POP POP PUSH1 0x1 SWAP1 SUB SWAP1 PUSH0 MSTORE PUSH1 0x20 PUSH0 KECCAK256 ADD PUSH0 SWAP1 SWAP2 SWAP1 SWAP2 SWAP1 SWAP2 POP SSTORE POP POP POP POP POP POP POP POP POP POP POP POP POP POP POP POP POP JUMP JUMPDEST PUSH1 0x7 PUSH1 0x20 MSTORE DUP2 PUSH0 MSTORE PUSH1 0x40 PUSH0 KECCAK256 DUP2 DUP2 SLOAD DUP2 LT PUSH2 0x1095 JUMPI PUSH0 DUP1 REVERT JUMPDEST SWAP1 PUSH0 MSTORE PUSH1 0x20 PUSH0 KECCAK256 ADD PUSH0 SWAP2 POP SWAP2 POP POP SLOAD DUP2 JUMP JUMPDEST PUSH1 0x6 PUSH1 0x20 MSTORE DUP2 PUSH0 MSTORE PUSH1 0x40 PUSH0 KECCAK256 DUP2 DUP2 SLOAD DUP2 LT PUSH2 0x10C0 JUMPI PUSH0 DUP1 REVERT JUMPDEST SWAP1 PUSH0 MSTORE PUSH1 0x20 PUSH0 KECCAK256 ADD PUSH0 SWAP2 POP SWAP2 POP POP SLOAD DUP2 JUMP JUMPDEST PUSH1 0x4 PUSH1 0x20 MSTORE DUP2 PUSH0 MSTORE PUSH1 0x40 PUSH0 KECCAK256 DUP2 DUP2 SLOAD DUP2 LT PUSH2 0x10EB JUMPI PUSH0 DUP1 REVERT JUMPDEST SWAP1 PUSH0 MSTORE PUSH1 0x20 PUSH0 KECCAK256 SWAP1 PUSH1 0x5 MUL ADD PUSH0 SWAP2 POP SWAP2 POP POP DUP1 PUSH0 ADD SLOAD SWAP1 DUP1 PUSH1 0x1 ADD SLOAD SWAP1 DUP1 PUSH1 0x2 ADD SLOAD SWAP1 DUP1 PUSH1 0x3 ADD SLOAD SWAP1 DUP1 PUSH1 0x4 ADD SLOAD SWAP1 POP DUP6 JUMP JUMPDEST PUSH1 0x1 PUSH1 0x20 MSTORE DUP1 PUSH0 MSTORE PUSH1 0x40 PUSH0 KECCAK256 PUSH0 SWAP2 POP SWAP1 POP SLOAD DUP2 JUMP JUMPDEST PUSH0 PUSH0 PUSH2 0x113F PUSH1 0xA PUSH2 0x1215 JUMP JUMPDEST SWAP1 POP PUSH0 PUSH2 0x114C PUSH1 0x3 PUSH2 0x1215 JUMP JUMPDEST SWAP1 POP PUSH0 PUSH2 0x1159 DUP4 DUP4 PUSH2 0x1190 JUMP JUMPDEST SWAP1 POP PUSH2 0x1164 DUP2 PUSH2 0x16B9 JUMP JUMPDEST PUSH1 0x7 SIGNEXTEND SWAP4 POP POP POP POP SWAP1 JUMP JUMPDEST PUSH0 PUSH8 0x7FFFFFFFFFFFFFFF DUP3 GT ISZERO PUSH2 0x1184 JUMPI PUSH0 PUSH0 REVERT JUMPDEST PUSH1 0x40 DUP3 SWAP1 SHL SWAP1 POP SWAP2 SWAP1 POP JUMP JUMPDEST PUSH0 PUSH0 DUP3 PUSH1 0xF SIGNEXTEND SUB PUSH2 0x119F JUMPI PUSH0 PUSH0 REVERT JUMPDEST PUSH0 DUP3 PUSH1 0xF SIGNEXTEND PUSH1 0x40 DUP6 PUSH1 0xF SIGNEXTEND SWAP1 SHL DUP2 PUSH2 0x11BA JUMPI PUSH2 0x11B9 PUSH2 0x23AF JUMP JUMPDEST JUMPDEST SDIV SWAP1 POP PUSH32 0xFFFFFFFFFFFFFFFFFFFFFFFFFFFFFFFF80000000000000000000000000000000 PUSH1 0xF SIGNEXTEND DUP2 SLT ISZERO DUP1 ISZERO PUSH2 0x1203 JUMPI POP PUSH16 0x7FFFFFFFFFFFFFFFFFFFFFFFFFFFFFFF PUSH1 0xF SIGNEXTEND DUP2 SGT ISZERO JUMPDEST PUSH2 0x120B JUMPI PUSH0 PUSH0 REVERT JUMPDEST DUP1 SWAP2 POP POP SWAP3 SWAP2 POP POP JUMP JUMPDEST PUSH0 PUSH32 0xFFFFFFFFFFFFFFFFFFFFFFFFFFFFFFFFFFFFFFFFFFFFFFFF8000000000000000 DUP3 SLT ISZERO DUP1 ISZERO PUSH2 0x124E JUMPI POP PUSH8 0x7FFFFFFFFFFFFFFF DUP3 SGT ISZERO JUMPDEST PUSH2 0x1256 JUMPI PUSH0 PUSH0 REVERT JUMPDEST PUSH1 0x40 DUP3 SWAP1 SHL SWAP1 POP SWAP2 SWAP1 POP JUMP JUMPDEST PUSH0 PUSH0 DUP3 PUSH1 0xF SIGNEXTEND DUP5 PUSH1 0xF SIGNEXTEND ADD SWAP1 POP PUSH32 0xFFFFFFFFFFFFFFFFFFFFFFFFFFFFFFFF80000000000000000000000000000000 PUSH1 0xF SIGNEXTEND DUP2 SLT ISZERO DUP1 ISZERO PUSH2 0x12B5 JUMPI POP PUSH16 0x7FFFFFFFFFFFFFFFFFFFFFFFFFFFFFFF PUSH1 0xF SIGNEXTEND DUP2 SGT ISZERO JUMPDEST PUSH2 0x12BD JUMPI PUSH0 PUSH0 REVERT JUMPDEST DUP1 SWAP2 POP POP SWAP3 SWAP2 POP POP JUMP JUMPDEST PUSH0 PUSH0 PUSH0 DUP5 PUSH1 0xF SIGNEXTEND SLT DUP1 ISZERO PUSH2 0x12DD JUMPI POP PUSH1 0x1 DUP1 DUP5 AND EQ JUMPDEST SWAP1 POP PUSH0 PUSH0 DUP6 PUSH1 0xF SIGNEXTEND SLT PUSH2 0x12F0 JUMPI DUP5 PUSH2 0x12F4 JUMP JUMPDEST DUP5 PUSH0 SUB JUMPDEST PUSH16 0xFFFFFFFFFFFFFFFFFFFFFFFFFFFFFFFF AND SWAP1 POP PUSH0 PUSH17 0x100000000000000000000000000000000 SWAP1 POP PUSH9 0x10000000000000000 DUP3 GT PUSH2 0x13C8 JUMPI PUSH1 0x3F DUP3 SWAP1 SHL SWAP2 POP JUMPDEST PUSH0 DUP6 EQ PUSH2 0x13BC JUMPI PUSH0 PUSH1 0x1 DUP7 AND EQ PUSH2 0x1350 JUMPI PUSH1 0x7F DUP3 DUP3 MUL SWAP1 SHR SWAP1 POP JUMPDEST PUSH1 0x7F DUP3 DUP4 MUL SWAP1 SHR SWAP2 POP PUSH0 PUSH1 0x2 DUP7 AND EQ PUSH2 0x136D JUMPI PUSH1 0x7F DUP3 DUP3 MUL SWAP1 SHR SWAP1 POP JUMPDEST PUSH1 0x7F DUP3 DUP4 MUL SWAP1 SHR SWAP2 POP PUSH0 PUSH1 0x4 DUP7 AND EQ PUSH2 0x138A JUMPI PUSH1 0x7F DUP3 DUP3 MUL SWAP1 SHR SWAP1 POP JUMPDEST PUSH1 0x7F DUP3 DUP4 MUL SWAP1 SHR SWAP2 POP PUSH0 PUSH1 0x8 DUP7 AND EQ PUSH2 0x13A7 JUMPI PUSH1 0x7F DUP3 DUP3 MUL SWAP1 SHR SWAP1 POP JUMPDEST PUSH1 0x7F DUP3 DUP4 MUL SWAP1 SHR SWAP2 POP PUSH1 0x4 DUP6 SWAP1 SHR SWAP5 POP PUSH2 0x1335 JUMP JUMPDEST PUSH1 0x40 DUP2 SWAP1 SHR SWAP1 POP PUSH2 0x155F JUMP JUMPDEST PUSH0 PUSH1 0x3F SWAP1 POP PUSH13 0x1000000000000000000000000 DUP4 LT ISZERO PUSH2 0x13F0 JUMPI PUSH1 0x20 DUP4 SWAP1 SHL SWAP3 POP PUSH1 0x20 DUP2 SUB SWAP1 POP JUMPDEST PUSH15 0x10000000000000000000000000000 DUP4 LT ISZERO PUSH2 0x1415 JUMPI PUSH1 0x10 DUP4 SWAP1 SHL SWAP3 POP PUSH1 0x10 DUP2 SUB SWAP1 POP JUMPDEST PUSH16 0x1000000000000000000000000000000 DUP4 LT ISZERO PUSH2 0x143B JUMPI PUSH1 0x8 DUP4 SWAP1 SHL SWAP3 POP PUSH1 0x8 DUP2 SUB SWAP1 POP JUMPDEST PUSH16 0x10000000000000000000000000000000 DUP4 LT ISZERO PUSH2 0x1461 JUMPI PUSH1 0x4 DUP4 SWAP1 SHL SWAP3 POP PUSH1 0x4 DUP2 SUB SWAP1 POP JUMPDEST PUSH16 0x40000000000000000000000000000000 DUP4 LT ISZERO PUSH2 0x1487 JUMPI PUSH1 0x2 DUP4 SWAP1 SHL SWAP3 POP PUSH1 0x2 DUP2 SUB SWAP1 POP JUMPDEST PUSH16 0x80000000000000000000000000000000 DUP4 LT ISZERO PUSH2 0x14AD JUMPI PUSH1 0x1 DUP4 SWAP1 SHL SWAP3 POP PUSH1 0x1 DUP2 SUB SWAP1 POP JUMPDEST PUSH0 PUSH0 SWAP1 POP JUMPDEST PUSH0 DUP8 EQ PUSH2 0x1547 JUMPI PUSH1 0x40 DUP3 LT PUSH2 0x14C5 JUMPI PUSH0 PUSH0 REVERT JUMPDEST PUSH0 PUSH1 0x1 DUP9 AND EQ PUSH2 0x1505 JUMPI PUSH1 0x7F DUP5 DUP5 MUL SWAP1 SHR SWAP3 POP DUP2 DUP2 ADD SWAP1 POP PUSH17 0x100000000000000000000000000000000 DUP4 GT ISZERO PUSH2 0x1504 JUMPI PUSH1 0x1 DUP4 SWAP1 SHR SWAP3 POP PUSH1 0x1 DUP2 ADD SWAP1 POP JUMPDEST JUMPDEST PUSH1 0x7F DUP5 DUP6 MUL SWAP1 SHR SWAP4 POP PUSH1 0x1 DUP3 SWAP1 SHL SWAP2 POP PUSH17 0x100000000000000000000000000000000 DUP5 LT PUSH2 0x153B JUMPI PUSH1 0x1 DUP5 SWAP1 SHR SWAP4 POP PUSH1 0x1 DUP3 ADD SWAP2 POP JUMPDEST PUSH1 0x1 DUP8 SWAP1 SHR SWAP7 POP PUSH2 0x14B2 JUMP JUMPDEST PUSH1 0x40 DUP2 LT PUSH2 0x1553 JUMPI PUSH0 PUSH0 REVERT JUMPDEST DUP1 PUSH1 0x40 SUB DUP4 SWAP1 SHR SWAP3 POP POP POP JUMPDEST PUSH0 DUP4 PUSH2 0x156B JUMPI DUP2 PUSH2 0x156F JUMP JUMPDEST DUP2 PUSH0 SUB JUMPDEST SWAP1 POP PUSH32 0xFFFFFFFFFFFFFFFFFFFFFFFFFFFFFFFF80000000000000000000000000000000 PUSH1 0xF SIGNEXTEND DUP2 SLT ISZERO DUP1 ISZERO PUSH2 0x15B7 JUMPI POP PUSH16 0x7FFFFFFFFFFFFFFFFFFFFFFFFFFFFFFF PUSH1 0xF SIGNEXTEND DUP2 SGT ISZERO JUMPDEST PUSH2 0x15BF JUMPI PUSH0 PUSH0 REVERT JUMPDEST DUP1 SWAP5 POP POP POP POP POP SWAP3 SWAP2 POP POP JUMP JUMPDEST PUSH0 PUSH0 PUSH1 0x40 DUP4 PUSH1 0xF SIGNEXTEND DUP6 PUSH1 0xF SIGNEXTEND MUL SWAP1 SAR SWAP1 POP PUSH32 0xFFFFFFFFFFFFFFFFFFFFFFFFFFFFFFFF80000000000000000000000000000000 PUSH1 0xF SIGNEXTEND DUP2 SLT ISZERO DUP1 ISZERO PUSH2 0x1623 JUMPI POP PUSH16 0x7FFFFFFFFFFFFFFFFFFFFFFFFFFFFFFF PUSH1 0xF SIGNEXTEND DUP2 SGT ISZERO JUMPDEST PUSH2 0x162B JUMPI PUSH0 PUSH0 REVERT JUMPDEST DUP1 SWAP2 POP POP SWAP3 SWAP2 POP POP JUMP JUMPDEST PUSH0 PUSH0 DUP3 PUSH1 0xF SIGNEXTEND DUP5 PUSH1 0xF SIGNEXTEND SUB SWAP1 POP PUSH32 0xFFFFFFFFFFFFFFFFFFFFFFFFFFFFFFFF80000000000000000000000000000000 PUSH1 0xF SIGNEXTEND DUP2 SLT ISZERO DUP1 ISZERO PUSH2 0x1688 JUMPI POP PUSH16 0x7FFFFFFFFFFFFFFFFFFFFFFFFFFFFFFF PUSH1 0xF SIGNEXTEND DUP2 SGT ISZERO JUMPDEST PUSH2 0x1690 JUMPI PUSH0 PUSH0 REVERT JUMPDEST DUP1 SWAP2 POP POP SWAP3 SWAP2 POP POP JUMP JUMPDEST PUSH0 PUSH0 DUP3 PUSH1 0xF SIGNEXTEND SLT ISZERO PUSH2 0x16AA JUMPI PUSH0 PUSH0 REVERT JUMPDEST PUSH1 0x40 DUP3 PUSH1 0xF SIGNEXTEND SWAP1 SAR SWAP1 POP SWAP2 SWAP1 POP JUMP JUMPDEST PUSH0 PUSH1 0x40 DUP3 PUSH1 0xF SIGNEXTEND SWAP1 SAR SWAP1 POP SWAP2 SWAP1 POP JUMP JUMPDEST PUSH0 PUSH0 REVERT JUMPDEST PUSH0 DUP2 SWAP1 POP SWAP2 SWAP1 POP JUMP JUMPDEST PUSH2 0x16DF DUP2 PUSH2 0x16CD JUMP JUMPDEST DUP2 EQ PUSH2 0x16E9 JUMPI PUSH0 PUSH0 REVERT JUMPDEST POP JUMP JUMPDEST PUSH0 DUP2 CALLDATALOAD SWAP1 POP PUSH2 0x16FA DUP2 PUSH2 0x16D6 JUMP JUMPDEST SWAP3 SWAP2 POP POP JUMP JUMPDEST PUSH0 PUSH1 0x20 DUP3 DUP5 SUB SLT ISZERO PUSH2 0x1715 JUMPI PUSH2 0x1714 PUSH2 0x16C9 JUMP JUMPDEST JUMPDEST PUSH0 PUSH2 0x1722 DUP5 DUP3 DUP6 ADD PUSH2 0x16EC JUMP JUMPDEST SWAP2 POP POP SWAP3 SWAP2 POP POP JUMP JUMPDEST PUSH2 0x1734 DUP2 PUSH2 0x16CD JUMP JUMPDEST DUP3 MSTORE POP POP JUMP JUMPDEST PUSH0 PUSH1 0xFF DUP3 AND SWAP1 POP SWAP2 SWAP1 POP JUMP JUMPDEST PUSH2 0x174F DUP2 PUSH2 0x173A JUMP JUMPDEST DUP3 MSTORE POP POP JUMP JUMPDEST PUSH0 PUSH20 0xFFFFFFFFFFFFFFFFFFFFFFFFFFFFFFFFFFFFFFFF DUP3 AND SWAP1 POP SWAP2 SWAP1 POP JUMP JUMPDEST PUSH0 PUSH2 0x177E DUP3 PUSH2 0x1755 JUMP JUMPDEST SWAP1 POP SWAP2 SWAP1 POP JUMP JUMPDEST PUSH2 0x178E DUP2 PUSH2 0x1774 JUMP JUMPDEST DUP3 MSTORE POP POP JUMP JUMPDEST PUSH0 PUSH2 0x100 DUP3 ADD SWAP1 POP PUSH2 0x17A8 PUSH0 DUP4 ADD DUP12 PUSH2 0x172B JUMP JUMPDEST PUSH2 0x17B5 PUSH1 0x20 DUP4 ADD DUP11 PUSH2 0x172B JUMP JUMPDEST PUSH2 0x17C2 PUSH1 0x40 DUP4 ADD DUP10 PUSH2 0x1746 JUMP JUMPDEST PUSH2 0x17CF PUSH1 0x60 DUP4 ADD DUP9 PUSH2 0x172B JUMP JUMPDEST PUSH2 0x17DC PUSH1 0x80 DUP4 ADD DUP8 PUSH2 0x1746 JUMP JUMPDEST PUSH2 0x17E9 PUSH1 0xA0 DUP4 ADD DUP7 PUSH2 0x1746 JUMP JUMPDEST PUSH2 0x17F6 PUSH1 0xC0 DUP4 ADD DUP6 PUSH2 0x1785 JUMP JUMPDEST PUSH2 0x1803 PUSH1 0xE0 DUP4 ADD DUP5 PUSH2 0x172B JUMP JUMPDEST SWAP10 SWAP9 POP POP POP POP POP POP POP POP POP JUMP JUMPDEST PUSH0 PUSH0 PUSH1 0x40 DUP4 DUP6 SUB SLT ISZERO PUSH2 0x1826 JUMPI PUSH2 0x1825 PUSH2 0x16C9 JUMP JUMPDEST JUMPDEST PUSH0 PUSH2 0x1833 DUP6 DUP3 DUP7 ADD PUSH2 0x16EC JUMP JUMPDEST SWAP3 POP POP PUSH1 0x20 PUSH2 0x1844 DUP6 DUP3 DUP7 ADD PUSH2 0x16EC JUMP JUMPDEST SWAP2 POP POP SWAP3 POP SWAP3 SWAP1 POP JUMP JUMPDEST PUSH0 PUSH1 0x20 DUP3 ADD SWAP1 POP PUSH2 0x1861 PUSH0 DUP4 ADD DUP5 PUSH2 0x172B JUMP JUMPDEST SWAP3 SWAP2 POP POP JUMP JUMPDEST PUSH2 0x1870 DUP2 PUSH2 0x1774 JUMP JUMPDEST DUP2 EQ PUSH2 0x187A JUMPI PUSH0 PUSH0 REVERT JUMPDEST POP JUMP JUMPDEST PUSH0 DUP2 CALLDATALOAD SWAP1 POP PUSH2 0x188B DUP2 PUSH2 0x1867 JUMP JUMPDEST SWAP3 SWAP2 POP POP JUMP JUMPDEST PUSH0 PUSH1 0x20 DUP3 DUP5 SUB SLT ISZERO PUSH2 0x18A6 JUMPI PUSH2 0x18A5 PUSH2 0x16C9 JUMP JUMPDEST JUMPDEST PUSH0 PUSH2 0x18B3 DUP5 DUP3 DUP6 ADD PUSH2 0x187D JUMP JUMPDEST SWAP2 POP POP SWAP3 SWAP2 POP POP JUMP JUMPDEST PUSH0 DUP2 ISZERO ISZERO SWAP1 POP SWAP2 SWAP1 POP JUMP JUMPDEST PUSH2 0x18D0 DUP2 PUSH2 0x18BC JUMP JUMPDEST DUP3 MSTORE POP POP JUMP JUMPDEST PUSH0 PUSH1 0x20 DUP3 ADD SWAP1 POP PUSH2 0x18E9 PUSH0 DUP4 ADD DUP5 PUSH2 0x18C7 JUMP JUMPDEST SWAP3 SWAP2 POP POP JUMP JUMPDEST PUSH0 PUSH1 0x60 DUP3 ADD SWAP1 POP PUSH2 0x1902 PUSH0 DUP4 ADD DUP7 PUSH2 0x1785 JUMP JUMPDEST PUSH2 0x190F PUSH1 0x20 DUP4 ADD DUP6 PUSH2 0x172B JUMP JUMPDEST PUSH2 0x191C PUSH1 0x40 DUP4 ADD DUP5 PUSH2 0x172B JUMP JUMPDEST SWAP5 SWAP4 POP POP POP POP JUMP JUMPDEST PUSH2 0x192D DUP2 PUSH2 0x173A JUMP JUMPDEST DUP2 EQ PUSH2 0x1937 JUMPI PUSH0 PUSH0 REVERT JUMPDEST POP JUMP JUMPDEST PUSH0 DUP2 CALLDATALOAD SWAP1 POP PUSH2 0x1948 DUP2 PUSH2 0x1924 JUMP JUMPDEST SWAP3 SWAP2 POP POP JUMP JUMPDEST PUSH0 PUSH0 PUSH0 PUSH0 PUSH0 PUSH1 0xA0 DUP7 DUP9 SUB SLT ISZERO PUSH2 0x1967 JUMPI PUSH2 0x1966 PUSH2 0x16C9 JUMP JUMPDEST JUMPDEST PUSH0 PUSH2 0x1974 DUP9 DUP3 DUP10 ADD PUSH2 0x16EC JUMP JUMPDEST SWAP6 POP POP PUSH1 0x20 PUSH2 0x1985 DUP9 DUP3 DUP10 ADD PUSH2 0x16EC JUMP JUMPDEST SWAP5 POP POP PUSH1 0x40 PUSH2 0x1996 DUP9 DUP3 DUP10 ADD PUSH2 0x193A JUMP JUMPDEST SWAP4 POP POP PUSH1 0x60 PUSH2 0x19A7 DUP9 DUP3 DUP10 ADD PUSH2 0x16EC JUMP JUMPDEST SWAP3 POP POP PUSH1 0x80 PUSH2 0x19B8 DUP9 DUP3 DUP10 ADD PUSH2 0x193A JUMP JUMPDEST SWAP2 POP POP SWAP3 SWAP6 POP SWAP3 SWAP6 SWAP1 SWAP4 POP JUMP JUMPDEST PUSH0 PUSH0 PUSH1 0x40 DUP4 DUP6 SUB SLT ISZERO PUSH2 0x19DB JUMPI PUSH2 0x19DA PUSH2 0x16C9 JUMP JUMPDEST JUMPDEST PUSH0 PUSH2 0x19E8 DUP6 DUP3 DUP7 ADD PUSH2 0x187D JUMP JUMPDEST SWAP3 POP POP PUSH1 0x20 PUSH2 0x19F9 DUP6 DUP3 DUP7 ADD PUSH2 0x16EC JUMP JUMPDEST SWAP2 POP POP SWAP3 POP SWAP3 SWAP1 POP JUMP JUMPDEST PUSH0 PUSH1 0xA0 DUP3 ADD SWAP1 POP PUSH2 0x1A16 PUSH0 DUP4 ADD DUP9 PUSH2 0x172B JUMP JUMPDEST PUSH2 0x1A23 PUSH1 0x20 DUP4 ADD DUP8 PUSH2 0x172B JUMP JUMPDEST PUSH2 0x1A30 PUSH1 0x40 DUP4 ADD DUP7 PUSH2 0x172B JUMP JUMPDEST PUSH2 0x1A3D PUSH1 0x60 DUP4 ADD DUP6 PUSH2 0x172B JUMP JUMPDEST PUSH2 0x1A4A PUSH1 0x80 DUP4 ADD DUP5 PUSH2 0x172B JUMP JUMPDEST SWAP7 SWAP6 POP POP POP POP POP POP JUMP JUMPDEST PUSH0 DUP2 PUSH1 0xF SIGNEXTEND SWAP1 POP SWAP2 SWAP1 POP JUMP JUMPDEST PUSH2 0x1A69 DUP2 PUSH2 0x1A54 JUMP JUMPDEST DUP3 MSTORE POP POP JUMP JUMPDEST PUSH0 PUSH1 0x20 DUP3 ADD SWAP1 POP PUSH2 0x1A82 PUSH0 DUP4 ADD DUP5 PUSH2 0x1A60 JUMP JUMPDEST SWAP3 SWAP2 POP POP JUMP JUMPDEST PUSH32 0x4E487B7100000000000000000000000000000000000000000000000000000000 PUSH0 MSTORE PUSH1 0x32 PUSH1 0x4 MSTORE PUSH1 0x24 PUSH0 REVERT JUMPDEST PUSH0 DUP3 DUP3 MSTORE PUSH1 0x20 DUP3 ADD SWAP1 POP SWAP3 SWAP2 POP POP JUMP JUMPDEST PUSH32 0x4F6E6C79207468652070726F6A65637420696E69746961746F722063616E2063 PUSH0 DUP3 ADD MSTORE PUSH32 0x616E63656C207468652070726F6A656374000000000000000000000000000000 PUSH1 0x20 DUP3 ADD MSTORE POP JUMP JUMPDEST PUSH0 PUSH2 0x1B1F PUSH1 0x31 DUP4 PUSH2 0x1AB5 JUMP JUMPDEST SWAP2 POP PUSH2 0x1B2A DUP3 PUSH2 0x1AC5 JUMP JUMPDEST PUSH1 0x40 DUP3 ADD SWAP1 POP SWAP2 SWAP1 POP JUMP JUMPDEST PUSH0 PUSH1 0x20 DUP3 ADD SWAP1 POP DUP2 DUP2 SUB PUSH0 DUP4 ADD MSTORE PUSH2 0x1B4C DUP2 PUSH2 0x1B13 JUMP JUMPDEST SWAP1 POP SWAP2 SWAP1 POP JUMP JUMPDEST PUSH32 0x4F6E6C792070726F6A6563747320647572696E67207468652066756E64696E67 PUSH0 DUP3 ADD MSTORE PUSH32 0x20706572696F642063616E2062652063616E63656C6C65640000000000000000 PUSH1 0x20 DUP3 ADD MSTORE POP JUMP JUMPDEST PUSH0 PUSH2 0x1BAD PUSH1 0x38 DUP4 PUSH2 0x1AB5 JUMP JUMPDEST SWAP2 POP PUSH2 0x1BB8 DUP3 PUSH2 0x1B53 JUMP JUMPDEST PUSH1 0x40 DUP3 ADD SWAP1 POP SWAP2 SWAP1 POP JUMP JUMPDEST PUSH0 PUSH1 0x20 DUP3 ADD SWAP1 POP DUP2 DUP2 SUB PUSH0 DUP4 ADD MSTORE PUSH2 0x1BDA DUP2 PUSH2 0x1BA1 JUMP JUMPDEST SWAP1 POP SWAP2 SWAP1 POP JUMP JUMPDEST PUSH0 DUP2 SWAP1 POP SWAP3 SWAP2 POP POP JUMP JUMPDEST POP JUMP JUMPDEST PUSH0 PUSH2 0x1BF9 PUSH0 DUP4 PUSH2 0x1BE1 JUMP JUMPDEST SWAP2 POP PUSH2 0x1C04 DUP3 PUSH2 0x1BEB JUMP JUMPDEST PUSH0 DUP3 ADD SWAP1 POP SWAP2 SWAP1 POP JUMP JUMPDEST PUSH0 PUSH2 0x1C18 DUP3 PUSH2 0x1BEE JUMP JUMPDEST SWAP2 POP DUP2 SWAP1 POP SWAP2 SWAP1 POP JUMP JUMPDEST PUSH0 DUP2 PUSH1 0x60 SHL SWAP1 POP SWAP2 SWAP1 POP JUMP JUMPDEST PUSH0 PUSH2 0x1C38 DUP3 PUSH2 0x1C22 JUMP JUMPDEST SWAP1 POP SWAP2 SWAP1 POP JUMP JUMPDEST PUSH0 PUSH2 0x1C49 DUP3 PUSH2 0x1C2E JUMP JUMPDEST SWAP1 POP SWAP2 SWAP1 POP JUMP JUMPDEST PUSH2 0x1C61 PUSH2 0x1C5C DUP3 PUSH2 0x1774 JUMP JUMPDEST PUSH2 0x1C3F JUMP JUMPDEST DUP3 MSTORE POP POP JUMP JUMPDEST PUSH0 PUSH2 0x1C72 DUP3 DUP5 PUSH2 0x1C50 JUMP JUMPDEST PUSH1 0x14 DUP3 ADD SWAP2 POP DUP2 SWAP1 POP SWAP3 SWAP2 POP POP JUMP JUMPDEST PUSH32 0x7472616E7366657220746F200000000000000000000000000000000000000000 DUP2 MSTORE POP JUMP JUMPDEST PUSH0 DUP2 MLOAD SWAP1 POP SWAP2 SWAP1 POP JUMP JUMPDEST PUSH0 DUP2 SWAP1 POP SWAP3 SWAP2 POP POP JUMP JUMPDEST DUP3 DUP2 DUP4 MCOPY PUSH0 DUP4 DUP4 ADD MSTORE POP POP POP JUMP JUMPDEST PUSH0 PUSH2 0x1CD3 DUP3 PUSH2 0x1CA7 JUMP JUMPDEST PUSH2 0x1CDD DUP2 DUP6 PUSH2 0x1CB1 JUMP JUMPDEST SWAP4 POP PUSH2 0x1CED DUP2 DUP6 PUSH1 0x20 DUP7 ADD PUSH2 0x1CBB JUMP JUMPDEST DUP1 DUP5 ADD SWAP2 POP POP SWAP3 SWAP2 POP POP JUMP JUMPDEST PUSH32 0x206661696C202100000000000000000000000000000000000000000000000000 DUP2 MSTORE POP JUMP JUMPDEST PUSH0 PUSH2 0x1D29 DUP3 PUSH2 0x1C81 JUMP JUMPDEST PUSH1 0xC DUP3 ADD SWAP2 POP PUSH2 0x1D39 DUP3 DUP5 PUSH2 0x1CC9 JUMP JUMPDEST SWAP2 POP PUSH2 0x1D44 DUP3 PUSH2 0x1CF9 JUMP JUMPDEST PUSH1 0x7 DUP3 ADD SWAP2 POP DUP2 SWAP1 POP SWAP3 SWAP2 POP POP JUMP JUMPDEST PUSH0 PUSH1 0x1F NOT PUSH1 0x1F DUP4 ADD AND SWAP1 POP SWAP2 SWAP1 POP JUMP JUMPDEST PUSH0 PUSH2 0x1D6D DUP3 PUSH2 0x1CA7 JUMP JUMPDEST PUSH2 0x1D77 DUP2 DUP6 PUSH2 0x1AB5 JUMP JUMPDEST SWAP4 POP PUSH2 0x1D87 DUP2 DUP6 PUSH1 0x20 DUP7 ADD PUSH2 0x1CBB JUMP JUMPDEST PUSH2 0x1D90 DUP2 PUSH2 0x1D53 JUMP JUMPDEST DUP5 ADD SWAP2 POP POP SWAP3 SWAP2 POP POP JUMP JUMPDEST PUSH0 PUSH1 0x20 DUP3 ADD SWAP1 POP DUP2 DUP2 SUB PUSH0 DUP4 ADD MSTORE PUSH2 0x1DB3 DUP2 DUP5 PUSH2 0x1D63 JUMP JUMPDEST SWAP1 POP SWAP3 SWAP2 POP POP JUMP JUMPDEST PUSH32 0x4F6E6C792070726F6A656374732074686174206861766520656E746572656420 PUSH0 DUP3 ADD MSTORE PUSH32 0x7468652072657061796D656E7420706572696F642063616E2062652072657061 PUSH1 0x20 DUP3 ADD MSTORE PUSH32 0x69642E0000000000000000000000000000000000000000000000000000000000 PUSH1 0x40 DUP3 ADD MSTORE POP JUMP JUMPDEST PUSH0 PUSH2 0x1E3B PUSH1 0x43 DUP4 PUSH2 0x1AB5 JUMP JUMPDEST SWAP2 POP PUSH2 0x1E46 DUP3 PUSH2 0x1DBB JUMP JUMPDEST PUSH1 0x60 DUP3 ADD SWAP1 POP SWAP2 SWAP1 POP JUMP JUMPDEST PUSH0 PUSH1 0x20 DUP3 ADD SWAP1 POP DUP2 DUP2 SUB PUSH0 DUP4 ADD MSTORE PUSH2 0x1E68 DUP2 PUSH2 0x1E2F JUMP JUMPDEST SWAP1 POP SWAP2 SWAP1 POP JUMP JUMPDEST PUSH32 0x4F6E6C79207468652070726F6A65637420696E69746961746F722063616E2072 PUSH0 DUP3 ADD MSTORE PUSH32 0x6570617920746865206C6F616E00000000000000000000000000000000000000 PUSH1 0x20 DUP3 ADD MSTORE POP JUMP JUMPDEST PUSH0 PUSH2 0x1EC9 PUSH1 0x2D DUP4 PUSH2 0x1AB5 JUMP JUMPDEST SWAP2 POP PUSH2 0x1ED4 DUP3 PUSH2 0x1E6F JUMP JUMPDEST PUSH1 0x40 DUP3 ADD SWAP1 POP SWAP2 SWAP1 POP JUMP JUMPDEST PUSH0 PUSH1 0x20 DUP3 ADD SWAP1 POP DUP2 DUP2 SUB PUSH0 DUP4 ADD MSTORE PUSH2 0x1EF6 DUP2 PUSH2 0x1EBD JUMP JUMPDEST SWAP1 POP SWAP2 SWAP1 POP JUMP JUMPDEST PUSH32 0x4F6E6C792070726F6A6563747320696E207468652066756E64696E6720706861 PUSH0 DUP3 ADD MSTORE PUSH32 0x73652063616E20726563656976652066756E64696E6700000000000000000000 PUSH1 0x20 DUP3 ADD MSTORE POP JUMP JUMPDEST PUSH0 PUSH2 0x1F57 PUSH1 0x36 DUP4 PUSH2 0x1AB5 JUMP JUMPDEST SWAP2 POP PUSH2 0x1F62 DUP3 PUSH2 0x1EFD JUMP JUMPDEST PUSH1 0x40 DUP3 ADD SWAP1 POP SWAP2 SWAP1 POP JUMP JUMPDEST PUSH0 PUSH1 0x20 DUP3 ADD SWAP1 POP DUP2 DUP2 SUB PUSH0 DUP4 ADD MSTORE PUSH2 0x1F84 DUP2 PUSH2 0x1F4B JUMP JUMPDEST SWAP1 POP SWAP2 SWAP1 POP JUMP JUMPDEST PUSH32 0x50726F6A656374206C61756E6368657220617265206E6F7420616C6C6F776564 PUSH0 DUP3 ADD MSTORE PUSH32 0x20746F20636F6E74726962757465206361706974616C00000000000000000000 PUSH1 0x20 DUP3 ADD MSTORE POP JUMP JUMPDEST PUSH0 PUSH2 0x1FE5 PUSH1 0x36 DUP4 PUSH2 0x1AB5 JUMP JUMPDEST SWAP2 POP PUSH2 0x1FF0 DUP3 PUSH2 0x1F8B JUMP JUMPDEST PUSH1 0x40 DUP3 ADD SWAP1 POP SWAP2 SWAP1 POP JUMP JUMPDEST PUSH0 PUSH1 0x20 DUP3 ADD SWAP1 POP DUP2 DUP2 SUB PUSH0 DUP4 ADD MSTORE PUSH2 0x2012 DUP2 PUSH2 0x1FD9 JUMP JUMPDEST SWAP1 POP SWAP2 SWAP1 POP JUMP JUMPDEST PUSH32 0x416D6F756E74206D75737420626967676572207468616E203000000000000000 PUSH0 DUP3 ADD MSTORE POP JUMP JUMPDEST PUSH0 PUSH2 0x204D PUSH1 0x19 DUP4 PUSH2 0x1AB5 JUMP JUMPDEST SWAP2 POP PUSH2 0x2058 DUP3 PUSH2 0x2019 JUMP JUMPDEST PUSH1 0x20 DUP3 ADD SWAP1 POP SWAP2 SWAP1 POP JUMP JUMPDEST PUSH0 PUSH1 0x20 DUP3 ADD SWAP1 POP DUP2 DUP2 SUB PUSH0 DUP4 ADD MSTORE PUSH2 0x207A DUP2 PUSH2 0x2041 JUMP JUMPDEST SWAP1 POP SWAP2 SWAP1 POP JUMP JUMPDEST PUSH32 0x4E487B7100000000000000000000000000000000000000000000000000000000 PUSH0 MSTORE PUSH1 0x11 PUSH1 0x4 MSTORE PUSH1 0x24 PUSH0 REVERT JUMPDEST PUSH0 PUSH2 0x20B8 DUP3 PUSH2 0x16CD JUMP JUMPDEST SWAP2 POP PUSH2 0x20C3 DUP4 PUSH2 0x16CD JUMP JUMPDEST SWAP3 POP DUP3 DUP3 SUB SWAP1 POP DUP2 DUP2 GT ISZERO PUSH2 0x20DB JUMPI PUSH2 0x20DA PUSH2 0x2081 JUMP JUMPDEST JUMPDEST SWAP3 SWAP2 POP POP JUMP JUMPDEST PUSH32 0x54686520616D6F756E74206F662066756E647320636F6E747269627574656420 PUSH0 DUP3 ADD MSTORE PUSH32 0x65786365656473207468652070726F6A65637420726571756972656D656E7473 PUSH1 0x20 DUP3 ADD MSTORE POP JUMP JUMPDEST PUSH0 PUSH2 0x213B PUSH1 0x40 DUP4 PUSH2 0x1AB5 JUMP JUMPDEST SWAP2 POP PUSH2 0x2146 DUP3 PUSH2 0x20E1 JUMP JUMPDEST PUSH1 0x40 DUP3 ADD SWAP1 POP SWAP2 SWAP1 POP JUMP JUMPDEST PUSH0 PUSH1 0x20 DUP3 ADD SWAP1 POP DUP2 DUP2 SUB PUSH0 DUP4 ADD MSTORE PUSH2 0x2168 DUP2 PUSH2 0x212F JUMP JUMPDEST SWAP1 POP SWAP2 SWAP1 POP JUMP JUMPDEST PUSH0 PUSH2 0x2179 DUP3 PUSH2 0x16CD JUMP JUMPDEST SWAP2 POP PUSH2 0x2184 DUP4 PUSH2 0x16CD JUMP JUMPDEST SWAP3 POP DUP3 DUP3 ADD SWAP1 POP DUP1 DUP3 GT ISZERO PUSH2 0x219C JUMPI PUSH2 0x219B PUSH2 0x2081 JUMP JUMPDEST JUMPDEST SWAP3 SWAP2 POP POP JUMP JUMPDEST PUSH32 0x616D6F756E74206D75737420626967676572207468616E203000000000000000 PUSH0 DUP3 ADD MSTORE POP JUMP JUMPDEST PUSH0 PUSH2 0x21D6 PUSH1 0x19 DUP4 PUSH2 0x1AB5 JUMP JUMPDEST SWAP2 POP PUSH2 0x21E1 DUP3 PUSH2 0x21A2 JUMP JUMPDEST PUSH1 0x20 DUP3 ADD SWAP1 POP SWAP2 SWAP1 POP JUMP JUMPDEST PUSH0 PUSH1 0x20 DUP3 ADD SWAP1 POP DUP2 DUP2 SUB PUSH0 DUP4 ADD MSTORE PUSH2 0x2203 DUP2 PUSH2 0x21CA JUMP JUMPDEST SWAP1 POP SWAP2 SWAP1 POP JUMP JUMPDEST PUSH32 0x7465726D206D75737420626967676572207468616E2030000000000000000000 PUSH0 DUP3 ADD MSTORE POP JUMP JUMPDEST PUSH0 PUSH2 0x223E PUSH1 0x17 DUP4 PUSH2 0x1AB5 JUMP JUMPDEST SWAP2 POP PUSH2 0x2249 DUP3 PUSH2 0x220A JUMP JUMPDEST PUSH1 0x20 DUP3 ADD SWAP1 POP SWAP2 SWAP1 POP JUMP JUMPDEST PUSH0 PUSH1 0x20 DUP3 ADD SWAP1 POP DUP2 DUP2 SUB PUSH0 DUP4 ADD MSTORE PUSH2 0x226B DUP2 PUSH2 0x2232 JUMP JUMPDEST SWAP1 POP SWAP2 SWAP1 POP JUMP JUMPDEST PUSH32 0x636F6C6C65637420656E642074696D65206D7573742062652067726561746572 PUSH0 DUP3 ADD MSTORE PUSH32 0x207468616E20323420686F757273000000000000000000000000000000000000 PUSH1 0x20 DUP3 ADD MSTORE POP JUMP JUMPDEST PUSH0 PUSH2 0x22CC PUSH1 0x2E DUP4 PUSH2 0x1AB5 JUMP JUMPDEST SWAP2 POP PUSH2 0x22D7 DUP3 PUSH2 0x2272 JUMP JUMPDEST PUSH1 0x40 DUP3 ADD SWAP1 POP SWAP2 SWAP1 POP JUMP JUMPDEST PUSH0 PUSH1 0x20 DUP3 ADD SWAP1 POP DUP2 DUP2 SUB PUSH0 DUP4 ADD MSTORE PUSH2 0x22F9 DUP2 PUSH2 0x22C0 JUMP JUMPDEST SWAP1 POP SWAP2 SWAP1 POP JUMP JUMPDEST PUSH32 0x7265706179206D6574686F64206D757374206265203100000000000000000000 PUSH0 DUP3 ADD MSTORE POP JUMP JUMPDEST PUSH0 PUSH2 0x2334 PUSH1 0x16 DUP4 PUSH2 0x1AB5 JUMP JUMPDEST SWAP2 POP PUSH2 0x233F DUP3 PUSH2 0x2300 JUMP JUMPDEST PUSH1 0x20 DUP3 ADD SWAP1 POP SWAP2 SWAP1 POP JUMP JUMPDEST PUSH0 PUSH1 0x20 DUP3 ADD SWAP1 POP DUP2 DUP2 SUB PUSH0 DUP4 ADD MSTORE PUSH2 0x2361 DUP2 PUSH2 0x2328 JUMP JUMPDEST SWAP1 POP SWAP2 SWAP1 POP JUMP JUMPDEST PUSH0 PUSH2 0x2372 DUP3 PUSH2 0x16CD JUMP JUMPDEST SWAP2 POP PUSH32 0xFFFFFFFFFFFFFFFFFFFFFFFFFFFFFFFFFFFFFFFFFFFFFFFFFFFFFFFFFFFFFFFF DUP3 SUB PUSH2 0x23A4 JUMPI PUSH2 0x23A3 PUSH2 0x2081 JUMP JUMPDEST JUMPDEST PUSH1 0x1 DUP3 ADD SWAP1 POP SWAP2 SWAP1 POP JUMP JUMPDEST PUSH32 0x4E487B7100000000000000000000000000000000000000000000000000000000 PUSH0 MSTORE PUSH1 0x12 PUSH1 0x4 MSTORE PUSH1 0x24 PUSH0 REVERT INVALID LOG2 PUSH5 0x6970667358 0x22 SLT KECCAK256 SWAP5 STATICCALL 0xBB DELEGATECALL GT MCOPY 0x4B 0xB0 0xF9 EXP 0xDC RETURNDATACOPY NOT SWAP10 SWAP5 CREATE2 PUSH17 0x40704CED9594812DE97ACF9DE95FF46473 PUSH16 0x6C634300081B00330000000000000000 "
		},
		"gasEstimates": {
			"creation": {
				"codeDepositCost": "1846800",
				"executionCost": "1946",
				"totalCost": "1848746"
			},
			"external": {
				"bb(uint256,uint256)": "infinite",
				"bills(uint256,uint256)": "infinite",
				"contribute(uint256)": "infinite",
				"contributeProjects(address,uint256)": "infinite",
				"contribution(uint256,uint256)": "infinite",
				"createProject(uint256,uint256,uint8,uint256,uint8)": "infinite",
				"creditScore(address)": "2868",
				"getAmountNeedRepayNow(uint256)": "infinite",
				"launchProjects(address,uint256)": "infinite",
				"projects(uint256)": "infinite",
				"repay(uint256)": "7346",
				"revocateProject(uint256)": "infinite",
				"test()": "infinite",
				"users(address)": "2877"
			}
		},
		"methodIdentifiers": {
			"bb(uint256,uint256)": "259ba3eb",
			"bills(uint256,uint256)": "f0962151",
			"contribute(uint256)": "c1cbbca7",
			"contributeProjects(address,uint256)": "cea3ec15",
			"contribution(uint256,uint256)": "b12d02fc",
			"createProject(uint256,uint256,uint8,uint256,uint8)": "cde128db",
			"creditScore(address)": "f7e590ee",
			"getAmountNeedRepayNow(uint256)": "add85f7d",
			"launchProjects(address,uint256)": "dbbc7a84",
			"projects(uint256)": "107046bd",
			"repay(uint256)": "371fd8e6",
			"revocateProject(uint256)": "300b949f",
			"test()": "f8a8fd6d",
			"users(address)": "a87430ba"
		}
	},
	"abi": [
		{
			"inputs": [
				{
					"internalType": "uint256",
					"name": "",
					"type": "uint256"
				},
				{
					"internalType": "uint256",
					"name": "",
					"type": "uint256"
				}
			],
			"name": "bb",
			"outputs": [
				{
					"internalType": "uint256",
					"name": "",
					"type": "uint256"
				}
			],
			"stateMutability": "view",
			"type": "function"
		},
		{
			"inputs": [
				{
					"internalType": "uint256",
					"name": "",
					"type": "uint256"
				},
				{
					"internalType": "uint256",
					"name": "",
					"type": "uint256"
				}
			],
			"name": "bills",
			"outputs": [
				{
					"internalType": "uint256",
					"name": "projectId",
					"type": "uint256"
				},
				{
					"internalType": "uint256",
					"name": "startTime",
					"type": "uint256"
				},
				{
					"internalType": "uint256",
					"name": "principal",
					"type": "uint256"
				},
				{
					"internalType": "uint256",
					"name": "interest",
					"type": "uint256"
				},
				{
					"internalType": "uint256",
					"name": "repaid",
					"type": "uint256"
				}
			],
			"stateMutability": "view",
			"type": "function"
		},
		{
			"inputs": [
				{
					"internalType": "uint256",
					"name": "pid",
					"type": "uint256"
				}
			],
			"name": "contribute",
			"outputs": [],
			"stateMutability": "payable",
			"type": "function"
		},
		{
			"inputs": [
				{
					"internalType": "address",
					"name": "",
					"type": "address"
				},
				{
					"internalType": "uint256",
					"name": "",
					"type": "uint256"
				}
			],
			"name": "contributeProjects",
			"outputs": [
				{
					"internalType": "uint256",
					"name": "",
					"type": "uint256"
				}
			],
			"stateMutability": "view",
			"type": "function"
		},
		{
			"inputs": [
				{
					"internalType": "uint256",
					"name": "",
					"type": "uint256"
				},
				{
					"internalType": "uint256",
					"name": "",
					"type": "uint256"
				}
			],
			"name": "contribution",
			"outputs": [
				{
					"internalType": "address",
					"name": "investor",
					"type": "address"
				},
				{
					"internalType": "uint256",
					"name": "amount",
					"type": "uint256"
				},
				{
					"internalType": "uint256",
					"name": "time",
					"type": "uint256"
				}
			],
			"stateMutability": "view",
			"type": "function"
		},
		{
			"inputs": [
				{
					"internalType": "uint256",
					"name": "_amount",
					"type": "uint256"
				},
				{
					"internalType": "uint256",
					"name": "_rate",
					"type": "uint256"
				},
				{
					"internalType": "uint8",
					"name": "_term",
					"type": "uint8"
				},
				{
					"internalType": "uint256",
					"name": "_collectEndTime",
					"type": "uint256"
				},
				{
					"internalType": "uint8",
					"name": "_repayMethod",
					"type": "uint8"
				}
			],
			"name": "createProject",
			"outputs": [],
			"stateMutability": "nonpayable",
			"type": "function"
		},
		{
			"inputs": [
				{
					"internalType": "address",
					"name": "",
					"type": "address"
				}
			],
			"name": "creditScore",
			"outputs": [
				{
					"internalType": "uint256",
					"name": "",
					"type": "uint256"
				}
			],
			"stateMutability": "view",
			"type": "function"
		},
		{
			"inputs": [
				{
					"internalType": "uint256",
					"name": "pid",
					"type": "uint256"
				}
			],
			"name": "getAmountNeedRepayNow",
			"outputs": [
				{
					"internalType": "uint256",
					"name": "",
					"type": "uint256"
				}
			],
			"stateMutability": "view",
			"type": "function"
		},
		{
			"inputs": [
				{
					"internalType": "address",
					"name": "",
					"type": "address"
				},
				{
					"internalType": "uint256",
					"name": "",
					"type": "uint256"
				}
			],
			"name": "launchProjects",
			"outputs": [
				{
					"internalType": "uint256",
					"name": "",
					"type": "uint256"
				}
			],
			"stateMutability": "view",
			"type": "function"
		},
		{
			"inputs": [
				{
					"internalType": "uint256",
					"name": "",
					"type": "uint256"
				}
			],
			"name": "projects",
			"outputs": [
				{
					"internalType": "uint256",
					"name": "amount",
					"type": "uint256"
				},
				{
					"internalType": "uint256",
					"name": "rate",
					"type": "uint256"
				},
				{
					"internalType": "uint8",
					"name": "term",
					"type": "uint8"
				},
				{
					"internalType": "uint256",
					"name": "collectEndTime",
					"type": "uint256"
				},
				{
					"internalType": "uint8",
					"name": "repayMethod",
					"type": "uint8"
				},
				{
					"internalType": "uint8",
					"name": "status",
					"type": "uint8"
				},
				{
					"internalType": "address",
					"name": "launcher",
					"type": "address"
				},
				{
					"internalType": "uint256",
					"name": "collected",
					"type": "uint256"
				}
			],
			"stateMutability": "view",
			"type": "function"
		},
		{
			"inputs": [
				{
					"internalType": "uint256",
					"name": "pid",
					"type": "uint256"
				}
			],
			"name": "repay",
			"outputs": [],
			"stateMutability": "payable",
			"type": "function"
		},
		{
			"inputs": [
				{
					"internalType": "uint256",
					"name": "pid",
					"type": "uint256"
				}
			],
			"name": "revocateProject",
			"outputs": [],
			"stateMutability": "nonpayable",
			"type": "function"
		},
		{
			"inputs": [],
			"name": "test",
			"outputs": [
				{
					"internalType": "int128",
					"name": "",
					"type": "int128"
				}
			],
			"stateMutability": "view",
			"type": "function"
		},
		{
			"inputs": [
				{
					"internalType": "address",
					"name": "",
					"type": "address"
				}
			],
			"name": "users",
			"outputs": [
				{
					"internalType": "bool",
					"name": "",
					"type": "bool"
				}
			],
			"stateMutability": "view",
			"type": "function"
		},
		{
			"stateMutability": "payable",
			"type": "receive"
		}
	]
}