{
	"data": {
		"bytecode": {
			"linkReferences": {},
			"object": "6080604052348015600e575f5ffd5b50612e888061001c5f395ff3fe6080604052600436106100e0575f3560e01c8063b43952c41161007e578063cea3ec1511610058578063cea3ec15146102e4578063dbbc7a8414610320578063f09621511461035c578063f7e590ee1461039c576100e7565b8063b43952c414610264578063c1cbbca7146102a0578063cde128db146102bc576100e7565b8063371fd8e6116100ba578063371fd8e614610192578063a87430ba146101ae578063add85f7d146101ea578063b12d02fc14610226576100e7565b8063107046bd146100eb578063259ba3eb1461012e578063300b949f1461016a576100e7565b366100e757005b5f5ffd5b3480156100f6575f5ffd5b50610111600480360381019061010c9190611e02565b6103d8565b604051610125989796959493929190611e96565b60405180910390f35b348015610139575f5ffd5b50610154600480360381019061014f9190611f12565b610470565b6040516101619190611f50565b60405180910390f35b348015610175575f5ffd5b50610190600480360381019061018b9190611e02565b61049b565b005b6101ac60048036038101906101a79190611e02565b61078a565b005b3480156101b9575f5ffd5b506101d460048036038101906101cf9190611f93565b61089a565b6040516101e19190611fd8565b60405180910390f35b3480156101f5575f5ffd5b50610210600480360381019061020b9190611e02565b6108b6565b60405161021d9190611f50565b60405180910390f35b348015610231575f5ffd5b5061024c60048036038101906102479190611f12565b6108bf565b60405161025b93929190611ff1565b60405180910390f35b34801561026f575f5ffd5b5061028a60048036038101906102859190611e02565b61091e565b6040516102979190612143565b60405180910390f35b6102ba60048036038101906102b59190611e02565b610a8c565b005b3480156102c7575f5ffd5b506102e260048036038101906102dd919061218d565b610d70565b005b3480156102ef575f5ffd5b5061030a60048036038101906103059190612204565b6111c9565b6040516103179190611f50565b60405180910390f35b34801561032b575f5ffd5b5061034660048036038101906103419190612204565b6111f4565b6040516103539190611f50565b60405180910390f35b348015610367575f5ffd5b50610382600480360381019061037d9190611f12565b61121f565b604051610393959493929190612242565b60405180910390f35b3480156103a7575f5ffd5b506103c260048036038101906103bd9190611f93565b61126b565b6040516103cf9190611f50565b60405180910390f35b600281815481106103e7575f80fd5b905f5260205f2090600602015f91509050805f015490806001015490806002015f9054906101000a900460ff1690806003015490806004015f9054906101000a900460ff16908060040160019054906101000a900460ff16908060040160029054906101000a900473ffffffffffffffffffffffffffffffffffffffff16908060050154905088565b6005602052815f5260405f208181548110610489575f80fd5b905f5260205f20015f91509150505481565b5f600282815481106104b0576104af612293565b5b905f5260205f20906006020190503373ffffffffffffffffffffffffffffffffffffffff168160040160029054906101000a900473ffffffffffffffffffffffffffffffffffffffff1673ffffffffffffffffffffffffffffffffffffffff1614610550576040517f08c379a000000000000000000000000000000000000000000000000000000000815260040161054790612340565b60405180910390fd5b60018160040160019054906101000a900460ff1660ff16146105a7576040517f08c379a000000000000000000000000000000000000000000000000000000000815260040161059e906123ce565b60405180910390fd5b5f60035f8481526020019081526020015f2090505f5f90505b8180549050811015610766575f8282815481106105e0576105df612293565b5b905f5260205f2090600302015f015f9054906101000a900473ffffffffffffffffffffffffffffffffffffffff1673ffffffffffffffffffffffffffffffffffffffff1683838154811061063757610636612293565b5b905f5260205f2090600302016001015460405161065390612419565b5f6040518083038185875af1925050503d805f811461068d576040519150601f19603f3d011682016040523d82523d5f602084013e610692565b606091505b50509050808383815481106106aa576106a9612293565b5b905f5260205f2090600302015f015f9054906101000a900473ffffffffffffffffffffffffffffffffffffffff166040516020016106e89190612472565b604051602081830303815290604052604051602001610707919061252a565b60405160208183030381529060405290610757576040517f08c379a000000000000000000000000000000000000000000000000000000000815260040161074e91906125a6565b60405180910390fd5b505080806001019150506105c0565b5060038260040160016101000a81548160ff021916908360ff160217905550505050565b5f6002828154811061079f5761079e612293565b5b905f5260205f209060060201905060028160040160019054906101000a900460ff1660ff1614610804576040517f08c379a00000000000000000000000000000000000000000000000000000000081526004016107fb9061265c565b60405180910390fd5b3373ffffffffffffffffffffffffffffffffffffffff168160040160029054906101000a900473ffffffffffffffffffffffffffffffffffffffff1673ffffffffffffffffffffffffffffffffffffffff1614610896576040517f08c379a000000000000000000000000000000000000000000000000000000000815260040161088d906126ea565b60405180910390fd5b5050565b5f602052805f5260405f205f915054906101000a900460ff1681565b5f819050919050565b6003602052815f5260405f2081815481106108d8575f80fd5b905f5260205f2090600302015f9150915050805f015f9054906101000a900473ffffffffffffffffffffffffffffffffffffffff16908060010154908060020154905083565b60605f5f90505b60045f8481526020019081526020015f20805490508110156109ef576109e260045f8581526020019081526020015f20828154811061096757610966612293565b5b905f5260205f2090600502016001015460045f8681526020019081526020015f20838154811061099a57610999612293565b5b905f5260205f2090600502016002015460045f8781526020019081526020015f2084815481106109cd576109cc612293565b5b905f5260205f20906005020160030154611280565b8080600101915050610925565b5060045f8381526020019081526020015f20805480602002602001604051908101604052809291908181526020015f905b82821015610a81578382905f5260205f2090600502016040518060a00160405290815f820154815260200160018201548152602001600282015481526020016003820154815260200160048201548152505081526020019060010190610a20565b505050509050919050565b5f60028281548110610aa157610aa0612293565b5b905f5260205f209060060201905060018160040160019054906101000a900460ff1660ff1614610b06576040517f08c379a0000000000000000000000000000000000000000000000000000000008152600401610afd90612778565b60405180910390fd5b3373ffffffffffffffffffffffffffffffffffffffff168160040160029054906101000a900473ffffffffffffffffffffffffffffffffffffffff1673ffffffffffffffffffffffffffffffffffffffff1603610b98576040517f08c379a0000000000000000000000000000000000000000000000000000000008152600401610b8f90612806565b60405180910390fd5b5f3411610bda576040517f08c379a0000000000000000000000000000000000000000000000000000000008152600401610bd19061286e565b60405180910390fd5b8060050154815f0154610bed91906128b9565b341115610c2f576040517f08c379a0000000000000000000000000000000000000000000000000000000008152600401610c269061295c565b60405180910390fd5b60035f8381526020019081526020015f2060405180606001604052803373ffffffffffffffffffffffffffffffffffffffff16815260200134815260200142815250908060018154018082558091505060019003905f5260205f2090600302015f909190919091505f820151815f015f6101000a81548173ffffffffffffffffffffffffffffffffffffffff021916908373ffffffffffffffffffffffffffffffffffffffff1602179055506020820151816001015560408201518160020155505034816005015f828254610d04919061297a565b9250508190555060075f3373ffffffffffffffffffffffffffffffffffffffff1673ffffffffffffffffffffffffffffffffffffffff1681526020019081526020015f2082908060018154018082558091505060019003905f5260205f20015f90919091909150555050565b5f8511610db2576040517f08c379a0000000000000000000000000000000000000000000000000000000008152600401610da9906129f7565b60405180910390fd5b5f8360ff1611610df7576040517f08c379a0000000000000000000000000000000000000000000000000000000008152600401610dee90612a5f565b60405180910390fd5b6201518042610e06919061297a565b8211610e47576040517f08c379a0000000000000000000000000000000000000000000000000000000008152600401610e3e90612aed565b60405180910390fd5b60018160ff1614610e8d576040517f08c379a0000000000000000000000000000000000000000000000000000000008152600401610e8490612b55565b60405180910390fd5b60026040518061010001604052808781526020018681526020018560ff1681526020018481526020018360ff168152602001600160ff1681526020013373ffffffffffffffffffffffffffffffffffffffff1681526020015f815250908060018154018082558091505060019003905f5260205f2090600602015f909190919091505f820151815f0155602082015181600101556040820151816002015f6101000a81548160ff021916908360ff160217905550606082015181600301556080820151816004015f6101000a81548160ff021916908360ff16021790555060a08201518160040160016101000a81548160ff021916908360ff16021790555060c08201518160040160026101000a81548173ffffffffffffffffffffffffffffffffffffffff021916908373ffffffffffffffffffffffffffffffffffffffff16021790555060e0820151816005015550505f6001600280549050610ff291906128b9565b90505f610ffe8761131f565b90505f61101e61100d8861131f565b611019620f424061131f565b611340565b90505f6110348261102f600c6113c5565b611340565b90505f61104284838a611412565b90505f60045f8781526020019081526020015f2090505f8590505f600190505b8a60ff168111611159575f6110778387611486565b90505f61108486836114ef565b90505f6110918d85611554565b9050856040518060a001604052808d81526020018381526020016110b485611633565b67ffffffffffffffff1681526020016110cc86611633565b67ffffffffffffffff1681526020015f815250908060018154018082558091505060019003905f5260205f2090600502015f909190919091505f820151815f015560208201518160010155604082015181600201556060820151816003015560808201518160040155505061114185886114ef565b9450505050808061115190612b73565b915050611062565b5060065f3373ffffffffffffffffffffffffffffffffffffffff1673ffffffffffffffffffffffffffffffffffffffff1681526020019081526020015f2087908060018154018082558091505060019003905f5260205f20015f9091909190915055505050505050505050505050565b6007602052815f5260405f2081815481106111e2575f80fd5b905f5260205f20015f91509150505481565b6006602052815f5260405f20818154811061120d575f80fd5b905f5260205f20015f91509150505481565b6004602052815f5260405f208181548110611238575f80fd5b905f5260205f2090600502015f9150915050805f0154908060010154908060020154908060030154908060040154905085565b6001602052805f5260405f205f915090505481565b61131a83838360405160240161129893929190612bba565b6040516020818303038152906040527fd1ed7a3c000000000000000000000000000000000000000000000000000000007bffffffffffffffffffffffffffffffffffffffffffffffffffffffff19166020820180517bffffffffffffffffffffffffffffffffffffffffffffffffffffffff8381831617835250505050611652565b505050565b5f677fffffffffffffff821115611334575f5ffd5b604082901b9050919050565b5f5f82600f0b0361134f575f5ffd5b5f82600f0b604085600f0b901b8161136a57611369612bef565b5b0590507fffffffffffffffffffffffffffffffff80000000000000000000000000000000600f0b81121580156113b357506f7fffffffffffffffffffffffffffffff600f0b8113155b6113bb575f5ffd5b8091505092915050565b5f7fffffffffffffffffffffffffffffffffffffffffffffffff800000000000000082121580156113fe5750677fffffffffffffff8213155b611406575f5ffd5b604082901b9050919050565b5f5f61142761142160016113c5565b8561166c565b90505f611437828560ff166116d1565b90505f6114448787611486565b90505f6114518284611486565b90505f6114678461146260016113c5565b6114ef565b90505f6114748383611340565b90508096505050505050509392505050565b5f5f604083600f0b85600f0b02901d90507fffffffffffffffffffffffffffffffff80000000000000000000000000000000600f0b81121580156114dd57506f7fffffffffffffffffffffffffffffff600f0b8113155b6114e5575f5ffd5b8091505092915050565b5f5f82600f0b84600f0b0390507fffffffffffffffffffffffffffffffff80000000000000000000000000000000600f0b811215801561154257506f7fffffffffffffffffffffffffffffff600f0b8113155b61154a575f5ffd5b8091505092915050565b5f5f5f5f61156f620151808761156a9190612c1c565b6119d6565b9250925092508482611581919061297a565b9150600c60018361159291906128b9565b61159c9190612c1c565b836115a7919061297a565b92506001600c6001846115ba91906128b9565b6115c49190612c4c565b6115ce919061297a565b91505f6115db8484611b6e565b9050808211156115e9578091505b62015180876115f89190612c4c565b62015180611607868686611bf8565b6116119190612c7c565b61161b919061297a565b945086851015611629575f5ffd5b5050505092915050565b5f5f82600f0b1215611643575f5ffd5b604082600f0b901d9050919050565b61166981611661611d51611d70565b63ffffffff16565b50565b5f5f82600f0b84600f0b0190507fffffffffffffffffffffffffffffffff80000000000000000000000000000000600f0b81121580156116bf57506f7fffffffffffffffffffffffffffffff600f0b8113155b6116c7575f5ffd5b8091505092915050565b5f5f5f84600f0b1280156116e757506001808416145b90505f5f85600f0b126116fa57846116fe565b845f035b6fffffffffffffffffffffffffffffffff1690505f70010000000000000000000000000000000090506801000000000000000082116117d257603f82901b91505b5f85146117c6575f600186161461175a57607f828202901c90505b607f828302901c91505f600286161461177757607f828202901c90505b607f828302901c91505f600486161461179457607f828202901c90505b607f828302901c91505f60088616146117b157607f828202901c90505b607f828302901c9150600485901c945061173f565b604081901c9050611969565b5f603f90506c010000000000000000000000008310156117fa57602083901b92506020810390505b6e01000000000000000000000000000083101561181f57601083901b92506010810390505b6f0100000000000000000000000000000083101561184557600883901b92506008810390505b6f1000000000000000000000000000000083101561186b57600483901b92506004810390505b6f4000000000000000000000000000000083101561189157600283901b92506002810390505b6f800000000000000000000000000000008310156118b757600183901b92506001810390505b5f5f90505b5f871461195157604082106118cf575f5ffd5b5f600188161461190f57607f848402901c9250818101905070010000000000000000000000000000000083111561190e57600183901c92506001810190505b5b607f848502901c9350600182901b9150700100000000000000000000000000000000841061194557600184901c93506001820191505b600187901c96506118bc565b6040811061195d575f5ffd5b8060400383901c925050505b5f836119755781611979565b815f035b90507fffffffffffffffffffffffffffffffff80000000000000000000000000000000600f0b81121580156119c157506f7fffffffffffffffffffffffffffffff600f0b8113155b6119c9575f5ffd5b8094505050505092915050565b5f5f5f5f8490505f62253d8c62010bd9836119f19190612cc6565b6119fb9190612cc6565b90505f62023ab1826004611a0f9190612d07565b611a199190612d7d565b9050600460038262023ab1611a2e9190612d07565b611a389190612cc6565b611a429190612d7d565b82611a4d9190612de5565b91505f62164b09600184611a619190612cc6565b610fa0611a6e9190612d07565b611a789190612d7d565b9050601f6004826105b5611a8c9190612d07565b611a969190612d7d565b84611aa19190612de5565b611aab9190612cc6565b92505f61098f846050611abe9190612d07565b611ac89190612d7d565b90505f60508261098f611adb9190612d07565b611ae59190612d7d565b85611af09190612de5565b9050600b82611aff9190612d7d565b945084600c611b0e9190612d07565b600283611b1b9190612cc6565b611b259190612de5565b91508483603186611b369190612de5565b6064611b429190612d07565b611b4c9190612cc6565b611b569190612cc6565b92508298508197508096505050505050509193909250565b5f6001821480611b7e5750600382145b80611b895750600582145b80611b945750600782145b80611b9f5750600882145b80611baa5750600a82145b80611bb55750600c82145b15611bc357601f9050611bf2565b60028214611bd457601e9050611bf1565b611bdd83611d7b565b611be857601c611beb565b601d5b60ff1690505b5b92915050565b5f6107b2841015611c07575f5ffd5b5f8490505f8490505f8490505f62253d8c60046064600c600e87611c2b9190612de5565b611c359190612d7d565b61132488611c439190612cc6565b611c4d9190612cc6565b611c579190612d7d565b6003611c639190612d07565b611c6d9190612d7d565b600c80600c600e88611c7f9190612de5565b611c899190612d7d565b611c939190612d07565b600287611ca09190612de5565b611caa9190612de5565b61016f611cb79190612d07565b611cc19190612d7d565b6004600c600e88611cd29190612de5565b611cdc9190612d7d565b6112c089611cea9190612cc6565b611cf49190612cc6565b6105b5611d019190612d07565b611d0b9190612d7d565b617d4b86611d199190612de5565b611d239190612cc6565b611d2d9190612cc6565b611d379190612de5565b611d419190612de5565b9050809450505050509392505050565b5f6a636f6e736f6c652e6c6f6790505f5f835160208501845afa505050565b611dc1819050919050565b5f5f600483611d8a9190612c4c565b148015611da357505f606483611da09190612c4c565b14155b80611dba57505f61019083611db89190612c4c565b145b9050919050565b611dc9612e25565b565b5f5ffd5b5f819050919050565b611de181611dcf565b8114611deb575f5ffd5b50565b5f81359050611dfc81611dd8565b92915050565b5f60208284031215611e1757611e16611dcb565b5b5f611e2484828501611dee565b91505092915050565b611e3681611dcf565b82525050565b5f60ff82169050919050565b611e5181611e3c565b82525050565b5f73ffffffffffffffffffffffffffffffffffffffff82169050919050565b5f611e8082611e57565b9050919050565b611e9081611e76565b82525050565b5f61010082019050611eaa5f83018b611e2d565b611eb7602083018a611e2d565b611ec46040830189611e48565b611ed16060830188611e2d565b611ede6080830187611e48565b611eeb60a0830186611e48565b611ef860c0830185611e87565b611f0560e0830184611e2d565b9998505050505050505050565b5f5f60408385031215611f2857611f27611dcb565b5b5f611f3585828601611dee565b9250506020611f4685828601611dee565b9150509250929050565b5f602082019050611f635f830184611e2d565b92915050565b611f7281611e76565b8114611f7c575f5ffd5b50565b5f81359050611f8d81611f69565b92915050565b5f60208284031215611fa857611fa7611dcb565b5b5f611fb584828501611f7f565b91505092915050565b5f8115159050919050565b611fd281611fbe565b82525050565b5f602082019050611feb5f830184611fc9565b92915050565b5f6060820190506120045f830186611e87565b6120116020830185611e2d565b61201e6040830184611e2d565b949350505050565b5f81519050919050565b5f82825260208201905092915050565b5f819050602082019050919050565b61205881611dcf565b82525050565b60a082015f8201516120725f85018261204f565b506020820151612085602085018261204f565b506040820151612098604085018261204f565b5060608201516120ab606085018261204f565b5060808201516120be608085018261204f565b50505050565b5f6120cf838361205e565b60a08301905092915050565b5f602082019050919050565b5f6120f182612026565b6120fb8185612030565b935061210683612040565b805f5b8381101561213657815161211d88826120c4565b9750612128836120db565b925050600181019050612109565b5085935050505092915050565b5f6020820190508181035f83015261215b81846120e7565b905092915050565b61216c81611e3c565b8114612176575f5ffd5b50565b5f8135905061218781612163565b92915050565b5f5f5f5f5f60a086880312156121a6576121a5611dcb565b5b5f6121b388828901611dee565b95505060206121c488828901611dee565b94505060406121d588828901612179565b93505060606121e688828901611dee565b92505060806121f788828901612179565b9150509295509295909350565b5f5f6040838503121561221a57612219611dcb565b5b5f61222785828601611f7f565b925050602061223885828601611dee565b9150509250929050565b5f60a0820190506122555f830188611e2d565b6122626020830187611e2d565b61226f6040830186611e2d565b61227c6060830185611e2d565b6122896080830184611e2d565b9695505050505050565b7f4e487b71000000000000000000000000000000000000000000000000000000005f52603260045260245ffd5b5f82825260208201905092915050565b7f4f6e6c79207468652070726f6a65637420696e69746961746f722063616e20635f8201527f616e63656c207468652070726f6a656374000000000000000000000000000000602082015250565b5f61232a6031836122c0565b9150612335826122d0565b604082019050919050565b5f6020820190508181035f8301526123578161231e565b9050919050565b7f4f6e6c792070726f6a6563747320647572696e67207468652066756e64696e675f8201527f20706572696f642063616e2062652063616e63656c6c65640000000000000000602082015250565b5f6123b86038836122c0565b91506123c38261235e565b604082019050919050565b5f6020820190508181035f8301526123e5816123ac565b9050919050565b5f81905092915050565b50565b5f6124045f836123ec565b915061240f826123f6565b5f82019050919050565b5f612423826123f9565b9150819050919050565b5f8160601b9050919050565b5f6124438261242d565b9050919050565b5f61245482612439565b9050919050565b61246c61246782611e76565b61244a565b82525050565b5f61247d828461245b565b60148201915081905092915050565b7f7472616e7366657220746f200000000000000000000000000000000000000000815250565b5f81519050919050565b5f81905092915050565b8281835e5f83830152505050565b5f6124de826124b2565b6124e881856124bc565b93506124f88185602086016124c6565b80840191505092915050565b7f206661696c202100000000000000000000000000000000000000000000000000815250565b5f6125348261248c565b600c8201915061254482846124d4565b915061254f82612504565b60078201915081905092915050565b5f601f19601f8301169050919050565b5f612578826124b2565b61258281856122c0565b93506125928185602086016124c6565b61259b8161255e565b840191505092915050565b5f6020820190508181035f8301526125be818461256e565b905092915050565b7f4f6e6c792070726f6a656374732074686174206861766520656e7465726564205f8201527f7468652072657061796d656e7420706572696f642063616e206265207265706160208201527f69642e0000000000000000000000000000000000000000000000000000000000604082015250565b5f6126466043836122c0565b9150612651826125c6565b606082019050919050565b5f6020820190508181035f8301526126738161263a565b9050919050565b7f4f6e6c79207468652070726f6a65637420696e69746961746f722063616e20725f8201527f6570617920746865206c6f616e00000000000000000000000000000000000000602082015250565b5f6126d4602d836122c0565b91506126df8261267a565b604082019050919050565b5f6020820190508181035f830152612701816126c8565b9050919050565b7f4f6e6c792070726f6a6563747320696e207468652066756e64696e67207068615f8201527f73652063616e20726563656976652066756e64696e6700000000000000000000602082015250565b5f6127626036836122c0565b915061276d82612708565b604082019050919050565b5f6020820190508181035f83015261278f81612756565b9050919050565b7f50726f6a656374206c61756e6368657220617265206e6f7420616c6c6f7765645f8201527f20746f20636f6e74726962757465206361706974616c00000000000000000000602082015250565b5f6127f06036836122c0565b91506127fb82612796565b604082019050919050565b5f6020820190508181035f83015261281d816127e4565b9050919050565b7f416d6f756e74206d75737420626967676572207468616e2030000000000000005f82015250565b5f6128586019836122c0565b915061286382612824565b602082019050919050565b5f6020820190508181035f8301526128858161284c565b9050919050565b7f4e487b71000000000000000000000000000000000000000000000000000000005f52601160045260245ffd5b5f6128c382611dcf565b91506128ce83611dcf565b92508282039050818111156128e6576128e561288c565b5b92915050565b7f54686520616d6f756e74206f662066756e647320636f6e7472696275746564205f8201527f65786365656473207468652070726f6a65637420726571756972656d656e7473602082015250565b5f6129466040836122c0565b9150612951826128ec565b604082019050919050565b5f6020820190508181035f8301526129738161293a565b9050919050565b5f61298482611dcf565b915061298f83611dcf565b92508282019050808211156129a7576129a661288c565b5b92915050565b7f616d6f756e74206d75737420626967676572207468616e2030000000000000005f82015250565b5f6129e16019836122c0565b91506129ec826129ad565b602082019050919050565b5f6020820190508181035f830152612a0e816129d5565b9050919050565b7f7465726d206d75737420626967676572207468616e20300000000000000000005f82015250565b5f612a496017836122c0565b9150612a5482612a15565b602082019050919050565b5f6020820190508181035f830152612a7681612a3d565b9050919050565b7f636f6c6c65637420656e642074696d65206d75737420626520677265617465725f8201527f207468616e20323420686f757273000000000000000000000000000000000000602082015250565b5f612ad7602e836122c0565b9150612ae282612a7d565b604082019050919050565b5f6020820190508181035f830152612b0481612acb565b9050919050565b7f7265706179206d6574686f64206d7573742062652031000000000000000000005f82015250565b5f612b3f6016836122c0565b9150612b4a82612b0b565b602082019050919050565b5f6020820190508181035f830152612b6c81612b33565b9050919050565b5f612b7d82611dcf565b91507fffffffffffffffffffffffffffffffffffffffffffffffffffffffffffffffff8203612baf57612bae61288c565b5b600182019050919050565b5f606082019050612bcd5f830186611e2d565b612bda6020830185611e2d565b612be76040830184611e2d565b949350505050565b7f4e487b71000000000000000000000000000000000000000000000000000000005f52601260045260245ffd5b5f612c2682611dcf565b9150612c3183611dcf565b925082612c4157612c40612bef565b5b828204905092915050565b5f612c5682611dcf565b9150612c6183611dcf565b925082612c7157612c70612bef565b5b828206905092915050565b5f612c8682611dcf565b9150612c9183611dcf565b9250828202612c9f81611dcf565b91508282048414831517612cb657612cb561288c565b5b5092915050565b5f819050919050565b5f612cd082612cbd565b9150612cdb83612cbd565b92508282019050828112155f8312168382125f841215161715612d0157612d0061288c565b5b92915050565b5f612d1182612cbd565b9150612d1c83612cbd565b9250828202612d2a81612cbd565b91507f800000000000000000000000000000000000000000000000000000000000000084145f84121615612d6157612d6061288c565b5b8282058414831517612d7657612d7561288c565b5b5092915050565b5f612d8782612cbd565b9150612d9283612cbd565b925082612da257612da1612bef565b5b60015f0383147f800000000000000000000000000000000000000000000000000000000000000083141615612dda57612dd961288c565b5b828205905092915050565b5f612def82612cbd565b9150612dfa83612cbd565b925082820390508181125f8412168282135f851215161715612e1f57612e1e61288c565b5b92915050565b7f4e487b71000000000000000000000000000000000000000000000000000000005f52605160045260245ffdfea2646970667358221220fa55e4c8a7460fb9acc9dc0551a9a4277162b33f325c0d5c0aefe604554ebb2364736f6c634300081b0033",
			"opcodes": "PUSH1 0x80 PUSH1 0x40 MSTORE CALLVALUE DUP1 ISZERO PUSH1 0xE JUMPI PUSH0 PUSH0 REVERT JUMPDEST POP PUSH2 0x2E88 DUP1 PUSH2 0x1C PUSH0 CODECOPY PUSH0 RETURN INVALID PUSH1 0x80 PUSH1 0x40 MSTORE PUSH1 0x4 CALLDATASIZE LT PUSH2 0xE0 JUMPI PUSH0 CALLDATALOAD PUSH1 0xE0 SHR DUP1 PUSH4 0xB43952C4 GT PUSH2 0x7E JUMPI DUP1 PUSH4 0xCEA3EC15 GT PUSH2 0x58 JUMPI DUP1 PUSH4 0xCEA3EC15 EQ PUSH2 0x2E4 JUMPI DUP1 PUSH4 0xDBBC7A84 EQ PUSH2 0x320 JUMPI DUP1 PUSH4 0xF0962151 EQ PUSH2 0x35C JUMPI DUP1 PUSH4 0xF7E590EE EQ PUSH2 0x39C JUMPI PUSH2 0xE7 JUMP JUMPDEST DUP1 PUSH4 0xB43952C4 EQ PUSH2 0x264 JUMPI DUP1 PUSH4 0xC1CBBCA7 EQ PUSH2 0x2A0 JUMPI DUP1 PUSH4 0xCDE128DB EQ PUSH2 0x2BC JUMPI PUSH2 0xE7 JUMP JUMPDEST DUP1 PUSH4 0x371FD8E6 GT PUSH2 0xBA JUMPI DUP1 PUSH4 0x371FD8E6 EQ PUSH2 0x192 JUMPI DUP1 PUSH4 0xA87430BA EQ PUSH2 0x1AE JUMPI DUP1 PUSH4 0xADD85F7D EQ PUSH2 0x1EA JUMPI DUP1 PUSH4 0xB12D02FC EQ PUSH2 0x226 JUMPI PUSH2 0xE7 JUMP JUMPDEST DUP1 PUSH4 0x107046BD EQ PUSH2 0xEB JUMPI DUP1 PUSH4 0x259BA3EB EQ PUSH2 0x12E JUMPI DUP1 PUSH4 0x300B949F EQ PUSH2 0x16A JUMPI PUSH2 0xE7 JUMP JUMPDEST CALLDATASIZE PUSH2 0xE7 JUMPI STOP JUMPDEST PUSH0 PUSH0 REVERT JUMPDEST CALLVALUE DUP1 ISZERO PUSH2 0xF6 JUMPI PUSH0 PUSH0 REVERT JUMPDEST POP PUSH2 0x111 PUSH1 0x4 DUP1 CALLDATASIZE SUB DUP2 ADD SWAP1 PUSH2 0x10C SWAP2 SWAP1 PUSH2 0x1E02 JUMP JUMPDEST PUSH2 0x3D8 JUMP JUMPDEST PUSH1 0x40 MLOAD PUSH2 0x125 SWAP9 SWAP8 SWAP7 SWAP6 SWAP5 SWAP4 SWAP3 SWAP2 SWAP1 PUSH2 0x1E96 JUMP JUMPDEST PUSH1 0x40 MLOAD DUP1 SWAP2 SUB SWAP1 RETURN JUMPDEST CALLVALUE DUP1 ISZERO PUSH2 0x139 JUMPI PUSH0 PUSH0 REVERT JUMPDEST POP PUSH2 0x154 PUSH1 0x4 DUP1 CALLDATASIZE SUB DUP2 ADD SWAP1 PUSH2 0x14F SWAP2 SWAP1 PUSH2 0x1F12 JUMP JUMPDEST PUSH2 0x470 JUMP JUMPDEST PUSH1 0x40 MLOAD PUSH2 0x161 SWAP2 SWAP1 PUSH2 0x1F50 JUMP JUMPDEST PUSH1 0x40 MLOAD DUP1 SWAP2 SUB SWAP1 RETURN JUMPDEST CALLVALUE DUP1 ISZERO PUSH2 0x175 JUMPI PUSH0 PUSH0 REVERT JUMPDEST POP PUSH2 0x190 PUSH1 0x4 DUP1 CALLDATASIZE SUB DUP2 ADD SWAP1 PUSH2 0x18B SWAP2 SWAP1 PUSH2 0x1E02 JUMP JUMPDEST PUSH2 0x49B JUMP JUMPDEST STOP JUMPDEST PUSH2 0x1AC PUSH1 0x4 DUP1 CALLDATASIZE SUB DUP2 ADD SWAP1 PUSH2 0x1A7 SWAP2 SWAP1 PUSH2 0x1E02 JUMP JUMPDEST PUSH2 0x78A JUMP JUMPDEST STOP JUMPDEST CALLVALUE DUP1 ISZERO PUSH2 0x1B9 JUMPI PUSH0 PUSH0 REVERT JUMPDEST POP PUSH2 0x1D4 PUSH1 0x4 DUP1 CALLDATASIZE SUB DUP2 ADD SWAP1 PUSH2 0x1CF SWAP2 SWAP1 PUSH2 0x1F93 JUMP JUMPDEST PUSH2 0x89A JUMP JUMPDEST PUSH1 0x40 MLOAD PUSH2 0x1E1 SWAP2 SWAP1 PUSH2 0x1FD8 JUMP JUMPDEST PUSH1 0x40 MLOAD DUP1 SWAP2 SUB SWAP1 RETURN JUMPDEST CALLVALUE DUP1 ISZERO PUSH2 0x1F5 JUMPI PUSH0 PUSH0 REVERT JUMPDEST POP PUSH2 0x210 PUSH1 0x4 DUP1 CALLDATASIZE SUB DUP2 ADD SWAP1 PUSH2 0x20B SWAP2 SWAP1 PUSH2 0x1E02 JUMP JUMPDEST PUSH2 0x8B6 JUMP JUMPDEST PUSH1 0x40 MLOAD PUSH2 0x21D SWAP2 SWAP1 PUSH2 0x1F50 JUMP JUMPDEST PUSH1 0x40 MLOAD DUP1 SWAP2 SUB SWAP1 RETURN JUMPDEST CALLVALUE DUP1 ISZERO PUSH2 0x231 JUMPI PUSH0 PUSH0 REVERT JUMPDEST POP PUSH2 0x24C PUSH1 0x4 DUP1 CALLDATASIZE SUB DUP2 ADD SWAP1 PUSH2 0x247 SWAP2 SWAP1 PUSH2 0x1F12 JUMP JUMPDEST PUSH2 0x8BF JUMP JUMPDEST PUSH1 0x40 MLOAD PUSH2 0x25B SWAP4 SWAP3 SWAP2 SWAP1 PUSH2 0x1FF1 JUMP JUMPDEST PUSH1 0x40 MLOAD DUP1 SWAP2 SUB SWAP1 RETURN JUMPDEST CALLVALUE DUP1 ISZERO PUSH2 0x26F JUMPI PUSH0 PUSH0 REVERT JUMPDEST POP PUSH2 0x28A PUSH1 0x4 DUP1 CALLDATASIZE SUB DUP2 ADD SWAP1 PUSH2 0x285 SWAP2 SWAP1 PUSH2 0x1E02 JUMP JUMPDEST PUSH2 0x91E JUMP JUMPDEST PUSH1 0x40 MLOAD PUSH2 0x297 SWAP2 SWAP1 PUSH2 0x2143 JUMP JUMPDEST PUSH1 0x40 MLOAD DUP1 SWAP2 SUB SWAP1 RETURN JUMPDEST PUSH2 0x2BA PUSH1 0x4 DUP1 CALLDATASIZE SUB DUP2 ADD SWAP1 PUSH2 0x2B5 SWAP2 SWAP1 PUSH2 0x1E02 JUMP JUMPDEST PUSH2 0xA8C JUMP JUMPDEST STOP JUMPDEST CALLVALUE DUP1 ISZERO PUSH2 0x2C7 JUMPI PUSH0 PUSH0 REVERT JUMPDEST POP PUSH2 0x2E2 PUSH1 0x4 DUP1 CALLDATASIZE SUB DUP2 ADD SWAP1 PUSH2 0x2DD SWAP2 SWAP1 PUSH2 0x218D JUMP JUMPDEST PUSH2 0xD70 JUMP JUMPDEST STOP JUMPDEST CALLVALUE DUP1 ISZERO PUSH2 0x2EF JUMPI PUSH0 PUSH0 REVERT JUMPDEST POP PUSH2 0x30A PUSH1 0x4 DUP1 CALLDATASIZE SUB DUP2 ADD SWAP1 PUSH2 0x305 SWAP2 SWAP1 PUSH2 0x2204 JUMP JUMPDEST PUSH2 0x11C9 JUMP JUMPDEST PUSH1 0x40 MLOAD PUSH2 0x317 SWAP2 SWAP1 PUSH2 0x1F50 JUMP JUMPDEST PUSH1 0x40 MLOAD DUP1 SWAP2 SUB SWAP1 RETURN JUMPDEST CALLVALUE DUP1 ISZERO PUSH2 0x32B JUMPI PUSH0 PUSH0 REVERT JUMPDEST POP PUSH2 0x346 PUSH1 0x4 DUP1 CALLDATASIZE SUB DUP2 ADD SWAP1 PUSH2 0x341 SWAP2 SWAP1 PUSH2 0x2204 JUMP JUMPDEST PUSH2 0x11F4 JUMP JUMPDEST PUSH1 0x40 MLOAD PUSH2 0x353 SWAP2 SWAP1 PUSH2 0x1F50 JUMP JUMPDEST PUSH1 0x40 MLOAD DUP1 SWAP2 SUB SWAP1 RETURN JUMPDEST CALLVALUE DUP1 ISZERO PUSH2 0x367 JUMPI PUSH0 PUSH0 REVERT JUMPDEST POP PUSH2 0x382 PUSH1 0x4 DUP1 CALLDATASIZE SUB DUP2 ADD SWAP1 PUSH2 0x37D SWAP2 SWAP1 PUSH2 0x1F12 JUMP JUMPDEST PUSH2 0x121F JUMP JUMPDEST PUSH1 0x40 MLOAD PUSH2 0x393 SWAP6 SWAP5 SWAP4 SWAP3 SWAP2 SWAP1 PUSH2 0x2242 JUMP JUMPDEST PUSH1 0x40 MLOAD DUP1 SWAP2 SUB SWAP1 RETURN JUMPDEST CALLVALUE DUP1 ISZERO PUSH2 0x3A7 JUMPI PUSH0 PUSH0 REVERT JUMPDEST POP PUSH2 0x3C2 PUSH1 0x4 DUP1 CALLDATASIZE SUB DUP2 ADD SWAP1 PUSH2 0x3BD SWAP2 SWAP1 PUSH2 0x1F93 JUMP JUMPDEST PUSH2 0x126B JUMP JUMPDEST PUSH1 0x40 MLOAD PUSH2 0x3CF SWAP2 SWAP1 PUSH2 0x1F50 JUMP JUMPDEST PUSH1 0x40 MLOAD DUP1 SWAP2 SUB SWAP1 RETURN JUMPDEST PUSH1 0x2 DUP2 DUP2 SLOAD DUP2 LT PUSH2 0x3E7 JUMPI PUSH0 DUP1 REVERT JUMPDEST SWAP1 PUSH0 MSTORE PUSH1 0x20 PUSH0 KECCAK256 SWAP1 PUSH1 0x6 MUL ADD PUSH0 SWAP2 POP SWAP1 POP DUP1 PUSH0 ADD SLOAD SWAP1 DUP1 PUSH1 0x1 ADD SLOAD SWAP1 DUP1 PUSH1 0x2 ADD PUSH0 SWAP1 SLOAD SWAP1 PUSH2 0x100 EXP SWAP1 DIV PUSH1 0xFF AND SWAP1 DUP1 PUSH1 0x3 ADD SLOAD SWAP1 DUP1 PUSH1 0x4 ADD PUSH0 SWAP1 SLOAD SWAP1 PUSH2 0x100 EXP SWAP1 DIV PUSH1 0xFF AND SWAP1 DUP1 PUSH1 0x4 ADD PUSH1 0x1 SWAP1 SLOAD SWAP1 PUSH2 0x100 EXP SWAP1 DIV PUSH1 0xFF AND SWAP1 DUP1 PUSH1 0x4 ADD PUSH1 0x2 SWAP1 SLOAD SWAP1 PUSH2 0x100 EXP SWAP1 DIV PUSH20 0xFFFFFFFFFFFFFFFFFFFFFFFFFFFFFFFFFFFFFFFF AND SWAP1 DUP1 PUSH1 0x5 ADD SLOAD SWAP1 POP DUP9 JUMP JUMPDEST PUSH1 0x5 PUSH1 0x20 MSTORE DUP2 PUSH0 MSTORE PUSH1 0x40 PUSH0 KECCAK256 DUP2 DUP2 SLOAD DUP2 LT PUSH2 0x489 JUMPI PUSH0 DUP1 REVERT JUMPDEST SWAP1 PUSH0 MSTORE PUSH1 0x20 PUSH0 KECCAK256 ADD PUSH0 SWAP2 POP SWAP2 POP POP SLOAD DUP2 JUMP JUMPDEST PUSH0 PUSH1 0x2 DUP3 DUP2 SLOAD DUP2 LT PUSH2 0x4B0 JUMPI PUSH2 0x4AF PUSH2 0x2293 JUMP JUMPDEST JUMPDEST SWAP1 PUSH0 MSTORE PUSH1 0x20 PUSH0 KECCAK256 SWAP1 PUSH1 0x6 MUL ADD SWAP1 POP CALLER PUSH20 0xFFFFFFFFFFFFFFFFFFFFFFFFFFFFFFFFFFFFFFFF AND DUP2 PUSH1 0x4 ADD PUSH1 0x2 SWAP1 SLOAD SWAP1 PUSH2 0x100 EXP SWAP1 DIV PUSH20 0xFFFFFFFFFFFFFFFFFFFFFFFFFFFFFFFFFFFFFFFF AND PUSH20 0xFFFFFFFFFFFFFFFFFFFFFFFFFFFFFFFFFFFFFFFF AND EQ PUSH2 0x550 JUMPI PUSH1 0x40 MLOAD PUSH32 0x8C379A000000000000000000000000000000000000000000000000000000000 DUP2 MSTORE PUSH1 0x4 ADD PUSH2 0x547 SWAP1 PUSH2 0x2340 JUMP JUMPDEST PUSH1 0x40 MLOAD DUP1 SWAP2 SUB SWAP1 REVERT JUMPDEST PUSH1 0x1 DUP2 PUSH1 0x4 ADD PUSH1 0x1 SWAP1 SLOAD SWAP1 PUSH2 0x100 EXP SWAP1 DIV PUSH1 0xFF AND PUSH1 0xFF AND EQ PUSH2 0x5A7 JUMPI PUSH1 0x40 MLOAD PUSH32 0x8C379A000000000000000000000000000000000000000000000000000000000 DUP2 MSTORE PUSH1 0x4 ADD PUSH2 0x59E SWAP1 PUSH2 0x23CE JUMP JUMPDEST PUSH1 0x40 MLOAD DUP1 SWAP2 SUB SWAP1 REVERT JUMPDEST PUSH0 PUSH1 0x3 PUSH0 DUP5 DUP2 MSTORE PUSH1 0x20 ADD SWAP1 DUP2 MSTORE PUSH1 0x20 ADD PUSH0 KECCAK256 SWAP1 POP PUSH0 PUSH0 SWAP1 POP JUMPDEST DUP2 DUP1 SLOAD SWAP1 POP DUP2 LT ISZERO PUSH2 0x766 JUMPI PUSH0 DUP3 DUP3 DUP2 SLOAD DUP2 LT PUSH2 0x5E0 JUMPI PUSH2 0x5DF PUSH2 0x2293 JUMP JUMPDEST JUMPDEST SWAP1 PUSH0 MSTORE PUSH1 0x20 PUSH0 KECCAK256 SWAP1 PUSH1 0x3 MUL ADD PUSH0 ADD PUSH0 SWAP1 SLOAD SWAP1 PUSH2 0x100 EXP SWAP1 DIV PUSH20 0xFFFFFFFFFFFFFFFFFFFFFFFFFFFFFFFFFFFFFFFF AND PUSH20 0xFFFFFFFFFFFFFFFFFFFFFFFFFFFFFFFFFFFFFFFF AND DUP4 DUP4 DUP2 SLOAD DUP2 LT PUSH2 0x637 JUMPI PUSH2 0x636 PUSH2 0x2293 JUMP JUMPDEST JUMPDEST SWAP1 PUSH0 MSTORE PUSH1 0x20 PUSH0 KECCAK256 SWAP1 PUSH1 0x3 MUL ADD PUSH1 0x1 ADD SLOAD PUSH1 0x40 MLOAD PUSH2 0x653 SWAP1 PUSH2 0x2419 JUMP JUMPDEST PUSH0 PUSH1 0x40 MLOAD DUP1 DUP4 SUB DUP2 DUP6 DUP8 GAS CALL SWAP3 POP POP POP RETURNDATASIZE DUP1 PUSH0 DUP2 EQ PUSH2 0x68D JUMPI PUSH1 0x40 MLOAD SWAP2 POP PUSH1 0x1F NOT PUSH1 0x3F RETURNDATASIZE ADD AND DUP3 ADD PUSH1 0x40 MSTORE RETURNDATASIZE DUP3 MSTORE RETURNDATASIZE PUSH0 PUSH1 0x20 DUP5 ADD RETURNDATACOPY PUSH2 0x692 JUMP JUMPDEST PUSH1 0x60 SWAP2 POP JUMPDEST POP POP SWAP1 POP DUP1 DUP4 DUP4 DUP2 SLOAD DUP2 LT PUSH2 0x6AA JUMPI PUSH2 0x6A9 PUSH2 0x2293 JUMP JUMPDEST JUMPDEST SWAP1 PUSH0 MSTORE PUSH1 0x20 PUSH0 KECCAK256 SWAP1 PUSH1 0x3 MUL ADD PUSH0 ADD PUSH0 SWAP1 SLOAD SWAP1 PUSH2 0x100 EXP SWAP1 DIV PUSH20 0xFFFFFFFFFFFFFFFFFFFFFFFFFFFFFFFFFFFFFFFF AND PUSH1 0x40 MLOAD PUSH1 0x20 ADD PUSH2 0x6E8 SWAP2 SWAP1 PUSH2 0x2472 JUMP JUMPDEST PUSH1 0x40 MLOAD PUSH1 0x20 DUP2 DUP4 SUB SUB DUP2 MSTORE SWAP1 PUSH1 0x40 MSTORE PUSH1 0x40 MLOAD PUSH1 0x20 ADD PUSH2 0x707 SWAP2 SWAP1 PUSH2 0x252A JUMP JUMPDEST PUSH1 0x40 MLOAD PUSH1 0x20 DUP2 DUP4 SUB SUB DUP2 MSTORE SWAP1 PUSH1 0x40 MSTORE SWAP1 PUSH2 0x757 JUMPI PUSH1 0x40 MLOAD PUSH32 0x8C379A000000000000000000000000000000000000000000000000000000000 DUP2 MSTORE PUSH1 0x4 ADD PUSH2 0x74E SWAP2 SWAP1 PUSH2 0x25A6 JUMP JUMPDEST PUSH1 0x40 MLOAD DUP1 SWAP2 SUB SWAP1 REVERT JUMPDEST POP POP DUP1 DUP1 PUSH1 0x1 ADD SWAP2 POP POP PUSH2 0x5C0 JUMP JUMPDEST POP PUSH1 0x3 DUP3 PUSH1 0x4 ADD PUSH1 0x1 PUSH2 0x100 EXP DUP2 SLOAD DUP2 PUSH1 0xFF MUL NOT AND SWAP1 DUP4 PUSH1 0xFF AND MUL OR SWAP1 SSTORE POP POP POP POP JUMP JUMPDEST PUSH0 PUSH1 0x2 DUP3 DUP2 SLOAD DUP2 LT PUSH2 0x79F JUMPI PUSH2 0x79E PUSH2 0x2293 JUMP JUMPDEST JUMPDEST SWAP1 PUSH0 MSTORE PUSH1 0x20 PUSH0 KECCAK256 SWAP1 PUSH1 0x6 MUL ADD SWAP1 POP PUSH1 0x2 DUP2 PUSH1 0x4 ADD PUSH1 0x1 SWAP1 SLOAD SWAP1 PUSH2 0x100 EXP SWAP1 DIV PUSH1 0xFF AND PUSH1 0xFF AND EQ PUSH2 0x804 JUMPI PUSH1 0x40 MLOAD PUSH32 0x8C379A000000000000000000000000000000000000000000000000000000000 DUP2 MSTORE PUSH1 0x4 ADD PUSH2 0x7FB SWAP1 PUSH2 0x265C JUMP JUMPDEST PUSH1 0x40 MLOAD DUP1 SWAP2 SUB SWAP1 REVERT JUMPDEST CALLER PUSH20 0xFFFFFFFFFFFFFFFFFFFFFFFFFFFFFFFFFFFFFFFF AND DUP2 PUSH1 0x4 ADD PUSH1 0x2 SWAP1 SLOAD SWAP1 PUSH2 0x100 EXP SWAP1 DIV PUSH20 0xFFFFFFFFFFFFFFFFFFFFFFFFFFFFFFFFFFFFFFFF AND PUSH20 0xFFFFFFFFFFFFFFFFFFFFFFFFFFFFFFFFFFFFFFFF AND EQ PUSH2 0x896 JUMPI PUSH1 0x40 MLOAD PUSH32 0x8C379A000000000000000000000000000000000000000000000000000000000 DUP2 MSTORE PUSH1 0x4 ADD PUSH2 0x88D SWAP1 PUSH2 0x26EA JUMP JUMPDEST PUSH1 0x40 MLOAD DUP1 SWAP2 SUB SWAP1 REVERT JUMPDEST POP POP JUMP JUMPDEST PUSH0 PUSH1 0x20 MSTORE DUP1 PUSH0 MSTORE PUSH1 0x40 PUSH0 KECCAK256 PUSH0 SWAP2 POP SLOAD SWAP1 PUSH2 0x100 EXP SWAP1 DIV PUSH1 0xFF AND DUP2 JUMP JUMPDEST PUSH0 DUP2 SWAP1 POP SWAP2 SWAP1 POP JUMP JUMPDEST PUSH1 0x3 PUSH1 0x20 MSTORE DUP2 PUSH0 MSTORE PUSH1 0x40 PUSH0 KECCAK256 DUP2 DUP2 SLOAD DUP2 LT PUSH2 0x8D8 JUMPI PUSH0 DUP1 REVERT JUMPDEST SWAP1 PUSH0 MSTORE PUSH1 0x20 PUSH0 KECCAK256 SWAP1 PUSH1 0x3 MUL ADD PUSH0 SWAP2 POP SWAP2 POP POP DUP1 PUSH0 ADD PUSH0 SWAP1 SLOAD SWAP1 PUSH2 0x100 EXP SWAP1 DIV PUSH20 0xFFFFFFFFFFFFFFFFFFFFFFFFFFFFFFFFFFFFFFFF AND SWAP1 DUP1 PUSH1 0x1 ADD SLOAD SWAP1 DUP1 PUSH1 0x2 ADD SLOAD SWAP1 POP DUP4 JUMP JUMPDEST PUSH1 0x60 PUSH0 PUSH0 SWAP1 POP JUMPDEST PUSH1 0x4 PUSH0 DUP5 DUP2 MSTORE PUSH1 0x20 ADD SWAP1 DUP2 MSTORE PUSH1 0x20 ADD PUSH0 KECCAK256 DUP1 SLOAD SWAP1 POP DUP2 LT ISZERO PUSH2 0x9EF JUMPI PUSH2 0x9E2 PUSH1 0x4 PUSH0 DUP6 DUP2 MSTORE PUSH1 0x20 ADD SWAP1 DUP2 MSTORE PUSH1 0x20 ADD PUSH0 KECCAK256 DUP3 DUP2 SLOAD DUP2 LT PUSH2 0x967 JUMPI PUSH2 0x966 PUSH2 0x2293 JUMP JUMPDEST JUMPDEST SWAP1 PUSH0 MSTORE PUSH1 0x20 PUSH0 KECCAK256 SWAP1 PUSH1 0x5 MUL ADD PUSH1 0x1 ADD SLOAD PUSH1 0x4 PUSH0 DUP7 DUP2 MSTORE PUSH1 0x20 ADD SWAP1 DUP2 MSTORE PUSH1 0x20 ADD PUSH0 KECCAK256 DUP4 DUP2 SLOAD DUP2 LT PUSH2 0x99A JUMPI PUSH2 0x999 PUSH2 0x2293 JUMP JUMPDEST JUMPDEST SWAP1 PUSH0 MSTORE PUSH1 0x20 PUSH0 KECCAK256 SWAP1 PUSH1 0x5 MUL ADD PUSH1 0x2 ADD SLOAD PUSH1 0x4 PUSH0 DUP8 DUP2 MSTORE PUSH1 0x20 ADD SWAP1 DUP2 MSTORE PUSH1 0x20 ADD PUSH0 KECCAK256 DUP5 DUP2 SLOAD DUP2 LT PUSH2 0x9CD JUMPI PUSH2 0x9CC PUSH2 0x2293 JUMP JUMPDEST JUMPDEST SWAP1 PUSH0 MSTORE PUSH1 0x20 PUSH0 KECCAK256 SWAP1 PUSH1 0x5 MUL ADD PUSH1 0x3 ADD SLOAD PUSH2 0x1280 JUMP JUMPDEST DUP1 DUP1 PUSH1 0x1 ADD SWAP2 POP POP PUSH2 0x925 JUMP JUMPDEST POP PUSH1 0x4 PUSH0 DUP4 DUP2 MSTORE PUSH1 0x20 ADD SWAP1 DUP2 MSTORE PUSH1 0x20 ADD PUSH0 KECCAK256 DUP1 SLOAD DUP1 PUSH1 0x20 MUL PUSH1 0x20 ADD PUSH1 0x40 MLOAD SWAP1 DUP2 ADD PUSH1 0x40 MSTORE DUP1 SWAP3 SWAP2 SWAP1 DUP2 DUP2 MSTORE PUSH1 0x20 ADD PUSH0 SWAP1 JUMPDEST DUP3 DUP3 LT ISZERO PUSH2 0xA81 JUMPI DUP4 DUP3 SWAP1 PUSH0 MSTORE PUSH1 0x20 PUSH0 KECCAK256 SWAP1 PUSH1 0x5 MUL ADD PUSH1 0x40 MLOAD DUP1 PUSH1 0xA0 ADD PUSH1 0x40 MSTORE SWAP1 DUP2 PUSH0 DUP3 ADD SLOAD DUP2 MSTORE PUSH1 0x20 ADD PUSH1 0x1 DUP3 ADD SLOAD DUP2 MSTORE PUSH1 0x20 ADD PUSH1 0x2 DUP3 ADD SLOAD DUP2 MSTORE PUSH1 0x20 ADD PUSH1 0x3 DUP3 ADD SLOAD DUP2 MSTORE PUSH1 0x20 ADD PUSH1 0x4 DUP3 ADD SLOAD DUP2 MSTORE POP POP DUP2 MSTORE PUSH1 0x20 ADD SWAP1 PUSH1 0x1 ADD SWAP1 PUSH2 0xA20 JUMP JUMPDEST POP POP POP POP SWAP1 POP SWAP2 SWAP1 POP JUMP JUMPDEST PUSH0 PUSH1 0x2 DUP3 DUP2 SLOAD DUP2 LT PUSH2 0xAA1 JUMPI PUSH2 0xAA0 PUSH2 0x2293 JUMP JUMPDEST JUMPDEST SWAP1 PUSH0 MSTORE PUSH1 0x20 PUSH0 KECCAK256 SWAP1 PUSH1 0x6 MUL ADD SWAP1 POP PUSH1 0x1 DUP2 PUSH1 0x4 ADD PUSH1 0x1 SWAP1 SLOAD SWAP1 PUSH2 0x100 EXP SWAP1 DIV PUSH1 0xFF AND PUSH1 0xFF AND EQ PUSH2 0xB06 JUMPI PUSH1 0x40 MLOAD PUSH32 0x8C379A000000000000000000000000000000000000000000000000000000000 DUP2 MSTORE PUSH1 0x4 ADD PUSH2 0xAFD SWAP1 PUSH2 0x2778 JUMP JUMPDEST PUSH1 0x40 MLOAD DUP1 SWAP2 SUB SWAP1 REVERT JUMPDEST CALLER PUSH20 0xFFFFFFFFFFFFFFFFFFFFFFFFFFFFFFFFFFFFFFFF AND DUP2 PUSH1 0x4 ADD PUSH1 0x2 SWAP1 SLOAD SWAP1 PUSH2 0x100 EXP SWAP1 DIV PUSH20 0xFFFFFFFFFFFFFFFFFFFFFFFFFFFFFFFFFFFFFFFF AND PUSH20 0xFFFFFFFFFFFFFFFFFFFFFFFFFFFFFFFFFFFFFFFF AND SUB PUSH2 0xB98 JUMPI PUSH1 0x40 MLOAD PUSH32 0x8C379A000000000000000000000000000000000000000000000000000000000 DUP2 MSTORE PUSH1 0x4 ADD PUSH2 0xB8F SWAP1 PUSH2 0x2806 JUMP JUMPDEST PUSH1 0x40 MLOAD DUP1 SWAP2 SUB SWAP1 REVERT JUMPDEST PUSH0 CALLVALUE GT PUSH2 0xBDA JUMPI PUSH1 0x40 MLOAD PUSH32 0x8C379A000000000000000000000000000000000000000000000000000000000 DUP2 MSTORE PUSH1 0x4 ADD PUSH2 0xBD1 SWAP1 PUSH2 0x286E JUMP JUMPDEST PUSH1 0x40 MLOAD DUP1 SWAP2 SUB SWAP1 REVERT JUMPDEST DUP1 PUSH1 0x5 ADD SLOAD DUP2 PUSH0 ADD SLOAD PUSH2 0xBED SWAP2 SWAP1 PUSH2 0x28B9 JUMP JUMPDEST CALLVALUE GT ISZERO PUSH2 0xC2F JUMPI PUSH1 0x40 MLOAD PUSH32 0x8C379A000000000000000000000000000000000000000000000000000000000 DUP2 MSTORE PUSH1 0x4 ADD PUSH2 0xC26 SWAP1 PUSH2 0x295C JUMP JUMPDEST PUSH1 0x40 MLOAD DUP1 SWAP2 SUB SWAP1 REVERT JUMPDEST PUSH1 0x3 PUSH0 DUP4 DUP2 MSTORE PUSH1 0x20 ADD SWAP1 DUP2 MSTORE PUSH1 0x20 ADD PUSH0 KECCAK256 PUSH1 0x40 MLOAD DUP1 PUSH1 0x60 ADD PUSH1 0x40 MSTORE DUP1 CALLER PUSH20 0xFFFFFFFFFFFFFFFFFFFFFFFFFFFFFFFFFFFFFFFF AND DUP2 MSTORE PUSH1 0x20 ADD CALLVALUE DUP2 MSTORE PUSH1 0x20 ADD TIMESTAMP DUP2 MSTORE POP SWAP1 DUP1 PUSH1 0x1 DUP2 SLOAD ADD DUP1 DUP3 SSTORE DUP1 SWAP2 POP POP PUSH1 0x1 SWAP1 SUB SWAP1 PUSH0 MSTORE PUSH1 0x20 PUSH0 KECCAK256 SWAP1 PUSH1 0x3 MUL ADD PUSH0 SWAP1 SWAP2 SWAP1 SWAP2 SWAP1 SWAP2 POP PUSH0 DUP3 ADD MLOAD DUP2 PUSH0 ADD PUSH0 PUSH2 0x100 EXP DUP2 SLOAD DUP2 PUSH20 0xFFFFFFFFFFFFFFFFFFFFFFFFFFFFFFFFFFFFFFFF MUL NOT AND SWAP1 DUP4 PUSH20 0xFFFFFFFFFFFFFFFFFFFFFFFFFFFFFFFFFFFFFFFF AND MUL OR SWAP1 SSTORE POP PUSH1 0x20 DUP3 ADD MLOAD DUP2 PUSH1 0x1 ADD SSTORE PUSH1 0x40 DUP3 ADD MLOAD DUP2 PUSH1 0x2 ADD SSTORE POP POP CALLVALUE DUP2 PUSH1 0x5 ADD PUSH0 DUP3 DUP3 SLOAD PUSH2 0xD04 SWAP2 SWAP1 PUSH2 0x297A JUMP JUMPDEST SWAP3 POP POP DUP2 SWAP1 SSTORE POP PUSH1 0x7 PUSH0 CALLER PUSH20 0xFFFFFFFFFFFFFFFFFFFFFFFFFFFFFFFFFFFFFFFF AND PUSH20 0xFFFFFFFFFFFFFFFFFFFFFFFFFFFFFFFFFFFFFFFF AND DUP2 MSTORE PUSH1 0x20 ADD SWAP1 DUP2 MSTORE PUSH1 0x20 ADD PUSH0 KECCAK256 DUP3 SWAP1 DUP1 PUSH1 0x1 DUP2 SLOAD ADD DUP1 DUP3 SSTORE DUP1 SWAP2 POP POP PUSH1 0x1 SWAP1 SUB SWAP1 PUSH0 MSTORE PUSH1 0x20 PUSH0 KECCAK256 ADD PUSH0 SWAP1 SWAP2 SWAP1 SWAP2 SWAP1 SWAP2 POP SSTORE POP POP JUMP JUMPDEST PUSH0 DUP6 GT PUSH2 0xDB2 JUMPI PUSH1 0x40 MLOAD PUSH32 0x8C379A000000000000000000000000000000000000000000000000000000000 DUP2 MSTORE PUSH1 0x4 ADD PUSH2 0xDA9 SWAP1 PUSH2 0x29F7 JUMP JUMPDEST PUSH1 0x40 MLOAD DUP1 SWAP2 SUB SWAP1 REVERT JUMPDEST PUSH0 DUP4 PUSH1 0xFF AND GT PUSH2 0xDF7 JUMPI PUSH1 0x40 MLOAD PUSH32 0x8C379A000000000000000000000000000000000000000000000000000000000 DUP2 MSTORE PUSH1 0x4 ADD PUSH2 0xDEE SWAP1 PUSH2 0x2A5F JUMP JUMPDEST PUSH1 0x40 MLOAD DUP1 SWAP2 SUB SWAP1 REVERT JUMPDEST PUSH3 0x15180 TIMESTAMP PUSH2 0xE06 SWAP2 SWAP1 PUSH2 0x297A JUMP JUMPDEST DUP3 GT PUSH2 0xE47 JUMPI PUSH1 0x40 MLOAD PUSH32 0x8C379A000000000000000000000000000000000000000000000000000000000 DUP2 MSTORE PUSH1 0x4 ADD PUSH2 0xE3E SWAP1 PUSH2 0x2AED JUMP JUMPDEST PUSH1 0x40 MLOAD DUP1 SWAP2 SUB SWAP1 REVERT JUMPDEST PUSH1 0x1 DUP2 PUSH1 0xFF AND EQ PUSH2 0xE8D JUMPI PUSH1 0x40 MLOAD PUSH32 0x8C379A000000000000000000000000000000000000000000000000000000000 DUP2 MSTORE PUSH1 0x4 ADD PUSH2 0xE84 SWAP1 PUSH2 0x2B55 JUMP JUMPDEST PUSH1 0x40 MLOAD DUP1 SWAP2 SUB SWAP1 REVERT JUMPDEST PUSH1 0x2 PUSH1 0x40 MLOAD DUP1 PUSH2 0x100 ADD PUSH1 0x40 MSTORE DUP1 DUP8 DUP2 MSTORE PUSH1 0x20 ADD DUP7 DUP2 MSTORE PUSH1 0x20 ADD DUP6 PUSH1 0xFF AND DUP2 MSTORE PUSH1 0x20 ADD DUP5 DUP2 MSTORE PUSH1 0x20 ADD DUP4 PUSH1 0xFF AND DUP2 MSTORE PUSH1 0x20 ADD PUSH1 0x1 PUSH1 0xFF AND DUP2 MSTORE PUSH1 0x20 ADD CALLER PUSH20 0xFFFFFFFFFFFFFFFFFFFFFFFFFFFFFFFFFFFFFFFF AND DUP2 MSTORE PUSH1 0x20 ADD PUSH0 DUP2 MSTORE POP SWAP1 DUP1 PUSH1 0x1 DUP2 SLOAD ADD DUP1 DUP3 SSTORE DUP1 SWAP2 POP POP PUSH1 0x1 SWAP1 SUB SWAP1 PUSH0 MSTORE PUSH1 0x20 PUSH0 KECCAK256 SWAP1 PUSH1 0x6 MUL ADD PUSH0 SWAP1 SWAP2 SWAP1 SWAP2 SWAP1 SWAP2 POP PUSH0 DUP3 ADD MLOAD DUP2 PUSH0 ADD SSTORE PUSH1 0x20 DUP3 ADD MLOAD DUP2 PUSH1 0x1 ADD SSTORE PUSH1 0x40 DUP3 ADD MLOAD DUP2 PUSH1 0x2 ADD PUSH0 PUSH2 0x100 EXP DUP2 SLOAD DUP2 PUSH1 0xFF MUL NOT AND SWAP1 DUP4 PUSH1 0xFF AND MUL OR SWAP1 SSTORE POP PUSH1 0x60 DUP3 ADD MLOAD DUP2 PUSH1 0x3 ADD SSTORE PUSH1 0x80 DUP3 ADD MLOAD DUP2 PUSH1 0x4 ADD PUSH0 PUSH2 0x100 EXP DUP2 SLOAD DUP2 PUSH1 0xFF MUL NOT AND SWAP1 DUP4 PUSH1 0xFF AND MUL OR SWAP1 SSTORE POP PUSH1 0xA0 DUP3 ADD MLOAD DUP2 PUSH1 0x4 ADD PUSH1 0x1 PUSH2 0x100 EXP DUP2 SLOAD DUP2 PUSH1 0xFF MUL NOT AND SWAP1 DUP4 PUSH1 0xFF AND MUL OR SWAP1 SSTORE POP PUSH1 0xC0 DUP3 ADD MLOAD DUP2 PUSH1 0x4 ADD PUSH1 0x2 PUSH2 0x100 EXP DUP2 SLOAD DUP2 PUSH20 0xFFFFFFFFFFFFFFFFFFFFFFFFFFFFFFFFFFFFFFFF MUL NOT AND SWAP1 DUP4 PUSH20 0xFFFFFFFFFFFFFFFFFFFFFFFFFFFFFFFFFFFFFFFF AND MUL OR SWAP1 SSTORE POP PUSH1 0xE0 DUP3 ADD MLOAD DUP2 PUSH1 0x5 ADD SSTORE POP POP PUSH0 PUSH1 0x1 PUSH1 0x2 DUP1 SLOAD SWAP1 POP PUSH2 0xFF2 SWAP2 SWAP1 PUSH2 0x28B9 JUMP JUMPDEST SWAP1 POP PUSH0 PUSH2 0xFFE DUP8 PUSH2 0x131F JUMP JUMPDEST SWAP1 POP PUSH0 PUSH2 0x101E PUSH2 0x100D DUP9 PUSH2 0x131F JUMP JUMPDEST PUSH2 0x1019 PUSH3 0xF4240 PUSH2 0x131F JUMP JUMPDEST PUSH2 0x1340 JUMP JUMPDEST SWAP1 POP PUSH0 PUSH2 0x1034 DUP3 PUSH2 0x102F PUSH1 0xC PUSH2 0x13C5 JUMP JUMPDEST PUSH2 0x1340 JUMP JUMPDEST SWAP1 POP PUSH0 PUSH2 0x1042 DUP5 DUP4 DUP11 PUSH2 0x1412 JUMP JUMPDEST SWAP1 POP PUSH0 PUSH1 0x4 PUSH0 DUP8 DUP2 MSTORE PUSH1 0x20 ADD SWAP1 DUP2 MSTORE PUSH1 0x20 ADD PUSH0 KECCAK256 SWAP1 POP PUSH0 DUP6 SWAP1 POP PUSH0 PUSH1 0x1 SWAP1 POP JUMPDEST DUP11 PUSH1 0xFF AND DUP2 GT PUSH2 0x1159 JUMPI PUSH0 PUSH2 0x1077 DUP4 DUP8 PUSH2 0x1486 JUMP JUMPDEST SWAP1 POP PUSH0 PUSH2 0x1084 DUP7 DUP4 PUSH2 0x14EF JUMP JUMPDEST SWAP1 POP PUSH0 PUSH2 0x1091 DUP14 DUP6 PUSH2 0x1554 JUMP JUMPDEST SWAP1 POP DUP6 PUSH1 0x40 MLOAD DUP1 PUSH1 0xA0 ADD PUSH1 0x40 MSTORE DUP1 DUP14 DUP2 MSTORE PUSH1 0x20 ADD DUP4 DUP2 MSTORE PUSH1 0x20 ADD PUSH2 0x10B4 DUP6 PUSH2 0x1633 JUMP JUMPDEST PUSH8 0xFFFFFFFFFFFFFFFF AND DUP2 MSTORE PUSH1 0x20 ADD PUSH2 0x10CC DUP7 PUSH2 0x1633 JUMP JUMPDEST PUSH8 0xFFFFFFFFFFFFFFFF AND DUP2 MSTORE PUSH1 0x20 ADD PUSH0 DUP2 MSTORE POP SWAP1 DUP1 PUSH1 0x1 DUP2 SLOAD ADD DUP1 DUP3 SSTORE DUP1 SWAP2 POP POP PUSH1 0x1 SWAP1 SUB SWAP1 PUSH0 MSTORE PUSH1 0x20 PUSH0 KECCAK256 SWAP1 PUSH1 0x5 MUL ADD PUSH0 SWAP1 SWAP2 SWAP1 SWAP2 SWAP1 SWAP2 POP PUSH0 DUP3 ADD MLOAD DUP2 PUSH0 ADD SSTORE PUSH1 0x20 DUP3 ADD MLOAD DUP2 PUSH1 0x1 ADD SSTORE PUSH1 0x40 DUP3 ADD MLOAD DUP2 PUSH1 0x2 ADD SSTORE PUSH1 0x60 DUP3 ADD MLOAD DUP2 PUSH1 0x3 ADD SSTORE PUSH1 0x80 DUP3 ADD MLOAD DUP2 PUSH1 0x4 ADD SSTORE POP POP PUSH2 0x1141 DUP6 DUP9 PUSH2 0x14EF JUMP JUMPDEST SWAP5 POP POP POP POP DUP1 DUP1 PUSH2 0x1151 SWAP1 PUSH2 0x2B73 JUMP JUMPDEST SWAP2 POP POP PUSH2 0x1062 JUMP JUMPDEST POP PUSH1 0x6 PUSH0 CALLER PUSH20 0xFFFFFFFFFFFFFFFFFFFFFFFFFFFFFFFFFFFFFFFF AND PUSH20 0xFFFFFFFFFFFFFFFFFFFFFFFFFFFFFFFFFFFFFFFF AND DUP2 MSTORE PUSH1 0x20 ADD SWAP1 DUP2 MSTORE PUSH1 0x20 ADD PUSH0 KECCAK256 DUP8 SWAP1 DUP1 PUSH1 0x1 DUP2 SLOAD ADD DUP1 DUP3 SSTORE DUP1 SWAP2 POP POP PUSH1 0x1 SWAP1 SUB SWAP1 PUSH0 MSTORE PUSH1 0x20 PUSH0 KECCAK256 ADD PUSH0 SWAP1 SWAP2 SWAP1 SWAP2 SWAP1 SWAP2 POP SSTORE POP POP POP POP POP POP POP POP POP POP POP POP JUMP JUMPDEST PUSH1 0x7 PUSH1 0x20 MSTORE DUP2 PUSH0 MSTORE PUSH1 0x40 PUSH0 KECCAK256 DUP2 DUP2 SLOAD DUP2 LT PUSH2 0x11E2 JUMPI PUSH0 DUP1 REVERT JUMPDEST SWAP1 PUSH0 MSTORE PUSH1 0x20 PUSH0 KECCAK256 ADD PUSH0 SWAP2 POP SWAP2 POP POP SLOAD DUP2 JUMP JUMPDEST PUSH1 0x6 PUSH1 0x20 MSTORE DUP2 PUSH0 MSTORE PUSH1 0x40 PUSH0 KECCAK256 DUP2 DUP2 SLOAD DUP2 LT PUSH2 0x120D JUMPI PUSH0 DUP1 REVERT JUMPDEST SWAP1 PUSH0 MSTORE PUSH1 0x20 PUSH0 KECCAK256 ADD PUSH0 SWAP2 POP SWAP2 POP POP SLOAD DUP2 JUMP JUMPDEST PUSH1 0x4 PUSH1 0x20 MSTORE DUP2 PUSH0 MSTORE PUSH1 0x40 PUSH0 KECCAK256 DUP2 DUP2 SLOAD DUP2 LT PUSH2 0x1238 JUMPI PUSH0 DUP1 REVERT JUMPDEST SWAP1 PUSH0 MSTORE PUSH1 0x20 PUSH0 KECCAK256 SWAP1 PUSH1 0x5 MUL ADD PUSH0 SWAP2 POP SWAP2 POP POP DUP1 PUSH0 ADD SLOAD SWAP1 DUP1 PUSH1 0x1 ADD SLOAD SWAP1 DUP1 PUSH1 0x2 ADD SLOAD SWAP1 DUP1 PUSH1 0x3 ADD SLOAD SWAP1 DUP1 PUSH1 0x4 ADD SLOAD SWAP1 POP DUP6 JUMP JUMPDEST PUSH1 0x1 PUSH1 0x20 MSTORE DUP1 PUSH0 MSTORE PUSH1 0x40 PUSH0 KECCAK256 PUSH0 SWAP2 POP SWAP1 POP SLOAD DUP2 JUMP JUMPDEST PUSH2 0x131A DUP4 DUP4 DUP4 PUSH1 0x40 MLOAD PUSH1 0x24 ADD PUSH2 0x1298 SWAP4 SWAP3 SWAP2 SWAP1 PUSH2 0x2BBA JUMP JUMPDEST PUSH1 0x40 MLOAD PUSH1 0x20 DUP2 DUP4 SUB SUB DUP2 MSTORE SWAP1 PUSH1 0x40 MSTORE PUSH32 0xD1ED7A3C00000000000000000000000000000000000000000000000000000000 PUSH28 0xFFFFFFFFFFFFFFFFFFFFFFFFFFFFFFFFFFFFFFFFFFFFFFFFFFFFFFFF NOT AND PUSH1 0x20 DUP3 ADD DUP1 MLOAD PUSH28 0xFFFFFFFFFFFFFFFFFFFFFFFFFFFFFFFFFFFFFFFFFFFFFFFFFFFFFFFF DUP4 DUP2 DUP4 AND OR DUP4 MSTORE POP POP POP POP PUSH2 0x1652 JUMP JUMPDEST POP POP POP JUMP JUMPDEST PUSH0 PUSH8 0x7FFFFFFFFFFFFFFF DUP3 GT ISZERO PUSH2 0x1334 JUMPI PUSH0 PUSH0 REVERT JUMPDEST PUSH1 0x40 DUP3 SWAP1 SHL SWAP1 POP SWAP2 SWAP1 POP JUMP JUMPDEST PUSH0 PUSH0 DUP3 PUSH1 0xF SIGNEXTEND SUB PUSH2 0x134F JUMPI PUSH0 PUSH0 REVERT JUMPDEST PUSH0 DUP3 PUSH1 0xF SIGNEXTEND PUSH1 0x40 DUP6 PUSH1 0xF SIGNEXTEND SWAP1 SHL DUP2 PUSH2 0x136A JUMPI PUSH2 0x1369 PUSH2 0x2BEF JUMP JUMPDEST JUMPDEST SDIV SWAP1 POP PUSH32 0xFFFFFFFFFFFFFFFFFFFFFFFFFFFFFFFF80000000000000000000000000000000 PUSH1 0xF SIGNEXTEND DUP2 SLT ISZERO DUP1 ISZERO PUSH2 0x13B3 JUMPI POP PUSH16 0x7FFFFFFFFFFFFFFFFFFFFFFFFFFFFFFF PUSH1 0xF SIGNEXTEND DUP2 SGT ISZERO JUMPDEST PUSH2 0x13BB JUMPI PUSH0 PUSH0 REVERT JUMPDEST DUP1 SWAP2 POP POP SWAP3 SWAP2 POP POP JUMP JUMPDEST PUSH0 PUSH32 0xFFFFFFFFFFFFFFFFFFFFFFFFFFFFFFFFFFFFFFFFFFFFFFFF8000000000000000 DUP3 SLT ISZERO DUP1 ISZERO PUSH2 0x13FE JUMPI POP PUSH8 0x7FFFFFFFFFFFFFFF DUP3 SGT ISZERO JUMPDEST PUSH2 0x1406 JUMPI PUSH0 PUSH0 REVERT JUMPDEST PUSH1 0x40 DUP3 SWAP1 SHL SWAP1 POP SWAP2 SWAP1 POP JUMP JUMPDEST PUSH0 PUSH0 PUSH2 0x1427 PUSH2 0x1421 PUSH1 0x1 PUSH2 0x13C5 JUMP JUMPDEST DUP6 PUSH2 0x166C JUMP JUMPDEST SWAP1 POP PUSH0 PUSH2 0x1437 DUP3 DUP6 PUSH1 0xFF AND PUSH2 0x16D1 JUMP JUMPDEST SWAP1 POP PUSH0 PUSH2 0x1444 DUP8 DUP8 PUSH2 0x1486 JUMP JUMPDEST SWAP1 POP PUSH0 PUSH2 0x1451 DUP3 DUP5 PUSH2 0x1486 JUMP JUMPDEST SWAP1 POP PUSH0 PUSH2 0x1467 DUP5 PUSH2 0x1462 PUSH1 0x1 PUSH2 0x13C5 JUMP JUMPDEST PUSH2 0x14EF JUMP JUMPDEST SWAP1 POP PUSH0 PUSH2 0x1474 DUP4 DUP4 PUSH2 0x1340 JUMP JUMPDEST SWAP1 POP DUP1 SWAP7 POP POP POP POP POP POP POP SWAP4 SWAP3 POP POP POP JUMP JUMPDEST PUSH0 PUSH0 PUSH1 0x40 DUP4 PUSH1 0xF SIGNEXTEND DUP6 PUSH1 0xF SIGNEXTEND MUL SWAP1 SAR SWAP1 POP PUSH32 0xFFFFFFFFFFFFFFFFFFFFFFFFFFFFFFFF80000000000000000000000000000000 PUSH1 0xF SIGNEXTEND DUP2 SLT ISZERO DUP1 ISZERO PUSH2 0x14DD JUMPI POP PUSH16 0x7FFFFFFFFFFFFFFFFFFFFFFFFFFFFFFF PUSH1 0xF SIGNEXTEND DUP2 SGT ISZERO JUMPDEST PUSH2 0x14E5 JUMPI PUSH0 PUSH0 REVERT JUMPDEST DUP1 SWAP2 POP POP SWAP3 SWAP2 POP POP JUMP JUMPDEST PUSH0 PUSH0 DUP3 PUSH1 0xF SIGNEXTEND DUP5 PUSH1 0xF SIGNEXTEND SUB SWAP1 POP PUSH32 0xFFFFFFFFFFFFFFFFFFFFFFFFFFFFFFFF80000000000000000000000000000000 PUSH1 0xF SIGNEXTEND DUP2 SLT ISZERO DUP1 ISZERO PUSH2 0x1542 JUMPI POP PUSH16 0x7FFFFFFFFFFFFFFFFFFFFFFFFFFFFFFF PUSH1 0xF SIGNEXTEND DUP2 SGT ISZERO JUMPDEST PUSH2 0x154A JUMPI PUSH0 PUSH0 REVERT JUMPDEST DUP1 SWAP2 POP POP SWAP3 SWAP2 POP POP JUMP JUMPDEST PUSH0 PUSH0 PUSH0 PUSH0 PUSH2 0x156F PUSH3 0x15180 DUP8 PUSH2 0x156A SWAP2 SWAP1 PUSH2 0x2C1C JUMP JUMPDEST PUSH2 0x19D6 JUMP JUMPDEST SWAP3 POP SWAP3 POP SWAP3 POP DUP5 DUP3 PUSH2 0x1581 SWAP2 SWAP1 PUSH2 0x297A JUMP JUMPDEST SWAP2 POP PUSH1 0xC PUSH1 0x1 DUP4 PUSH2 0x1592 SWAP2 SWAP1 PUSH2 0x28B9 JUMP JUMPDEST PUSH2 0x159C SWAP2 SWAP1 PUSH2 0x2C1C JUMP JUMPDEST DUP4 PUSH2 0x15A7 SWAP2 SWAP1 PUSH2 0x297A JUMP JUMPDEST SWAP3 POP PUSH1 0x1 PUSH1 0xC PUSH1 0x1 DUP5 PUSH2 0x15BA SWAP2 SWAP1 PUSH2 0x28B9 JUMP JUMPDEST PUSH2 0x15C4 SWAP2 SWAP1 PUSH2 0x2C4C JUMP JUMPDEST PUSH2 0x15CE SWAP2 SWAP1 PUSH2 0x297A JUMP JUMPDEST SWAP2 POP PUSH0 PUSH2 0x15DB DUP5 DUP5 PUSH2 0x1B6E JUMP JUMPDEST SWAP1 POP DUP1 DUP3 GT ISZERO PUSH2 0x15E9 JUMPI DUP1 SWAP2 POP JUMPDEST PUSH3 0x15180 DUP8 PUSH2 0x15F8 SWAP2 SWAP1 PUSH2 0x2C4C JUMP JUMPDEST PUSH3 0x15180 PUSH2 0x1607 DUP7 DUP7 DUP7 PUSH2 0x1BF8 JUMP JUMPDEST PUSH2 0x1611 SWAP2 SWAP1 PUSH2 0x2C7C JUMP JUMPDEST PUSH2 0x161B SWAP2 SWAP1 PUSH2 0x297A JUMP JUMPDEST SWAP5 POP DUP7 DUP6 LT ISZERO PUSH2 0x1629 JUMPI PUSH0 PUSH0 REVERT JUMPDEST POP POP POP POP SWAP3 SWAP2 POP POP JUMP JUMPDEST PUSH0 PUSH0 DUP3 PUSH1 0xF SIGNEXTEND SLT ISZERO PUSH2 0x1643 JUMPI PUSH0 PUSH0 REVERT JUMPDEST PUSH1 0x40 DUP3 PUSH1 0xF SIGNEXTEND SWAP1 SAR SWAP1 POP SWAP2 SWAP1 POP JUMP JUMPDEST PUSH2 0x1669 DUP2 PUSH2 0x1661 PUSH2 0x1D51 PUSH2 0x1D70 JUMP JUMPDEST PUSH4 0xFFFFFFFF AND JUMP JUMPDEST POP JUMP JUMPDEST PUSH0 PUSH0 DUP3 PUSH1 0xF SIGNEXTEND DUP5 PUSH1 0xF SIGNEXTEND ADD SWAP1 POP PUSH32 0xFFFFFFFFFFFFFFFFFFFFFFFFFFFFFFFF80000000000000000000000000000000 PUSH1 0xF SIGNEXTEND DUP2 SLT ISZERO DUP1 ISZERO PUSH2 0x16BF JUMPI POP PUSH16 0x7FFFFFFFFFFFFFFFFFFFFFFFFFFFFFFF PUSH1 0xF SIGNEXTEND DUP2 SGT ISZERO JUMPDEST PUSH2 0x16C7 JUMPI PUSH0 PUSH0 REVERT JUMPDEST DUP1 SWAP2 POP POP SWAP3 SWAP2 POP POP JUMP JUMPDEST PUSH0 PUSH0 PUSH0 DUP5 PUSH1 0xF SIGNEXTEND SLT DUP1 ISZERO PUSH2 0x16E7 JUMPI POP PUSH1 0x1 DUP1 DUP5 AND EQ JUMPDEST SWAP1 POP PUSH0 PUSH0 DUP6 PUSH1 0xF SIGNEXTEND SLT PUSH2 0x16FA JUMPI DUP5 PUSH2 0x16FE JUMP JUMPDEST DUP5 PUSH0 SUB JUMPDEST PUSH16 0xFFFFFFFFFFFFFFFFFFFFFFFFFFFFFFFF AND SWAP1 POP PUSH0 PUSH17 0x100000000000000000000000000000000 SWAP1 POP PUSH9 0x10000000000000000 DUP3 GT PUSH2 0x17D2 JUMPI PUSH1 0x3F DUP3 SWAP1 SHL SWAP2 POP JUMPDEST PUSH0 DUP6 EQ PUSH2 0x17C6 JUMPI PUSH0 PUSH1 0x1 DUP7 AND EQ PUSH2 0x175A JUMPI PUSH1 0x7F DUP3 DUP3 MUL SWAP1 SHR SWAP1 POP JUMPDEST PUSH1 0x7F DUP3 DUP4 MUL SWAP1 SHR SWAP2 POP PUSH0 PUSH1 0x2 DUP7 AND EQ PUSH2 0x1777 JUMPI PUSH1 0x7F DUP3 DUP3 MUL SWAP1 SHR SWAP1 POP JUMPDEST PUSH1 0x7F DUP3 DUP4 MUL SWAP1 SHR SWAP2 POP PUSH0 PUSH1 0x4 DUP7 AND EQ PUSH2 0x1794 JUMPI PUSH1 0x7F DUP3 DUP3 MUL SWAP1 SHR SWAP1 POP JUMPDEST PUSH1 0x7F DUP3 DUP4 MUL SWAP1 SHR SWAP2 POP PUSH0 PUSH1 0x8 DUP7 AND EQ PUSH2 0x17B1 JUMPI PUSH1 0x7F DUP3 DUP3 MUL SWAP1 SHR SWAP1 POP JUMPDEST PUSH1 0x7F DUP3 DUP4 MUL SWAP1 SHR SWAP2 POP PUSH1 0x4 DUP6 SWAP1 SHR SWAP5 POP PUSH2 0x173F JUMP JUMPDEST PUSH1 0x40 DUP2 SWAP1 SHR SWAP1 POP PUSH2 0x1969 JUMP JUMPDEST PUSH0 PUSH1 0x3F SWAP1 POP PUSH13 0x1000000000000000000000000 DUP4 LT ISZERO PUSH2 0x17FA JUMPI PUSH1 0x20 DUP4 SWAP1 SHL SWAP3 POP PUSH1 0x20 DUP2 SUB SWAP1 POP JUMPDEST PUSH15 0x10000000000000000000000000000 DUP4 LT ISZERO PUSH2 0x181F JUMPI PUSH1 0x10 DUP4 SWAP1 SHL SWAP3 POP PUSH1 0x10 DUP2 SUB SWAP1 POP JUMPDEST PUSH16 0x1000000000000000000000000000000 DUP4 LT ISZERO PUSH2 0x1845 JUMPI PUSH1 0x8 DUP4 SWAP1 SHL SWAP3 POP PUSH1 0x8 DUP2 SUB SWAP1 POP JUMPDEST PUSH16 0x10000000000000000000000000000000 DUP4 LT ISZERO PUSH2 0x186B JUMPI PUSH1 0x4 DUP4 SWAP1 SHL SWAP3 POP PUSH1 0x4 DUP2 SUB SWAP1 POP JUMPDEST PUSH16 0x40000000000000000000000000000000 DUP4 LT ISZERO PUSH2 0x1891 JUMPI PUSH1 0x2 DUP4 SWAP1 SHL SWAP3 POP PUSH1 0x2 DUP2 SUB SWAP1 POP JUMPDEST PUSH16 0x80000000000000000000000000000000 DUP4 LT ISZERO PUSH2 0x18B7 JUMPI PUSH1 0x1 DUP4 SWAP1 SHL SWAP3 POP PUSH1 0x1 DUP2 SUB SWAP1 POP JUMPDEST PUSH0 PUSH0 SWAP1 POP JUMPDEST PUSH0 DUP8 EQ PUSH2 0x1951 JUMPI PUSH1 0x40 DUP3 LT PUSH2 0x18CF JUMPI PUSH0 PUSH0 REVERT JUMPDEST PUSH0 PUSH1 0x1 DUP9 AND EQ PUSH2 0x190F JUMPI PUSH1 0x7F DUP5 DUP5 MUL SWAP1 SHR SWAP3 POP DUP2 DUP2 ADD SWAP1 POP PUSH17 0x100000000000000000000000000000000 DUP4 GT ISZERO PUSH2 0x190E JUMPI PUSH1 0x1 DUP4 SWAP1 SHR SWAP3 POP PUSH1 0x1 DUP2 ADD SWAP1 POP JUMPDEST JUMPDEST PUSH1 0x7F DUP5 DUP6 MUL SWAP1 SHR SWAP4 POP PUSH1 0x1 DUP3 SWAP1 SHL SWAP2 POP PUSH17 0x100000000000000000000000000000000 DUP5 LT PUSH2 0x1945 JUMPI PUSH1 0x1 DUP5 SWAP1 SHR SWAP4 POP PUSH1 0x1 DUP3 ADD SWAP2 POP JUMPDEST PUSH1 0x1 DUP8 SWAP1 SHR SWAP7 POP PUSH2 0x18BC JUMP JUMPDEST PUSH1 0x40 DUP2 LT PUSH2 0x195D JUMPI PUSH0 PUSH0 REVERT JUMPDEST DUP1 PUSH1 0x40 SUB DUP4 SWAP1 SHR SWAP3 POP POP POP JUMPDEST PUSH0 DUP4 PUSH2 0x1975 JUMPI DUP2 PUSH2 0x1979 JUMP JUMPDEST DUP2 PUSH0 SUB JUMPDEST SWAP1 POP PUSH32 0xFFFFFFFFFFFFFFFFFFFFFFFFFFFFFFFF80000000000000000000000000000000 PUSH1 0xF SIGNEXTEND DUP2 SLT ISZERO DUP1 ISZERO PUSH2 0x19C1 JUMPI POP PUSH16 0x7FFFFFFFFFFFFFFFFFFFFFFFFFFFFFFF PUSH1 0xF SIGNEXTEND DUP2 SGT ISZERO JUMPDEST PUSH2 0x19C9 JUMPI PUSH0 PUSH0 REVERT JUMPDEST DUP1 SWAP5 POP POP POP POP POP SWAP3 SWAP2 POP POP JUMP JUMPDEST PUSH0 PUSH0 PUSH0 PUSH0 DUP5 SWAP1 POP PUSH0 PUSH3 0x253D8C PUSH3 0x10BD9 DUP4 PUSH2 0x19F1 SWAP2 SWAP1 PUSH2 0x2CC6 JUMP JUMPDEST PUSH2 0x19FB SWAP2 SWAP1 PUSH2 0x2CC6 JUMP JUMPDEST SWAP1 POP PUSH0 PUSH3 0x23AB1 DUP3 PUSH1 0x4 PUSH2 0x1A0F SWAP2 SWAP1 PUSH2 0x2D07 JUMP JUMPDEST PUSH2 0x1A19 SWAP2 SWAP1 PUSH2 0x2D7D JUMP JUMPDEST SWAP1 POP PUSH1 0x4 PUSH1 0x3 DUP3 PUSH3 0x23AB1 PUSH2 0x1A2E SWAP2 SWAP1 PUSH2 0x2D07 JUMP JUMPDEST PUSH2 0x1A38 SWAP2 SWAP1 PUSH2 0x2CC6 JUMP JUMPDEST PUSH2 0x1A42 SWAP2 SWAP1 PUSH2 0x2D7D JUMP JUMPDEST DUP3 PUSH2 0x1A4D SWAP2 SWAP1 PUSH2 0x2DE5 JUMP JUMPDEST SWAP2 POP PUSH0 PUSH3 0x164B09 PUSH1 0x1 DUP5 PUSH2 0x1A61 SWAP2 SWAP1 PUSH2 0x2CC6 JUMP JUMPDEST PUSH2 0xFA0 PUSH2 0x1A6E SWAP2 SWAP1 PUSH2 0x2D07 JUMP JUMPDEST PUSH2 0x1A78 SWAP2 SWAP1 PUSH2 0x2D7D JUMP JUMPDEST SWAP1 POP PUSH1 0x1F PUSH1 0x4 DUP3 PUSH2 0x5B5 PUSH2 0x1A8C SWAP2 SWAP1 PUSH2 0x2D07 JUMP JUMPDEST PUSH2 0x1A96 SWAP2 SWAP1 PUSH2 0x2D7D JUMP JUMPDEST DUP5 PUSH2 0x1AA1 SWAP2 SWAP1 PUSH2 0x2DE5 JUMP JUMPDEST PUSH2 0x1AAB SWAP2 SWAP1 PUSH2 0x2CC6 JUMP JUMPDEST SWAP3 POP PUSH0 PUSH2 0x98F DUP5 PUSH1 0x50 PUSH2 0x1ABE SWAP2 SWAP1 PUSH2 0x2D07 JUMP JUMPDEST PUSH2 0x1AC8 SWAP2 SWAP1 PUSH2 0x2D7D JUMP JUMPDEST SWAP1 POP PUSH0 PUSH1 0x50 DUP3 PUSH2 0x98F PUSH2 0x1ADB SWAP2 SWAP1 PUSH2 0x2D07 JUMP JUMPDEST PUSH2 0x1AE5 SWAP2 SWAP1 PUSH2 0x2D7D JUMP JUMPDEST DUP6 PUSH2 0x1AF0 SWAP2 SWAP1 PUSH2 0x2DE5 JUMP JUMPDEST SWAP1 POP PUSH1 0xB DUP3 PUSH2 0x1AFF SWAP2 SWAP1 PUSH2 0x2D7D JUMP JUMPDEST SWAP5 POP DUP5 PUSH1 0xC PUSH2 0x1B0E SWAP2 SWAP1 PUSH2 0x2D07 JUMP JUMPDEST PUSH1 0x2 DUP4 PUSH2 0x1B1B SWAP2 SWAP1 PUSH2 0x2CC6 JUMP JUMPDEST PUSH2 0x1B25 SWAP2 SWAP1 PUSH2 0x2DE5 JUMP JUMPDEST SWAP2 POP DUP5 DUP4 PUSH1 0x31 DUP7 PUSH2 0x1B36 SWAP2 SWAP1 PUSH2 0x2DE5 JUMP JUMPDEST PUSH1 0x64 PUSH2 0x1B42 SWAP2 SWAP1 PUSH2 0x2D07 JUMP JUMPDEST PUSH2 0x1B4C SWAP2 SWAP1 PUSH2 0x2CC6 JUMP JUMPDEST PUSH2 0x1B56 SWAP2 SWAP1 PUSH2 0x2CC6 JUMP JUMPDEST SWAP3 POP DUP3 SWAP9 POP DUP2 SWAP8 POP DUP1 SWAP7 POP POP POP POP POP POP POP SWAP2 SWAP4 SWAP1 SWAP3 POP JUMP JUMPDEST PUSH0 PUSH1 0x1 DUP3 EQ DUP1 PUSH2 0x1B7E JUMPI POP PUSH1 0x3 DUP3 EQ JUMPDEST DUP1 PUSH2 0x1B89 JUMPI POP PUSH1 0x5 DUP3 EQ JUMPDEST DUP1 PUSH2 0x1B94 JUMPI POP PUSH1 0x7 DUP3 EQ JUMPDEST DUP1 PUSH2 0x1B9F JUMPI POP PUSH1 0x8 DUP3 EQ JUMPDEST DUP1 PUSH2 0x1BAA JUMPI POP PUSH1 0xA DUP3 EQ JUMPDEST DUP1 PUSH2 0x1BB5 JUMPI POP PUSH1 0xC DUP3 EQ JUMPDEST ISZERO PUSH2 0x1BC3 JUMPI PUSH1 0x1F SWAP1 POP PUSH2 0x1BF2 JUMP JUMPDEST PUSH1 0x2 DUP3 EQ PUSH2 0x1BD4 JUMPI PUSH1 0x1E SWAP1 POP PUSH2 0x1BF1 JUMP JUMPDEST PUSH2 0x1BDD DUP4 PUSH2 0x1D7B JUMP JUMPDEST PUSH2 0x1BE8 JUMPI PUSH1 0x1C PUSH2 0x1BEB JUMP JUMPDEST PUSH1 0x1D JUMPDEST PUSH1 0xFF AND SWAP1 POP JUMPDEST JUMPDEST SWAP3 SWAP2 POP POP JUMP JUMPDEST PUSH0 PUSH2 0x7B2 DUP5 LT ISZERO PUSH2 0x1C07 JUMPI PUSH0 PUSH0 REVERT JUMPDEST PUSH0 DUP5 SWAP1 POP PUSH0 DUP5 SWAP1 POP PUSH0 DUP5 SWAP1 POP PUSH0 PUSH3 0x253D8C PUSH1 0x4 PUSH1 0x64 PUSH1 0xC PUSH1 0xE DUP8 PUSH2 0x1C2B SWAP2 SWAP1 PUSH2 0x2DE5 JUMP JUMPDEST PUSH2 0x1C35 SWAP2 SWAP1 PUSH2 0x2D7D JUMP JUMPDEST PUSH2 0x1324 DUP9 PUSH2 0x1C43 SWAP2 SWAP1 PUSH2 0x2CC6 JUMP JUMPDEST PUSH2 0x1C4D SWAP2 SWAP1 PUSH2 0x2CC6 JUMP JUMPDEST PUSH2 0x1C57 SWAP2 SWAP1 PUSH2 0x2D7D JUMP JUMPDEST PUSH1 0x3 PUSH2 0x1C63 SWAP2 SWAP1 PUSH2 0x2D07 JUMP JUMPDEST PUSH2 0x1C6D SWAP2 SWAP1 PUSH2 0x2D7D JUMP JUMPDEST PUSH1 0xC DUP1 PUSH1 0xC PUSH1 0xE DUP9 PUSH2 0x1C7F SWAP2 SWAP1 PUSH2 0x2DE5 JUMP JUMPDEST PUSH2 0x1C89 SWAP2 SWAP1 PUSH2 0x2D7D JUMP JUMPDEST PUSH2 0x1C93 SWAP2 SWAP1 PUSH2 0x2D07 JUMP JUMPDEST PUSH1 0x2 DUP8 PUSH2 0x1CA0 SWAP2 SWAP1 PUSH2 0x2DE5 JUMP JUMPDEST PUSH2 0x1CAA SWAP2 SWAP1 PUSH2 0x2DE5 JUMP JUMPDEST PUSH2 0x16F PUSH2 0x1CB7 SWAP2 SWAP1 PUSH2 0x2D07 JUMP JUMPDEST PUSH2 0x1CC1 SWAP2 SWAP1 PUSH2 0x2D7D JUMP JUMPDEST PUSH1 0x4 PUSH1 0xC PUSH1 0xE DUP9 PUSH2 0x1CD2 SWAP2 SWAP1 PUSH2 0x2DE5 JUMP JUMPDEST PUSH2 0x1CDC SWAP2 SWAP1 PUSH2 0x2D7D JUMP JUMPDEST PUSH2 0x12C0 DUP10 PUSH2 0x1CEA SWAP2 SWAP1 PUSH2 0x2CC6 JUMP JUMPDEST PUSH2 0x1CF4 SWAP2 SWAP1 PUSH2 0x2CC6 JUMP JUMPDEST PUSH2 0x5B5 PUSH2 0x1D01 SWAP2 SWAP1 PUSH2 0x2D07 JUMP JUMPDEST PUSH2 0x1D0B SWAP2 SWAP1 PUSH2 0x2D7D JUMP JUMPDEST PUSH2 0x7D4B DUP7 PUSH2 0x1D19 SWAP2 SWAP1 PUSH2 0x2DE5 JUMP JUMPDEST PUSH2 0x1D23 SWAP2 SWAP1 PUSH2 0x2CC6 JUMP JUMPDEST PUSH2 0x1D2D SWAP2 SWAP1 PUSH2 0x2CC6 JUMP JUMPDEST PUSH2 0x1D37 SWAP2 SWAP1 PUSH2 0x2DE5 JUMP JUMPDEST PUSH2 0x1D41 SWAP2 SWAP1 PUSH2 0x2DE5 JUMP JUMPDEST SWAP1 POP DUP1 SWAP5 POP POP POP POP POP SWAP4 SWAP3 POP POP POP JUMP JUMPDEST PUSH0 PUSH11 0x636F6E736F6C652E6C6F67 SWAP1 POP PUSH0 PUSH0 DUP4 MLOAD PUSH1 0x20 DUP6 ADD DUP5 GAS STATICCALL POP POP POP JUMP JUMPDEST PUSH2 0x1DC1 DUP2 SWAP1 POP SWAP2 SWAP1 POP JUMP JUMPDEST PUSH0 PUSH0 PUSH1 0x4 DUP4 PUSH2 0x1D8A SWAP2 SWAP1 PUSH2 0x2C4C JUMP JUMPDEST EQ DUP1 ISZERO PUSH2 0x1DA3 JUMPI POP PUSH0 PUSH1 0x64 DUP4 PUSH2 0x1DA0 SWAP2 SWAP1 PUSH2 0x2C4C JUMP JUMPDEST EQ ISZERO JUMPDEST DUP1 PUSH2 0x1DBA JUMPI POP PUSH0 PUSH2 0x190 DUP4 PUSH2 0x1DB8 SWAP2 SWAP1 PUSH2 0x2C4C JUMP JUMPDEST EQ JUMPDEST SWAP1 POP SWAP2 SWAP1 POP JUMP JUMPDEST PUSH2 0x1DC9 PUSH2 0x2E25 JUMP JUMPDEST JUMP JUMPDEST PUSH0 PUSH0 REVERT JUMPDEST PUSH0 DUP2 SWAP1 POP SWAP2 SWAP1 POP JUMP JUMPDEST PUSH2 0x1DE1 DUP2 PUSH2 0x1DCF JUMP JUMPDEST DUP2 EQ PUSH2 0x1DEB JUMPI PUSH0 PUSH0 REVERT JUMPDEST POP JUMP JUMPDEST PUSH0 DUP2 CALLDATALOAD SWAP1 POP PUSH2 0x1DFC DUP2 PUSH2 0x1DD8 JUMP JUMPDEST SWAP3 SWAP2 POP POP JUMP JUMPDEST PUSH0 PUSH1 0x20 DUP3 DUP5 SUB SLT ISZERO PUSH2 0x1E17 JUMPI PUSH2 0x1E16 PUSH2 0x1DCB JUMP JUMPDEST JUMPDEST PUSH0 PUSH2 0x1E24 DUP5 DUP3 DUP6 ADD PUSH2 0x1DEE JUMP JUMPDEST SWAP2 POP POP SWAP3 SWAP2 POP POP JUMP JUMPDEST PUSH2 0x1E36 DUP2 PUSH2 0x1DCF JUMP JUMPDEST DUP3 MSTORE POP POP JUMP JUMPDEST PUSH0 PUSH1 0xFF DUP3 AND SWAP1 POP SWAP2 SWAP1 POP JUMP JUMPDEST PUSH2 0x1E51 DUP2 PUSH2 0x1E3C JUMP JUMPDEST DUP3 MSTORE POP POP JUMP JUMPDEST PUSH0 PUSH20 0xFFFFFFFFFFFFFFFFFFFFFFFFFFFFFFFFFFFFFFFF DUP3 AND SWAP1 POP SWAP2 SWAP1 POP JUMP JUMPDEST PUSH0 PUSH2 0x1E80 DUP3 PUSH2 0x1E57 JUMP JUMPDEST SWAP1 POP SWAP2 SWAP1 POP JUMP JUMPDEST PUSH2 0x1E90 DUP2 PUSH2 0x1E76 JUMP JUMPDEST DUP3 MSTORE POP POP JUMP JUMPDEST PUSH0 PUSH2 0x100 DUP3 ADD SWAP1 POP PUSH2 0x1EAA PUSH0 DUP4 ADD DUP12 PUSH2 0x1E2D JUMP JUMPDEST PUSH2 0x1EB7 PUSH1 0x20 DUP4 ADD DUP11 PUSH2 0x1E2D JUMP JUMPDEST PUSH2 0x1EC4 PUSH1 0x40 DUP4 ADD DUP10 PUSH2 0x1E48 JUMP JUMPDEST PUSH2 0x1ED1 PUSH1 0x60 DUP4 ADD DUP9 PUSH2 0x1E2D JUMP JUMPDEST PUSH2 0x1EDE PUSH1 0x80 DUP4 ADD DUP8 PUSH2 0x1E48 JUMP JUMPDEST PUSH2 0x1EEB PUSH1 0xA0 DUP4 ADD DUP7 PUSH2 0x1E48 JUMP JUMPDEST PUSH2 0x1EF8 PUSH1 0xC0 DUP4 ADD DUP6 PUSH2 0x1E87 JUMP JUMPDEST PUSH2 0x1F05 PUSH1 0xE0 DUP4 ADD DUP5 PUSH2 0x1E2D JUMP JUMPDEST SWAP10 SWAP9 POP POP POP POP POP POP POP POP POP JUMP JUMPDEST PUSH0 PUSH0 PUSH1 0x40 DUP4 DUP6 SUB SLT ISZERO PUSH2 0x1F28 JUMPI PUSH2 0x1F27 PUSH2 0x1DCB JUMP JUMPDEST JUMPDEST PUSH0 PUSH2 0x1F35 DUP6 DUP3 DUP7 ADD PUSH2 0x1DEE JUMP JUMPDEST SWAP3 POP POP PUSH1 0x20 PUSH2 0x1F46 DUP6 DUP3 DUP7 ADD PUSH2 0x1DEE JUMP JUMPDEST SWAP2 POP POP SWAP3 POP SWAP3 SWAP1 POP JUMP JUMPDEST PUSH0 PUSH1 0x20 DUP3 ADD SWAP1 POP PUSH2 0x1F63 PUSH0 DUP4 ADD DUP5 PUSH2 0x1E2D JUMP JUMPDEST SWAP3 SWAP2 POP POP JUMP JUMPDEST PUSH2 0x1F72 DUP2 PUSH2 0x1E76 JUMP JUMPDEST DUP2 EQ PUSH2 0x1F7C JUMPI PUSH0 PUSH0 REVERT JUMPDEST POP JUMP JUMPDEST PUSH0 DUP2 CALLDATALOAD SWAP1 POP PUSH2 0x1F8D DUP2 PUSH2 0x1F69 JUMP JUMPDEST SWAP3 SWAP2 POP POP JUMP JUMPDEST PUSH0 PUSH1 0x20 DUP3 DUP5 SUB SLT ISZERO PUSH2 0x1FA8 JUMPI PUSH2 0x1FA7 PUSH2 0x1DCB JUMP JUMPDEST JUMPDEST PUSH0 PUSH2 0x1FB5 DUP5 DUP3 DUP6 ADD PUSH2 0x1F7F JUMP JUMPDEST SWAP2 POP POP SWAP3 SWAP2 POP POP JUMP JUMPDEST PUSH0 DUP2 ISZERO ISZERO SWAP1 POP SWAP2 SWAP1 POP JUMP JUMPDEST PUSH2 0x1FD2 DUP2 PUSH2 0x1FBE JUMP JUMPDEST DUP3 MSTORE POP POP JUMP JUMPDEST PUSH0 PUSH1 0x20 DUP3 ADD SWAP1 POP PUSH2 0x1FEB PUSH0 DUP4 ADD DUP5 PUSH2 0x1FC9 JUMP JUMPDEST SWAP3 SWAP2 POP POP JUMP JUMPDEST PUSH0 PUSH1 0x60 DUP3 ADD SWAP1 POP PUSH2 0x2004 PUSH0 DUP4 ADD DUP7 PUSH2 0x1E87 JUMP JUMPDEST PUSH2 0x2011 PUSH1 0x20 DUP4 ADD DUP6 PUSH2 0x1E2D JUMP JUMPDEST PUSH2 0x201E PUSH1 0x40 DUP4 ADD DUP5 PUSH2 0x1E2D JUMP JUMPDEST SWAP5 SWAP4 POP POP POP POP JUMP JUMPDEST PUSH0 DUP2 MLOAD SWAP1 POP SWAP2 SWAP1 POP JUMP JUMPDEST PUSH0 DUP3 DUP3 MSTORE PUSH1 0x20 DUP3 ADD SWAP1 POP SWAP3 SWAP2 POP POP JUMP JUMPDEST PUSH0 DUP2 SWAP1 POP PUSH1 0x20 DUP3 ADD SWAP1 POP SWAP2 SWAP1 POP JUMP JUMPDEST PUSH2 0x2058 DUP2 PUSH2 0x1DCF JUMP JUMPDEST DUP3 MSTORE POP POP JUMP JUMPDEST PUSH1 0xA0 DUP3 ADD PUSH0 DUP3 ADD MLOAD PUSH2 0x2072 PUSH0 DUP6 ADD DUP3 PUSH2 0x204F JUMP JUMPDEST POP PUSH1 0x20 DUP3 ADD MLOAD PUSH2 0x2085 PUSH1 0x20 DUP6 ADD DUP3 PUSH2 0x204F JUMP JUMPDEST POP PUSH1 0x40 DUP3 ADD MLOAD PUSH2 0x2098 PUSH1 0x40 DUP6 ADD DUP3 PUSH2 0x204F JUMP JUMPDEST POP PUSH1 0x60 DUP3 ADD MLOAD PUSH2 0x20AB PUSH1 0x60 DUP6 ADD DUP3 PUSH2 0x204F JUMP JUMPDEST POP PUSH1 0x80 DUP3 ADD MLOAD PUSH2 0x20BE PUSH1 0x80 DUP6 ADD DUP3 PUSH2 0x204F JUMP JUMPDEST POP POP POP POP JUMP JUMPDEST PUSH0 PUSH2 0x20CF DUP4 DUP4 PUSH2 0x205E JUMP JUMPDEST PUSH1 0xA0 DUP4 ADD SWAP1 POP SWAP3 SWAP2 POP POP JUMP JUMPDEST PUSH0 PUSH1 0x20 DUP3 ADD SWAP1 POP SWAP2 SWAP1 POP JUMP JUMPDEST PUSH0 PUSH2 0x20F1 DUP3 PUSH2 0x2026 JUMP JUMPDEST PUSH2 0x20FB DUP2 DUP6 PUSH2 0x2030 JUMP JUMPDEST SWAP4 POP PUSH2 0x2106 DUP4 PUSH2 0x2040 JUMP JUMPDEST DUP1 PUSH0 JUMPDEST DUP4 DUP2 LT ISZERO PUSH2 0x2136 JUMPI DUP2 MLOAD PUSH2 0x211D DUP9 DUP3 PUSH2 0x20C4 JUMP JUMPDEST SWAP8 POP PUSH2 0x2128 DUP4 PUSH2 0x20DB JUMP JUMPDEST SWAP3 POP POP PUSH1 0x1 DUP2 ADD SWAP1 POP PUSH2 0x2109 JUMP JUMPDEST POP DUP6 SWAP4 POP POP POP POP SWAP3 SWAP2 POP POP JUMP JUMPDEST PUSH0 PUSH1 0x20 DUP3 ADD SWAP1 POP DUP2 DUP2 SUB PUSH0 DUP4 ADD MSTORE PUSH2 0x215B DUP2 DUP5 PUSH2 0x20E7 JUMP JUMPDEST SWAP1 POP SWAP3 SWAP2 POP POP JUMP JUMPDEST PUSH2 0x216C DUP2 PUSH2 0x1E3C JUMP JUMPDEST DUP2 EQ PUSH2 0x2176 JUMPI PUSH0 PUSH0 REVERT JUMPDEST POP JUMP JUMPDEST PUSH0 DUP2 CALLDATALOAD SWAP1 POP PUSH2 0x2187 DUP2 PUSH2 0x2163 JUMP JUMPDEST SWAP3 SWAP2 POP POP JUMP JUMPDEST PUSH0 PUSH0 PUSH0 PUSH0 PUSH0 PUSH1 0xA0 DUP7 DUP9 SUB SLT ISZERO PUSH2 0x21A6 JUMPI PUSH2 0x21A5 PUSH2 0x1DCB JUMP JUMPDEST JUMPDEST PUSH0 PUSH2 0x21B3 DUP9 DUP3 DUP10 ADD PUSH2 0x1DEE JUMP JUMPDEST SWAP6 POP POP PUSH1 0x20 PUSH2 0x21C4 DUP9 DUP3 DUP10 ADD PUSH2 0x1DEE JUMP JUMPDEST SWAP5 POP POP PUSH1 0x40 PUSH2 0x21D5 DUP9 DUP3 DUP10 ADD PUSH2 0x2179 JUMP JUMPDEST SWAP4 POP POP PUSH1 0x60 PUSH2 0x21E6 DUP9 DUP3 DUP10 ADD PUSH2 0x1DEE JUMP JUMPDEST SWAP3 POP POP PUSH1 0x80 PUSH2 0x21F7 DUP9 DUP3 DUP10 ADD PUSH2 0x2179 JUMP JUMPDEST SWAP2 POP POP SWAP3 SWAP6 POP SWAP3 SWAP6 SWAP1 SWAP4 POP JUMP JUMPDEST PUSH0 PUSH0 PUSH1 0x40 DUP4 DUP6 SUB SLT ISZERO PUSH2 0x221A JUMPI PUSH2 0x2219 PUSH2 0x1DCB JUMP JUMPDEST JUMPDEST PUSH0 PUSH2 0x2227 DUP6 DUP3 DUP7 ADD PUSH2 0x1F7F JUMP JUMPDEST SWAP3 POP POP PUSH1 0x20 PUSH2 0x2238 DUP6 DUP3 DUP7 ADD PUSH2 0x1DEE JUMP JUMPDEST SWAP2 POP POP SWAP3 POP SWAP3 SWAP1 POP JUMP JUMPDEST PUSH0 PUSH1 0xA0 DUP3 ADD SWAP1 POP PUSH2 0x2255 PUSH0 DUP4 ADD DUP9 PUSH2 0x1E2D JUMP JUMPDEST PUSH2 0x2262 PUSH1 0x20 DUP4 ADD DUP8 PUSH2 0x1E2D JUMP JUMPDEST PUSH2 0x226F PUSH1 0x40 DUP4 ADD DUP7 PUSH2 0x1E2D JUMP JUMPDEST PUSH2 0x227C PUSH1 0x60 DUP4 ADD DUP6 PUSH2 0x1E2D JUMP JUMPDEST PUSH2 0x2289 PUSH1 0x80 DUP4 ADD DUP5 PUSH2 0x1E2D JUMP JUMPDEST SWAP7 SWAP6 POP POP POP POP POP POP JUMP JUMPDEST PUSH32 0x4E487B7100000000000000000000000000000000000000000000000000000000 PUSH0 MSTORE PUSH1 0x32 PUSH1 0x4 MSTORE PUSH1 0x24 PUSH0 REVERT JUMPDEST PUSH0 DUP3 DUP3 MSTORE PUSH1 0x20 DUP3 ADD SWAP1 POP SWAP3 SWAP2 POP POP JUMP JUMPDEST PUSH32 0x4F6E6C79207468652070726F6A65637420696E69746961746F722063616E2063 PUSH0 DUP3 ADD MSTORE PUSH32 0x616E63656C207468652070726F6A656374000000000000000000000000000000 PUSH1 0x20 DUP3 ADD MSTORE POP JUMP JUMPDEST PUSH0 PUSH2 0x232A PUSH1 0x31 DUP4 PUSH2 0x22C0 JUMP JUMPDEST SWAP2 POP PUSH2 0x2335 DUP3 PUSH2 0x22D0 JUMP JUMPDEST PUSH1 0x40 DUP3 ADD SWAP1 POP SWAP2 SWAP1 POP JUMP JUMPDEST PUSH0 PUSH1 0x20 DUP3 ADD SWAP1 POP DUP2 DUP2 SUB PUSH0 DUP4 ADD MSTORE PUSH2 0x2357 DUP2 PUSH2 0x231E JUMP JUMPDEST SWAP1 POP SWAP2 SWAP1 POP JUMP JUMPDEST PUSH32 0x4F6E6C792070726F6A6563747320647572696E67207468652066756E64696E67 PUSH0 DUP3 ADD MSTORE PUSH32 0x20706572696F642063616E2062652063616E63656C6C65640000000000000000 PUSH1 0x20 DUP3 ADD MSTORE POP JUMP JUMPDEST PUSH0 PUSH2 0x23B8 PUSH1 0x38 DUP4 PUSH2 0x22C0 JUMP JUMPDEST SWAP2 POP PUSH2 0x23C3 DUP3 PUSH2 0x235E JUMP JUMPDEST PUSH1 0x40 DUP3 ADD SWAP1 POP SWAP2 SWAP1 POP JUMP JUMPDEST PUSH0 PUSH1 0x20 DUP3 ADD SWAP1 POP DUP2 DUP2 SUB PUSH0 DUP4 ADD MSTORE PUSH2 0x23E5 DUP2 PUSH2 0x23AC JUMP JUMPDEST SWAP1 POP SWAP2 SWAP1 POP JUMP JUMPDEST PUSH0 DUP2 SWAP1 POP SWAP3 SWAP2 POP POP JUMP JUMPDEST POP JUMP JUMPDEST PUSH0 PUSH2 0x2404 PUSH0 DUP4 PUSH2 0x23EC JUMP JUMPDEST SWAP2 POP PUSH2 0x240F DUP3 PUSH2 0x23F6 JUMP JUMPDEST PUSH0 DUP3 ADD SWAP1 POP SWAP2 SWAP1 POP JUMP JUMPDEST PUSH0 PUSH2 0x2423 DUP3 PUSH2 0x23F9 JUMP JUMPDEST SWAP2 POP DUP2 SWAP1 POP SWAP2 SWAP1 POP JUMP JUMPDEST PUSH0 DUP2 PUSH1 0x60 SHL SWAP1 POP SWAP2 SWAP1 POP JUMP JUMPDEST PUSH0 PUSH2 0x2443 DUP3 PUSH2 0x242D JUMP JUMPDEST SWAP1 POP SWAP2 SWAP1 POP JUMP JUMPDEST PUSH0 PUSH2 0x2454 DUP3 PUSH2 0x2439 JUMP JUMPDEST SWAP1 POP SWAP2 SWAP1 POP JUMP JUMPDEST PUSH2 0x246C PUSH2 0x2467 DUP3 PUSH2 0x1E76 JUMP JUMPDEST PUSH2 0x244A JUMP JUMPDEST DUP3 MSTORE POP POP JUMP JUMPDEST PUSH0 PUSH2 0x247D DUP3 DUP5 PUSH2 0x245B JUMP JUMPDEST PUSH1 0x14 DUP3 ADD SWAP2 POP DUP2 SWAP1 POP SWAP3 SWAP2 POP POP JUMP JUMPDEST PUSH32 0x7472616E7366657220746F200000000000000000000000000000000000000000 DUP2 MSTORE POP JUMP JUMPDEST PUSH0 DUP2 MLOAD SWAP1 POP SWAP2 SWAP1 POP JUMP JUMPDEST PUSH0 DUP2 SWAP1 POP SWAP3 SWAP2 POP POP JUMP JUMPDEST DUP3 DUP2 DUP4 MCOPY PUSH0 DUP4 DUP4 ADD MSTORE POP POP POP JUMP JUMPDEST PUSH0 PUSH2 0x24DE DUP3 PUSH2 0x24B2 JUMP JUMPDEST PUSH2 0x24E8 DUP2 DUP6 PUSH2 0x24BC JUMP JUMPDEST SWAP4 POP PUSH2 0x24F8 DUP2 DUP6 PUSH1 0x20 DUP7 ADD PUSH2 0x24C6 JUMP JUMPDEST DUP1 DUP5 ADD SWAP2 POP POP SWAP3 SWAP2 POP POP JUMP JUMPDEST PUSH32 0x206661696C202100000000000000000000000000000000000000000000000000 DUP2 MSTORE POP JUMP JUMPDEST PUSH0 PUSH2 0x2534 DUP3 PUSH2 0x248C JUMP JUMPDEST PUSH1 0xC DUP3 ADD SWAP2 POP PUSH2 0x2544 DUP3 DUP5 PUSH2 0x24D4 JUMP JUMPDEST SWAP2 POP PUSH2 0x254F DUP3 PUSH2 0x2504 JUMP JUMPDEST PUSH1 0x7 DUP3 ADD SWAP2 POP DUP2 SWAP1 POP SWAP3 SWAP2 POP POP JUMP JUMPDEST PUSH0 PUSH1 0x1F NOT PUSH1 0x1F DUP4 ADD AND SWAP1 POP SWAP2 SWAP1 POP JUMP JUMPDEST PUSH0 PUSH2 0x2578 DUP3 PUSH2 0x24B2 JUMP JUMPDEST PUSH2 0x2582 DUP2 DUP6 PUSH2 0x22C0 JUMP JUMPDEST SWAP4 POP PUSH2 0x2592 DUP2 DUP6 PUSH1 0x20 DUP7 ADD PUSH2 0x24C6 JUMP JUMPDEST PUSH2 0x259B DUP2 PUSH2 0x255E JUMP JUMPDEST DUP5 ADD SWAP2 POP POP SWAP3 SWAP2 POP POP JUMP JUMPDEST PUSH0 PUSH1 0x20 DUP3 ADD SWAP1 POP DUP2 DUP2 SUB PUSH0 DUP4 ADD MSTORE PUSH2 0x25BE DUP2 DUP5 PUSH2 0x256E JUMP JUMPDEST SWAP1 POP SWAP3 SWAP2 POP POP JUMP JUMPDEST PUSH32 0x4F6E6C792070726F6A656374732074686174206861766520656E746572656420 PUSH0 DUP3 ADD MSTORE PUSH32 0x7468652072657061796D656E7420706572696F642063616E2062652072657061 PUSH1 0x20 DUP3 ADD MSTORE PUSH32 0x69642E0000000000000000000000000000000000000000000000000000000000 PUSH1 0x40 DUP3 ADD MSTORE POP JUMP JUMPDEST PUSH0 PUSH2 0x2646 PUSH1 0x43 DUP4 PUSH2 0x22C0 JUMP JUMPDEST SWAP2 POP PUSH2 0x2651 DUP3 PUSH2 0x25C6 JUMP JUMPDEST PUSH1 0x60 DUP3 ADD SWAP1 POP SWAP2 SWAP1 POP JUMP JUMPDEST PUSH0 PUSH1 0x20 DUP3 ADD SWAP1 POP DUP2 DUP2 SUB PUSH0 DUP4 ADD MSTORE PUSH2 0x2673 DUP2 PUSH2 0x263A JUMP JUMPDEST SWAP1 POP SWAP2 SWAP1 POP JUMP JUMPDEST PUSH32 0x4F6E6C79207468652070726F6A65637420696E69746961746F722063616E2072 PUSH0 DUP3 ADD MSTORE PUSH32 0x6570617920746865206C6F616E00000000000000000000000000000000000000 PUSH1 0x20 DUP3 ADD MSTORE POP JUMP JUMPDEST PUSH0 PUSH2 0x26D4 PUSH1 0x2D DUP4 PUSH2 0x22C0 JUMP JUMPDEST SWAP2 POP PUSH2 0x26DF DUP3 PUSH2 0x267A JUMP JUMPDEST PUSH1 0x40 DUP3 ADD SWAP1 POP SWAP2 SWAP1 POP JUMP JUMPDEST PUSH0 PUSH1 0x20 DUP3 ADD SWAP1 POP DUP2 DUP2 SUB PUSH0 DUP4 ADD MSTORE PUSH2 0x2701 DUP2 PUSH2 0x26C8 JUMP JUMPDEST SWAP1 POP SWAP2 SWAP1 POP JUMP JUMPDEST PUSH32 0x4F6E6C792070726F6A6563747320696E207468652066756E64696E6720706861 PUSH0 DUP3 ADD MSTORE PUSH32 0x73652063616E20726563656976652066756E64696E6700000000000000000000 PUSH1 0x20 DUP3 ADD MSTORE POP JUMP JUMPDEST PUSH0 PUSH2 0x2762 PUSH1 0x36 DUP4 PUSH2 0x22C0 JUMP JUMPDEST SWAP2 POP PUSH2 0x276D DUP3 PUSH2 0x2708 JUMP JUMPDEST PUSH1 0x40 DUP3 ADD SWAP1 POP SWAP2 SWAP1 POP JUMP JUMPDEST PUSH0 PUSH1 0x20 DUP3 ADD SWAP1 POP DUP2 DUP2 SUB PUSH0 DUP4 ADD MSTORE PUSH2 0x278F DUP2 PUSH2 0x2756 JUMP JUMPDEST SWAP1 POP SWAP2 SWAP1 POP JUMP JUMPDEST PUSH32 0x50726F6A656374206C61756E6368657220617265206E6F7420616C6C6F776564 PUSH0 DUP3 ADD MSTORE PUSH32 0x20746F20636F6E74726962757465206361706974616C00000000000000000000 PUSH1 0x20 DUP3 ADD MSTORE POP JUMP JUMPDEST PUSH0 PUSH2 0x27F0 PUSH1 0x36 DUP4 PUSH2 0x22C0 JUMP JUMPDEST SWAP2 POP PUSH2 0x27FB DUP3 PUSH2 0x2796 JUMP JUMPDEST PUSH1 0x40 DUP3 ADD SWAP1 POP SWAP2 SWAP1 POP JUMP JUMPDEST PUSH0 PUSH1 0x20 DUP3 ADD SWAP1 POP DUP2 DUP2 SUB PUSH0 DUP4 ADD MSTORE PUSH2 0x281D DUP2 PUSH2 0x27E4 JUMP JUMPDEST SWAP1 POP SWAP2 SWAP1 POP JUMP JUMPDEST PUSH32 0x416D6F756E74206D75737420626967676572207468616E203000000000000000 PUSH0 DUP3 ADD MSTORE POP JUMP JUMPDEST PUSH0 PUSH2 0x2858 PUSH1 0x19 DUP4 PUSH2 0x22C0 JUMP JUMPDEST SWAP2 POP PUSH2 0x2863 DUP3 PUSH2 0x2824 JUMP JUMPDEST PUSH1 0x20 DUP3 ADD SWAP1 POP SWAP2 SWAP1 POP JUMP JUMPDEST PUSH0 PUSH1 0x20 DUP3 ADD SWAP1 POP DUP2 DUP2 SUB PUSH0 DUP4 ADD MSTORE PUSH2 0x2885 DUP2 PUSH2 0x284C JUMP JUMPDEST SWAP1 POP SWAP2 SWAP1 POP JUMP JUMPDEST PUSH32 0x4E487B7100000000000000000000000000000000000000000000000000000000 PUSH0 MSTORE PUSH1 0x11 PUSH1 0x4 MSTORE PUSH1 0x24 PUSH0 REVERT JUMPDEST PUSH0 PUSH2 0x28C3 DUP3 PUSH2 0x1DCF JUMP JUMPDEST SWAP2 POP PUSH2 0x28CE DUP4 PUSH2 0x1DCF JUMP JUMPDEST SWAP3 POP DUP3 DUP3 SUB SWAP1 POP DUP2 DUP2 GT ISZERO PUSH2 0x28E6 JUMPI PUSH2 0x28E5 PUSH2 0x288C JUMP JUMPDEST JUMPDEST SWAP3 SWAP2 POP POP JUMP JUMPDEST PUSH32 0x54686520616D6F756E74206F662066756E647320636F6E747269627574656420 PUSH0 DUP3 ADD MSTORE PUSH32 0x65786365656473207468652070726F6A65637420726571756972656D656E7473 PUSH1 0x20 DUP3 ADD MSTORE POP JUMP JUMPDEST PUSH0 PUSH2 0x2946 PUSH1 0x40 DUP4 PUSH2 0x22C0 JUMP JUMPDEST SWAP2 POP PUSH2 0x2951 DUP3 PUSH2 0x28EC JUMP JUMPDEST PUSH1 0x40 DUP3 ADD SWAP1 POP SWAP2 SWAP1 POP JUMP JUMPDEST PUSH0 PUSH1 0x20 DUP3 ADD SWAP1 POP DUP2 DUP2 SUB PUSH0 DUP4 ADD MSTORE PUSH2 0x2973 DUP2 PUSH2 0x293A JUMP JUMPDEST SWAP1 POP SWAP2 SWAP1 POP JUMP JUMPDEST PUSH0 PUSH2 0x2984 DUP3 PUSH2 0x1DCF JUMP JUMPDEST SWAP2 POP PUSH2 0x298F DUP4 PUSH2 0x1DCF JUMP JUMPDEST SWAP3 POP DUP3 DUP3 ADD SWAP1 POP DUP1 DUP3 GT ISZERO PUSH2 0x29A7 JUMPI PUSH2 0x29A6 PUSH2 0x288C JUMP JUMPDEST JUMPDEST SWAP3 SWAP2 POP POP JUMP JUMPDEST PUSH32 0x616D6F756E74206D75737420626967676572207468616E203000000000000000 PUSH0 DUP3 ADD MSTORE POP JUMP JUMPDEST PUSH0 PUSH2 0x29E1 PUSH1 0x19 DUP4 PUSH2 0x22C0 JUMP JUMPDEST SWAP2 POP PUSH2 0x29EC DUP3 PUSH2 0x29AD JUMP JUMPDEST PUSH1 0x20 DUP3 ADD SWAP1 POP SWAP2 SWAP1 POP JUMP JUMPDEST PUSH0 PUSH1 0x20 DUP3 ADD SWAP1 POP DUP2 DUP2 SUB PUSH0 DUP4 ADD MSTORE PUSH2 0x2A0E DUP2 PUSH2 0x29D5 JUMP JUMPDEST SWAP1 POP SWAP2 SWAP1 POP JUMP JUMPDEST PUSH32 0x7465726D206D75737420626967676572207468616E2030000000000000000000 PUSH0 DUP3 ADD MSTORE POP JUMP JUMPDEST PUSH0 PUSH2 0x2A49 PUSH1 0x17 DUP4 PUSH2 0x22C0 JUMP JUMPDEST SWAP2 POP PUSH2 0x2A54 DUP3 PUSH2 0x2A15 JUMP JUMPDEST PUSH1 0x20 DUP3 ADD SWAP1 POP SWAP2 SWAP1 POP JUMP JUMPDEST PUSH0 PUSH1 0x20 DUP3 ADD SWAP1 POP DUP2 DUP2 SUB PUSH0 DUP4 ADD MSTORE PUSH2 0x2A76 DUP2 PUSH2 0x2A3D JUMP JUMPDEST SWAP1 POP SWAP2 SWAP1 POP JUMP JUMPDEST PUSH32 0x636F6C6C65637420656E642074696D65206D7573742062652067726561746572 PUSH0 DUP3 ADD MSTORE PUSH32 0x207468616E20323420686F757273000000000000000000000000000000000000 PUSH1 0x20 DUP3 ADD MSTORE POP JUMP JUMPDEST PUSH0 PUSH2 0x2AD7 PUSH1 0x2E DUP4 PUSH2 0x22C0 JUMP JUMPDEST SWAP2 POP PUSH2 0x2AE2 DUP3 PUSH2 0x2A7D JUMP JUMPDEST PUSH1 0x40 DUP3 ADD SWAP1 POP SWAP2 SWAP1 POP JUMP JUMPDEST PUSH0 PUSH1 0x20 DUP3 ADD SWAP1 POP DUP2 DUP2 SUB PUSH0 DUP4 ADD MSTORE PUSH2 0x2B04 DUP2 PUSH2 0x2ACB JUMP JUMPDEST SWAP1 POP SWAP2 SWAP1 POP JUMP JUMPDEST PUSH32 0x7265706179206D6574686F64206D757374206265203100000000000000000000 PUSH0 DUP3 ADD MSTORE POP JUMP JUMPDEST PUSH0 PUSH2 0x2B3F PUSH1 0x16 DUP4 PUSH2 0x22C0 JUMP JUMPDEST SWAP2 POP PUSH2 0x2B4A DUP3 PUSH2 0x2B0B JUMP JUMPDEST PUSH1 0x20 DUP3 ADD SWAP1 POP SWAP2 SWAP1 POP JUMP JUMPDEST PUSH0 PUSH1 0x20 DUP3 ADD SWAP1 POP DUP2 DUP2 SUB PUSH0 DUP4 ADD MSTORE PUSH2 0x2B6C DUP2 PUSH2 0x2B33 JUMP JUMPDEST SWAP1 POP SWAP2 SWAP1 POP JUMP JUMPDEST PUSH0 PUSH2 0x2B7D DUP3 PUSH2 0x1DCF JUMP JUMPDEST SWAP2 POP PUSH32 0xFFFFFFFFFFFFFFFFFFFFFFFFFFFFFFFFFFFFFFFFFFFFFFFFFFFFFFFFFFFFFFFF DUP3 SUB PUSH2 0x2BAF JUMPI PUSH2 0x2BAE PUSH2 0x288C JUMP JUMPDEST JUMPDEST PUSH1 0x1 DUP3 ADD SWAP1 POP SWAP2 SWAP1 POP JUMP JUMPDEST PUSH0 PUSH1 0x60 DUP3 ADD SWAP1 POP PUSH2 0x2BCD PUSH0 DUP4 ADD DUP7 PUSH2 0x1E2D JUMP JUMPDEST PUSH2 0x2BDA PUSH1 0x20 DUP4 ADD DUP6 PUSH2 0x1E2D JUMP JUMPDEST PUSH2 0x2BE7 PUSH1 0x40 DUP4 ADD DUP5 PUSH2 0x1E2D JUMP JUMPDEST SWAP5 SWAP4 POP POP POP POP JUMP JUMPDEST PUSH32 0x4E487B7100000000000000000000000000000000000000000000000000000000 PUSH0 MSTORE PUSH1 0x12 PUSH1 0x4 MSTORE PUSH1 0x24 PUSH0 REVERT JUMPDEST PUSH0 PUSH2 0x2C26 DUP3 PUSH2 0x1DCF JUMP JUMPDEST SWAP2 POP PUSH2 0x2C31 DUP4 PUSH2 0x1DCF JUMP JUMPDEST SWAP3 POP DUP3 PUSH2 0x2C41 JUMPI PUSH2 0x2C40 PUSH2 0x2BEF JUMP JUMPDEST JUMPDEST DUP3 DUP3 DIV SWAP1 POP SWAP3 SWAP2 POP POP JUMP JUMPDEST PUSH0 PUSH2 0x2C56 DUP3 PUSH2 0x1DCF JUMP JUMPDEST SWAP2 POP PUSH2 0x2C61 DUP4 PUSH2 0x1DCF JUMP JUMPDEST SWAP3 POP DUP3 PUSH2 0x2C71 JUMPI PUSH2 0x2C70 PUSH2 0x2BEF JUMP JUMPDEST JUMPDEST DUP3 DUP3 MOD SWAP1 POP SWAP3 SWAP2 POP POP JUMP JUMPDEST PUSH0 PUSH2 0x2C86 DUP3 PUSH2 0x1DCF JUMP JUMPDEST SWAP2 POP PUSH2 0x2C91 DUP4 PUSH2 0x1DCF JUMP JUMPDEST SWAP3 POP DUP3 DUP3 MUL PUSH2 0x2C9F DUP2 PUSH2 0x1DCF JUMP JUMPDEST SWAP2 POP DUP3 DUP3 DIV DUP5 EQ DUP4 ISZERO OR PUSH2 0x2CB6 JUMPI PUSH2 0x2CB5 PUSH2 0x288C JUMP JUMPDEST JUMPDEST POP SWAP3 SWAP2 POP POP JUMP JUMPDEST PUSH0 DUP2 SWAP1 POP SWAP2 SWAP1 POP JUMP JUMPDEST PUSH0 PUSH2 0x2CD0 DUP3 PUSH2 0x2CBD JUMP JUMPDEST SWAP2 POP PUSH2 0x2CDB DUP4 PUSH2 0x2CBD JUMP JUMPDEST SWAP3 POP DUP3 DUP3 ADD SWAP1 POP DUP3 DUP2 SLT ISZERO PUSH0 DUP4 SLT AND DUP4 DUP3 SLT PUSH0 DUP5 SLT ISZERO AND OR ISZERO PUSH2 0x2D01 JUMPI PUSH2 0x2D00 PUSH2 0x288C JUMP JUMPDEST JUMPDEST SWAP3 SWAP2 POP POP JUMP JUMPDEST PUSH0 PUSH2 0x2D11 DUP3 PUSH2 0x2CBD JUMP JUMPDEST SWAP2 POP PUSH2 0x2D1C DUP4 PUSH2 0x2CBD JUMP JUMPDEST SWAP3 POP DUP3 DUP3 MUL PUSH2 0x2D2A DUP2 PUSH2 0x2CBD JUMP JUMPDEST SWAP2 POP PUSH32 0x8000000000000000000000000000000000000000000000000000000000000000 DUP5 EQ PUSH0 DUP5 SLT AND ISZERO PUSH2 0x2D61 JUMPI PUSH2 0x2D60 PUSH2 0x288C JUMP JUMPDEST JUMPDEST DUP3 DUP3 SDIV DUP5 EQ DUP4 ISZERO OR PUSH2 0x2D76 JUMPI PUSH2 0x2D75 PUSH2 0x288C JUMP JUMPDEST JUMPDEST POP SWAP3 SWAP2 POP POP JUMP JUMPDEST PUSH0 PUSH2 0x2D87 DUP3 PUSH2 0x2CBD JUMP JUMPDEST SWAP2 POP PUSH2 0x2D92 DUP4 PUSH2 0x2CBD JUMP JUMPDEST SWAP3 POP DUP3 PUSH2 0x2DA2 JUMPI PUSH2 0x2DA1 PUSH2 0x2BEF JUMP JUMPDEST JUMPDEST PUSH1 0x1 PUSH0 SUB DUP4 EQ PUSH32 0x8000000000000000000000000000000000000000000000000000000000000000 DUP4 EQ AND ISZERO PUSH2 0x2DDA JUMPI PUSH2 0x2DD9 PUSH2 0x288C JUMP JUMPDEST JUMPDEST DUP3 DUP3 SDIV SWAP1 POP SWAP3 SWAP2 POP POP JUMP JUMPDEST PUSH0 PUSH2 0x2DEF DUP3 PUSH2 0x2CBD JUMP JUMPDEST SWAP2 POP PUSH2 0x2DFA DUP4 PUSH2 0x2CBD JUMP JUMPDEST SWAP3 POP DUP3 DUP3 SUB SWAP1 POP DUP2 DUP2 SLT PUSH0 DUP5 SLT AND DUP3 DUP3 SGT PUSH0 DUP6 SLT ISZERO AND OR ISZERO PUSH2 0x2E1F JUMPI PUSH2 0x2E1E PUSH2 0x288C JUMP JUMPDEST JUMPDEST SWAP3 SWAP2 POP POP JUMP JUMPDEST PUSH32 0x4E487B7100000000000000000000000000000000000000000000000000000000 PUSH0 MSTORE PUSH1 0x51 PUSH1 0x4 MSTORE PUSH1 0x24 PUSH0 REVERT INVALID LOG2 PUSH5 0x6970667358 0x22 SLT KECCAK256 STATICCALL SSTORE 0xE4 0xC8 0xA7 CHAINID 0xF 0xB9 0xAC 0xC9 0xDC SDIV MLOAD 0xA9 LOG4 0x27 PUSH18 0x62B33F325C0D5C0AEFE604554EBB2364736F PUSH13 0x634300081B0033000000000000 "
		},
		"gasEstimates": {
			"creation": {
				"codeDepositCost": "2382400",
				"executionCost": "2558",
				"totalCost": "2384958"
			},
			"external": {
				"bb(uint256,uint256)": "infinite",
				"bills(uint256,uint256)": "infinite",
				"contribute(uint256)": "infinite",
				"contributeProjects(address,uint256)": "infinite",
				"contribution(uint256,uint256)": "infinite",
				"createProject(uint256,uint256,uint8,uint256,uint8)": "infinite",
				"creditScore(address)": "2890",
				"getAmountNeedRepayNow(uint256)": "infinite",
				"getBillsByPid(uint256)": "infinite",
				"launchProjects(address,uint256)": "infinite",
				"projects(uint256)": "infinite",
				"repay(uint256)": "7346",
				"revocateProject(uint256)": "infinite",
				"users(address)": "2877"
			},
			"internal": {
				"getRepayMonthly(int128,int128,uint8)": "infinite"
			}
		},
		"methodIdentifiers": {
			"bb(uint256,uint256)": "259ba3eb",
			"bills(uint256,uint256)": "f0962151",
			"contribute(uint256)": "c1cbbca7",
			"contributeProjects(address,uint256)": "cea3ec15",
			"contribution(uint256,uint256)": "b12d02fc",
			"createProject(uint256,uint256,uint8,uint256,uint8)": "cde128db",
			"creditScore(address)": "f7e590ee",
			"getAmountNeedRepayNow(uint256)": "add85f7d",
			"getBillsByPid(uint256)": "b43952c4",
			"launchProjects(address,uint256)": "dbbc7a84",
			"projects(uint256)": "107046bd",
			"repay(uint256)": "371fd8e6",
			"revocateProject(uint256)": "300b949f",
			"users(address)": "a87430ba"
		}
	},
	"abi": [
		{
			"inputs": [
				{
					"internalType": "uint256",
					"name": "",
					"type": "uint256"
				},
				{
					"internalType": "uint256",
					"name": "",
					"type": "uint256"
				}
			],
			"name": "bb",
			"outputs": [
				{
					"internalType": "uint256",
					"name": "",
					"type": "uint256"
				}
			],
			"stateMutability": "view",
			"type": "function"
		},
		{
			"inputs": [
				{
					"internalType": "uint256",
					"name": "",
					"type": "uint256"
				},
				{
					"internalType": "uint256",
					"name": "",
					"type": "uint256"
				}
			],
			"name": "bills",
			"outputs": [
				{
					"internalType": "uint256",
					"name": "projectId",
					"type": "uint256"
				},
				{
					"internalType": "uint256",
					"name": "repayTime",
					"type": "uint256"
				},
				{
					"internalType": "uint256",
					"name": "principal",
					"type": "uint256"
				},
				{
					"internalType": "uint256",
					"name": "interest",
					"type": "uint256"
				},
				{
					"internalType": "uint256",
					"name": "repaid",
					"type": "uint256"
				}
			],
			"stateMutability": "view",
			"type": "function"
		},
		{
			"inputs": [
				{
					"internalType": "uint256",
					"name": "pid",
					"type": "uint256"
				}
			],
			"name": "contribute",
			"outputs": [],
			"stateMutability": "payable",
			"type": "function"
		},
		{
			"inputs": [
				{
					"internalType": "address",
					"name": "",
					"type": "address"
				},
				{
					"internalType": "uint256",
					"name": "",
					"type": "uint256"
				}
			],
			"name": "contributeProjects",
			"outputs": [
				{
					"internalType": "uint256",
					"name": "",
					"type": "uint256"
				}
			],
			"stateMutability": "view",
			"type": "function"
		},
		{
			"inputs": [
				{
					"internalType": "uint256",
					"name": "",
					"type": "uint256"
				},
				{
					"internalType": "uint256",
					"name": "",
					"type": "uint256"
				}
			],
			"name": "contribution",
			"outputs": [
				{
					"internalType": "address",
					"name": "investor",
					"type": "address"
				},
				{
					"internalType": "uint256",
					"name": "amount",
					"type": "uint256"
				},
				{
					"internalType": "uint256",
					"name": "time",
					"type": "uint256"
				}
			],
			"stateMutability": "view",
			"type": "function"
		},
		{
			"inputs": [
				{
					"internalType": "uint256",
					"name": "_amount",
					"type": "uint256"
				},
				{
					"internalType": "uint256",
					"name": "_rate",
					"type": "uint256"
				},
				{
					"internalType": "uint8",
					"name": "_term",
					"type": "uint8"
				},
				{
					"internalType": "uint256",
					"name": "_collectEndTime",
					"type": "uint256"
				},
				{
					"internalType": "uint8",
					"name": "_repayMethod",
					"type": "uint8"
				}
			],
			"name": "createProject",
			"outputs": [],
			"stateMutability": "nonpayable",
			"type": "function"
		},
		{
			"inputs": [
				{
					"internalType": "address",
					"name": "",
					"type": "address"
				}
			],
			"name": "creditScore",
			"outputs": [
				{
					"internalType": "uint256",
					"name": "",
					"type": "uint256"
				}
			],
			"stateMutability": "view",
			"type": "function"
		},
		{
			"inputs": [
				{
					"internalType": "uint256",
					"name": "pid",
					"type": "uint256"
				}
			],
			"name": "getAmountNeedRepayNow",
			"outputs": [
				{
					"internalType": "uint256",
					"name": "",
					"type": "uint256"
				}
			],
			"stateMutability": "pure",
			"type": "function"
		},
		{
			"inputs": [
				{
					"internalType": "uint256",
					"name": "pid",
					"type": "uint256"
				}
			],
			"name": "getBillsByPid",
			"outputs": [
				{
					"components": [
						{
							"internalType": "uint256",
							"name": "projectId",
							"type": "uint256"
						},
						{
							"internalType": "uint256",
							"name": "repayTime",
							"type": "uint256"
						},
						{
							"internalType": "uint256",
							"name": "principal",
							"type": "uint256"
						},
						{
							"internalType": "uint256",
							"name": "interest",
							"type": "uint256"
						},
						{
							"internalType": "uint256",
							"name": "repaid",
							"type": "uint256"
						}
					],
					"internalType": "struct Loan.Bill[]",
					"name": "",
					"type": "tuple[]"
				}
			],
			"stateMutability": "view",
			"type": "function"
		},
		{
			"inputs": [
				{
					"internalType": "address",
					"name": "",
					"type": "address"
				},
				{
					"internalType": "uint256",
					"name": "",
					"type": "uint256"
				}
			],
			"name": "launchProjects",
			"outputs": [
				{
					"internalType": "uint256",
					"name": "",
					"type": "uint256"
				}
			],
			"stateMutability": "view",
			"type": "function"
		},
		{
			"inputs": [
				{
					"internalType": "uint256",
					"name": "",
					"type": "uint256"
				}
			],
			"name": "projects",
			"outputs": [
				{
					"internalType": "uint256",
					"name": "amount",
					"type": "uint256"
				},
				{
					"internalType": "uint256",
					"name": "rate",
					"type": "uint256"
				},
				{
					"internalType": "uint8",
					"name": "term",
					"type": "uint8"
				},
				{
					"internalType": "uint256",
					"name": "collectEndTime",
					"type": "uint256"
				},
				{
					"internalType": "uint8",
					"name": "repayMethod",
					"type": "uint8"
				},
				{
					"internalType": "uint8",
					"name": "status",
					"type": "uint8"
				},
				{
					"internalType": "address",
					"name": "launcher",
					"type": "address"
				},
				{
					"internalType": "uint256",
					"name": "collected",
					"type": "uint256"
				}
			],
			"stateMutability": "view",
			"type": "function"
		},
		{
			"inputs": [
				{
					"internalType": "uint256",
					"name": "pid",
					"type": "uint256"
				}
			],
			"name": "repay",
			"outputs": [],
			"stateMutability": "payable",
			"type": "function"
		},
		{
			"inputs": [
				{
					"internalType": "uint256",
					"name": "pid",
					"type": "uint256"
				}
			],
			"name": "revocateProject",
			"outputs": [],
			"stateMutability": "nonpayable",
			"type": "function"
		},
		{
			"inputs": [
				{
					"internalType": "address",
					"name": "",
					"type": "address"
				}
			],
			"name": "users",
			"outputs": [
				{
					"internalType": "bool",
					"name": "",
					"type": "bool"
				}
			],
			"stateMutability": "view",
			"type": "function"
		},
		{
			"stateMutability": "payable",
			"type": "receive"
		}
	]
}